:1000000002002E562850312E34293D25342E3266DA
:10001000562C20562850302E32293D25342E32665B
:10002000560D001B5B324A00000000020140758142
:10003000631200ADE582600302009A780079007ACD
:10004000007B007C007D00EC4D601C88828983E48D
:1000500093A3A882A9838A828B83F0A3AA82AB830D
:100060001CBCFFE31D80E07582007583007C007D71
:1000700000EC4D600AE4F0A31CBCFFF51D80F27596
:1000800082007583007C007D00EC4D600AE4F0A3E3
:100090001CBCFFF51D80F212009F1206AE80FE759B
:1000A0002201E4F523F524E4F525F5262275A700C1
:1000B0007597DE7597AD75FF8075EF0675A710759E
:1000C000C12075A70075A90075A900E5A930E7FB57
:1000D00075A90375A903E5A930E7FB43A41075E1F1
:1000E0000175E20275E340759810758DE6858D8B7C
:1000F00053890F438920D28ED29975C800438E1040
:1001000075CAC075CBE675CEFF75CFFFD2ADD2CA2A
:10011000D2AF75820022AA82438E407592B8759341
:10012000FF8592948593957591047B00C3EB9A505B
:100130000BE59130E7FB53917F0B80F07591002226
:1001400075A700C2CF75220132AA82AB837C007DE5
:1001500000C3EC9AED9B502B7E00BE0400501D7531
:1001600082FAC002C003C004C005C006120116D046
:1001700006D005D004D003D0020E80DE0CBC00D126
:100180000D80CE2285822985832A85F02BE4F52CEB
:10019000F52DE52724FFFFE52834FFF879007A00E4
:1001A000C3E99FEA648088F063F08095F05059C0FD
:1001B00002C007C000C0011208A6AB82D001D00067
:1001C000D007D002BB0A028003BB0D1DE52C2529F8
:1001D000FCE52D352AFDAE2B8C828D838EF0E4124A
:1001E00008B9852C82852D8322E92529FCEA352A48
:1001F000FDAE2B8C828D838EF0EB1208B909B9000D
:10020000010A892C8A2D8098E52C2529FAE52D35BF
:100210002AFBAC2B8A828B838CF0E41208B98527E9
:10022000828528832275A70075B28075BCF875B9E0
:100230001E75E80075DF3F75B300D2EF228582BBE3
:10024000D2EC20ECFDD2EC20ECFD85BD8285BE8396
:100250002212023D120768AA82AB83ACF0FDC002F5
:10026000C003C004C005909FBE75F05274401207D1
:1002700074AA82AB83ACF0FDE58124FCF581E4C077
:10028000E074FCC0E0747FC0E07446C0E08A828BFA
:10029000838CF0ED1208DDAA82AB83ACF0FDE58122
:1002A00024FCF5818A828B838CF0ED2275A7007582
:1002B000960075D90075F700759C00759E0075D87D
:1002C0004075DA4275FCCD75DB4275EA8022AA8260
:1002D000AB83EA4B6056E4B52306E4B524028024E0
:1002E0007401B52306E4B5240280237402B5230605
:1002F000E4B5240280227403B52306E4B524028009
:100300002102037FD2A1D2A2C2A3C2A48071C2A142
:10031000D2A2D2A3C2A48067C2A1C2A2D2A3D2A4F5
:10032000805DD2A1C2A2C2A3D2A48053E4B52306A9
:10033000E4B5240280237401B52306E4B5240280C9
:10034000227402B52306E4B5240280217403B52388
:1003500006E4B5240280208026D2A1C2A2C2A3D284
:10036000A4801CC2A1C2A2D2A3D2A48012C2A1D2D4
:10037000A2D2A3C2A48008D2A1D2A2C2A3C2A405C1
:1003800023E4B5230205240525E4B525020526C38B
:1003900074039523E464808524F063F08095F05025
:1003A00005E4F523F5242243D4CF75A72053F1FBB0
:1003B00053F2EF75A70043D57F43A67F43A5802264
:1003C00085823485833585F03612074CFDA31207EC
:1003D0004CFEC3ED942CEE6480948140030204FA39
:1003E000AD2EAE2FAF308D828E838FF012074CF57D
:1003F00037A312074CF538A312074CF539A312079F
:100400004CF53A75820AC005C006C007120251AC0D
:1004100082AA83ABF0F8C004C002C003C0008537D5
:10042000828538838539F0E53A120817AA82AB83B2
:10043000ACF0F8E58124FCF581D007D006D0058D1D
:10044000828E838FF0EA1208B9A3EB1208B9A3ECED
:100450001208B9A3E81208B974042DFDE43EFE8D1C
:10046000828E838FF012074CF537A312074CF538B4
:10047000A312074CF539A312074CF53A758201C057
:1004800005C006C007120251A982AA83ABF0FCC0C6
:1004900001C002C003C0048537828538838539F0E6
:1004A000E53A120817AA82AB83ACF0F8E58124FC88
:1004B000F581D007D006D0058D828E838FF0EA12A9
:1004C00008B9A3EB1208B9A3EC1208B9A3E8120803
:1004D000B98534828535838536F012074CFAA3122C
:1004E000074CFB0ABA00010B8534828535838536BB
:1004F000F0EA1208B9A3EB0208B985313785323822
:10050000853339AD2EAE2FAF308D828E838FF012B2
:10051000074CF8A312074CF9A312074CFAA31207D1
:100520004CFBC005C006C007E4C0E0C0E07496C044
:10053000E07443C0E0888289838AF0EB1208DDAA68
:1005400082AB83ACF0F8E58124FCF58174B8C0E09F
:10055000741EC0E07405C0E0743EC0E08A828B83E4
:100560008CF0E81208D285823B85833C85F03DF50E
:100570003EE58124FCF581D007D006D00585378281
:100580008538838539F0E53B1208B9A3E53C1208AC
:10059000B9A3E53D1208B9A3E53E1208B9740425D4
:1005A00037F537E43538F53874042DF53FE43EF57A
:1005B000408F41853F828540838541F012074CFB87
:1005C000A312074CF9A312074CFAA312074CFCC064
:1005D00005C006C007E4C0E0C0E07496C0E0744304
:1005E000C0E08B8289838AF0EC1208DDAA82AB839B
:1005F000ACF0F8E58124FCF58174B8C0E0741EC04D
:10060000E07405C0E0743EC0E08A828B838CF0E821
:100610001208D2AA82AB83ACF0F8E58124FCF58104
:100620008537828538838539F0EA1208B9A3EB1241
:1006300008B9A3EC1208B9A3E81208B9C002C003B4
:10064000C004C000C03BC03CC03DC03E7403C0E01D
:100650007400C0E07480C0E0120885E58124F5F5DF
:1006600081D007D006D0058534828535838536F064
:10067000E41208B9A3E41208B98D828E838FF0E4E6
:100680001208B9A3E41208B9A3E41208B9A3E4124A
:1006900008B9853F828540838541F0E41208B9A3FB
:1006A000E41208B9A3E41208B9A3E40208B9E4F516
:1006B00052F553FAFBFCFDC002C003C004C0057430
:1006C00023C0E07400C0E07480C0E012088515818A
:1006D000158115811203A71202AC120225D005D094
:1006E00004D003D0027401B522FB752200C3EA9442
:1006F00014EB6480948050070ABA00150B801290A6
:100700000001C004C0051202CED005D0047A007BDF
:1007100000C3EC9408ED6480948050070CBC00C5C5
:100720000D80C2752E4A752F0075304075314275A7
:10073000320075334090005275F040C002C0031281
:1007400003C0D003D0027C007D00809920F71430D4
:10075000F6148883A88220F507E6A8837583002213
:10076000E280F7E49322E022E4AC83AB82FAF974EE
:100770008E020A05120A91BC0003020A30EF60FAE9
:1007800030D502B2D1E583B4FF03020A46E582B454
:10079000FF03020A46258340072482400B020A30E9
:1007A0002483145003020A46F582EA8DF0A4A8F0CF
:1007B000EA8EF0A428F8E435F0F9EB8DF0A428E9EE
:1007C00035F0F9E433CA8FF0A429F9EA35F0FAEBF1
:1007D000F88EF0A429F9EA35F0FAE433FBEC8DF059
:1007E000A429F9EA35F0FAE43BFBE88FF0A42AFAF1
:1007F000EB35F0FBE433CCFD8EF0A42AFAEB35F0B8
:10080000FBE43CFCED8FF0A42BFBEC35F0FC20E787
:1008100003120A5E020A0F120A917900E583B5827B
:1008200002800D5003120ABFE583C39582120AD9D4
:10083000E5D0C465D020E117EA2DFAEB3EFBEC3F92
:10084000FC50097401120AD9EC4480FC020A0FC35F
:10085000EA9DFAEB9EFBEC9FFC500FC3E499F9E490
:100860009AFAE49BFBE49CFCB2D1120A5E020A0FE6
:100870000214A885821885831985F01A85091B90B2
:100880000870020EFBC008858108E50824FBF51BF3
:10089000E50824FBF8861808861908861A9008705F
:1008A000120EFBD0082210980280FBAA998A82C0FF
:1008B000021214A8D0028A822220F71030F6118882
:1008C00083A88220F507F6A88375830022F280F7BB
:1008D000F022A8811818C6B2E7C6020817120A91BA
:1008E00030D502B2D1BF0009BC0003020A53020A8C
:1008F00046BC0003020A30E583B4FF0BE582B4FF77
:1009000003020A53020A30E582B4FF03020A46C317
:1009100095835007247F400B020A30248014500333
:10092000020A46C0E0E4CCCBCAF98D1C8E1D8F1E96
:10093000EF54F0C4F51F758306851FF0EB84F58234
:10094000E9C4F9EAC4FAEBC4FBEC540FC47803D64B
:10095000FC18EBD6FB18EAD6FA8582F0EDA4A8F0D5
:10096000FD8582F0EEA428FEE435F0F88582F0EFF4
:10097000A428FFE435F0F8E99DF9EA9EFAEB9FFB25
:10098000EC98FCAD1CAE1DAF1E30E7101582E92DB2
:10099000F9EA3EFAEB3FFBE43CFC80EDC082D583F4
:1009A00098C3E933F9EA33FAEB33FBEC33FCC3E9E0
:1009B0009DEA9EEB9FEC9400B3E413F9D002D0E0E3
:1009C000C44AFAD003D0E0C44BFBD004D0E0F5F029
:1009D000540FC44CFCD082158230F40FD3EC13FCBE
:1009E000EB13FBEA13FAE913F90582E930E70A741D
:1009F000012AFAE43BFBE43CFC020A27FCABF0AA28
:100A000083A982749EC2D1F582120A5E020A0FB9CE
:100A10008003EA13B34010EA2401FAE43BFBE43C10
:100A2000FC50047C800582BC000EBB000BBA0008A1
:100A3000E4F5F0F583F58222A2D1E582138CF092E1
:100A4000F78B838A8222E4F583F58275F080F4A225
:100A5000D11322E4F583F58275F0C0747F22780407
:100A6000EC7011E58224F8500AF582E4C9CACBFC87
:100A7000D8EF22EC7820058220E713D5820122C32B
:100A8000E933F9EA33FAEB33FBEC33FCD8EA1582AD
:100A900022AA82AB83A2F73392D16002D2F7F58209
:100AA000ACF0E58124F9F8E6FD08E6FE0886F008DA
:100AB000E6A2F73392D56002D2F7F583AFF022E5D4
:100AC00082C583F582A2D133A2D592D11392D5ECFF
:100AD000CFFCEBCEFBEACDFA226040F82582500233
:100AE00074FFF582E824F8501ECCCBCAF9E4CC247C
:100AF000F85014CBCAF9E4CB24F8500BCAF9E4CA75
:100B000024F8500379002224086010F8C3EC13FC89
:100B1000EB13FBEA13FAE913F9D8F122AA82742D38
:100B2000C0E0740BC0E0C00AC00B8A82220511E449
:100B3000B51102051222AA8274302AFA24C6500A7C
:100B400074072AFA3000034302208A82020B1CE554
:100B500082FAC4540FF582C002120B36D002740F11
:100B60005AF582020B36AA0CAB0DAC0EAD0FAE10CF
:100B7000751720EE2EFEED235401FF4206EA2AFAF5
:100B8000EB33FBEC33FCED33FDC3EE95134008EE85
:100B9000C39513FE430201D517D98A0C8B0D8C0E19
:100BA0008D0F8E10227860E624D075F00AA4FA78B2
:100BB00061E624D02AFA785F8603BB2D04C3E49A49
:100BC000FA751301C3E464808AF063F08095F050F5
:100BD000297517038A0374F62517401C0513E517BA
:100BE000142454F8E5172454F98704A604772E1B1F
:100BF000EBFA6004051780DE8B02EA30E70D7855CA
:100C000086037856A6037855762E0AE515600AE520
:100C10001504FB2513F5138005300B0205137854DA
:100C20008603E4BB2D0104FB700620060330070297
:100C30000513300403020CEC300557EB600C758291
:100C40002DC002120B1CD002801C30060C75822BAA
:100C5000C002120B1CD002800D30070A758220C022
:100C600002120B1CD00278558604BC2E0C75823003
:100C7000C002120B1CD0021514AC141514C3E513DA
:100C80009C4003020D30758230C002120B1CD00252
:100C900080E7AC141514C3E5139C500C758220C07A
:100CA00002120B1CD00280EA78548604BC2D0C750D
:100CB000822DC002120B1CD002801C30060C7582E3
:100CC0002BC002120B1CD002800D30070A75822047
:100CD000C002120B1CD00278558604BC2E527582BD
:100CE00030C002120B1CD00215148044EB600E754C
:100CF000822DC002120B1CD0021514802030060E6B
:100D000075822BC002120B1CD0021514800F300705
:100D10000C758220C002120B1CD002151478558667
:100D200003BB2E0C758230C002120B1CD0021514AE
:100D3000751701C20DE5172454F88603BB4503025D
:100D40000DEDBB2E348A03C3E464808BF063F08026
:100D500095F0500F758230C003120B1CD0031B8B13
:100D60000280E48B02D20DE5157038200B03020DD2
:100D7000ED75822E120B1C8074300D278A03EB3028
:100D8000E71FC3E464808515F063F08095F0500C94
:100D9000758230C003120B1CD00315150B8B02801B
:100DA000DD8B02300D0EC3E464808515F063F080A6
:100DB00095F05021E5172454F886038B82C0021267
:100DC0000B1CD002300D0EE5172454F88603BB2E01
:100DD00002800215151514C3E464808515F063F0D4
:100DE0008095F04003200D050517020D35C3E4641E
:100DF000808515F063F08095F0500A758230120BF3
:100E00001C151580E830040FAA141514EA60087543
:100E10008220120B1C80F122E5157003300B0D743B
:100E2000072515FAE514C39AF5148006E51424FA8B
:100E3000F51475170078548602BA2B0F20060C782B
:100E40005476202007057517010514200419AA14EB
:100E5000C3E464808AF063F08095F0500A758220C4
:100E6000120B1C151480E7C20DE5172454F88602F6
:100E7000BA00028069BA451F3000027665C3E46497
:100E8000808515F063F08095F0500A758230120B62
:100E90001C151580E8D20DC3E5179402E433FA70EF
:100EA00014EA700EC3E464808515F063F08095F059
:100EB0004003300D16E5172454F886028A82120B7F
:100EC0001CE51724FD50121515800E7402B5170984
:100ED000300B0675822E120B1C0517020E693004AA
:100EE00019AA14C3E464808AF063F08095F0500A74
:100EF000758220120B1C151480E72285820A8583D7
:100F00000BE4F511F512AA18AB19AC1A8A828B837F
:100F10008CF012074CFD74012AF518E43BF5198C8E
:100F20001AEDFA70030214A1BA2502800302149983
:100F3000C204C205C206C207C208C209C20AC20B65
:100F4000C201C202C2037513007514007515FFAB10
:100F500018AC19AD1A8B828C838DF012074CFAA352
:100F6000AB82AC838B188C198D1ABA25078A821232
:100F70000B1C80928A06BE3000402E8A06EE24C6E4
:100F8000402774FFB51513E51475F00AA4FEEA2492
:100F9000D02EF51470BFD20580BBE51575F00AA4FC
:100FA000FEEA24D02EF51580ACBA2E0A74FFB515D2
:100FB000A4751500809F8A06BE6100400E8A06EE69
:100FC000248540075302DFD2008002C200BA20020B
:100FD0008075BA2303021056BA2A0302105BBA2B9B
:100FE00002805FBA2D028055BA4202805FBA430385
:100FF0000210A0BA44030211DBBA45030211F5BA8C
:1010000046030211F1BA47030211F9BA490302116A
:10101000DBBA4C02803BBA4E030211FDBA4F030209
:1010200011E2BA5003021174BA53030210C4BA5544
:10103000030211E7BA58030211EC021227D204028C
:101040000F55D206020F55D207020F55D209020FD3
:1010500055D20A020F55D20B020F5574FFB5152059
:1010600030090BE51B14F8881B8614020F55E51B8D
:1010700024FEF8881B8606088607188E14020F5572
:1010800030090BE51B14F8881B8615020F55E51B6C
:1010900024FEF8881B8606088607188E15020F5551
:1010A00030090AE51B14F8881B8602800FE51B2413
:1010B000FEF8881B8603088604188B028A82120BAE
:1010C0001C02122CE51B24FDF8881B8603088604ED
:1010D00008860518188B0C8C0D8D0E8B828C838DD9
:1010E000F01215DCAB82AC838B1674FFB51503854B
:1010F000161520041DC3E51695145016E514C39566
:1011000016F514AB141514EB6008758220120B1C35
:1011100080F1850C82850D83850EF012074CFBFA59
:101120006029AB151515C3E464808BF063F08095DE
:10113000F050188A82120B1CAB0CAC0DAD0E0BBB21
:1011400000010C8B0C8C0D8D0E80C7200403021245
:101150002CC3E5169514400302122CE514C3951612
:10116000F514AB141514EB700302122C75822012C7
:101170000B1C80EEE51B24FDF8881B860308860403
:1011800008860518188B0C8C0D8D0EE50EFB30E7CC
:10119000047A438013EB546060047A50800AEB3089
:1011A000E6047A4980027A588A82C002120B1C75C2
:1011B000823A120B1C758230120B1C758278120B4E
:1011C0001CD002BA4902800BBA50028006850D82FB
:1011D000120B4F850C82120B4F8051D20875130AE7
:1011E000804A751308804575130A80407513108076
:1011F0003BD2018037D2028033D203802FE51B24FB
:10120000FDF8881B860308860408860518188B0CD1
:101210008C0D8D0E8B828C838DF0E5111208B9A395
:10122000E5121208B980058A82120B1C20010620E3
:101230000203300370E51B24FCF8881B8603088634
:10124000040886050886061818188B0C8C0D8D0E60
:101250008E0FE50CE50DE50EE50F8B828C838DF08E
:10126000EE1214BD74FFB51503751506300327740F
:101270007F550FFB8B10E510EB2BFB8B10E50E3031
:10128000E70674014510F510E510246840067499CE
:1012900025104002D202300206120E18020F06126A
:1012A0000BA5020F06E5137003020F067B593009E8
:1012B0002BE51B14F8881BE6FC3395E0FDFEFF8C44
:1012C0000C8D0D8E0E8F0F20085EAC0C7D007E0005
:1012D0007F008C0C8D0D8E0E8F0F804C300A1FE519
:1012E0001B24FCF8881B86040886050886060886E9
:1012F000071818188C0C8D0D8E0E8F0F802AE51B89
:1013000024FEF8881B860408860518ED3395E0FE58
:10131000FF8C0C8D0D8E0E8F0F20080CAC0CAD0DBC
:101320007E007F008E0E8F0F300B43E50C450D4580
:101330000E450F60397408B5130C758230C0031266
:101340000B1CD00380287410B51323758230C003A2
:10135000120B1CD00330000C758278C003120B1CDA
:10136000D003800A758258C003120B1CD0033008CA
:1013700025AC0CAD0DAE0EE50FFF30E717C3E49CB6
:10138000FCE49DFDE49EFEE49FFF8C0C8D0D8E0E13
:101390008F0F8002C208751600D20C8B00751000EA
:1013A000C000120B66D000200C0DE510C4FCE6FD59
:1013B0004CF61888038002A6100516B20CE50C4501
:1013C0000D450E450F70D68803E5147003751401A2
:1013D00020051A200417E51604FCC39514500E7559
:1013E0008220C003120B1CD003151480E930080EB4
:1013F00075822DC003120B1CD00315148024E51632
:10140000602030060E75822BC003120B1CD0031512
:1014100014800F30070C758220C003120B1CD00300
:10142000151420041EAC141514C3E5169C50273067
:1014300005047C3080027C208C82C003120B1CD0FF
:101440000380E2C3E51695145009E514C39516F51B
:101450001480037514008B00AB161516EB6022B2D6
:101460000C200C0A08E6C4540FFB8B10800786037F
:10147000740F5BF510851082C000120B36D000800F
:10148000D7200403020F06AB141514EB7003020FF0
:1014900006758220120B1C80EE8A82120B1C020F32
:1014A0000685118285128322AA82BA0A081099023F
:1014B00080FB75990D10990280FB8A9922C0E0F893
:1014C0004582458345F07009F5F0FBFCFDFE0215F1
:1014D0008BE823A2F792E0F8A982AA83D2F7ABF0B7
:1014E0007C007E07C3749798404074FF2EFE740AF8
:1014F00089F0A4F985F082740A8AF0A4FA85F08351
:10150000740A8BF0A4FB740529F9EA3582FAEB35ED
:1015100083FB740035F0FCC3EC13FCEB13FBEA1304
:10152000FAE913F908EC70EF80BAE8C3947FF88BFE
:10153000838EF0E4FBFCFDFEFF08C3E933F9EA33D8
:10154000FAE58333F583EB3BD4FBEC3CD4FCED3D77
:10155000D4FDEE3ED4FEEF3FD4FF602D05F07405C0
:101560002BD4FBE43CD4FCE43DD4FDE43ED4FEE4C7
:101570003FD4FF758204C3EF13FFEE13FEED13FD9E
:10158000EC13FCEB13FBD582EDD8AF7854D0E02000
:10159000E704762B8002762D087906E7C4540F44C1
:1015A00030F608B90603762E08E7540F4430F608E3
:1015B00019B902E7764508E5F020E704762B8004A8
:1015C000762DF4040875F00A844430F608E5F044FA
:1015D00030F608E4F690005475F04022AA82AB83FE
:1015E000ACF07D007E008A828B838CF012074CFF6A
:1015F000A3AA82AB83EF60070DBD00EA0E80E78DE2
:10160000828E832200000000000000000000000025
:00000001FF
