:100000000200760000000000000000000000000078
:1000200000000000000000000000000201A11B5BB6
:10003000324A00562850312E33293D25332E326660
:10004000562C20562850302E32293D25332E32662C
:10005000562057696E64203D20252E326620646547
:1000600067726565730D000000000000000000006D
:1000700000000002025A75816B120111E5826003D3
:100080000200E2780079007A007B007C007D00ECC1
:100090004D601C88828983E493A3A882A9838A8205
:1000A0008B83F0A3AA82AB831CBCFFE31D80E075A9
:1000B00082007583007C007D00EC4D600AE4F0A3B3
:1000C0001CBCFFF51D80F27582007583007C007DED
:1000D00000EC4D600AE4F0A31CBCFFF51D80F21299
:1000E00000E712059880FE75220175230175240032
:1000F000752500752600752700752800752900E410
:10010000F52AF52B752C00752D00752E00752F0026
:100110002275A7007597DE7597AD75FF8075EF06A0
:1001200075A71075C12075A70075A90075A900E510
:10013000A930E7FB75A90375A903E5A930E7FB43DF
:10014000A41043D4CF43D50F75E10375E20175E3E5
:1001500040759810758DE6858D8B53890F438920E6
:10016000D28ED29975A2FC75A16075F80175C80090
:10017000438E1075CA6075CB7375CEFF75CFFFD2F5
:10018000ADD2CA759100438E407592DC7593FF75B0
:1001900094FF7595FF43E680439104D2AF758200CA
:1001A00022C0E0C0D075D00075A700C2CF7401B5E1
:1001B000240280030202557404B52902800302025E
:1001C000537529007401B5233DE525700302023EF5
:1001D000E528700AD2A1D2A2C2A3C2A48060740191
:1001E000B5280AC2A1D2A2D2A3C2A480517402B57A
:1001F000280AC2A1C2A2D2A3D2A48042D2A1C2A282
:10020000C2A3D2A48038E5266034E528700AD2A1C2
:10021000C2A2C2A3D2A480267401B5280AC2A1C278
:10022000A2D2A3D2A480177402B5280AC2A1D2A276
:10023000D2A3C2A48008D2A1D2A2C2A3D2A405286C
:10024000052AE4B52A02052BE52824FC5007752869
:100250000080020529D0D0D0E03275A70053913F2D
:1002600075220175270132AA82AB837527007C00B5
:100270007D00C3EC9AED64808BF063F08095F050C4
:100280000F7401B527EC7527000CBC00E50D80E26A
:100290002275A70075B28075BCF875B91E75E800A7
:1002A00075DF3F75B300D2EF228582BBD2EC20EC24
:1002B000FDD2EC20ECFD85BD8285BE83221202A911
:1002C000120795AA82AB83ACF0FDC002C003C00444
:1002D000C005909FBE75F0527440120801AA82AB0F
:1002E00083ACF0FDE58124FCF581E4C0E074FCC042
:1002F000E0747FC0E07446C0E08A828B838CF0EDAE
:10030000120951AA82AB83ACF0FDE58124FCF58192
:100310008A828B838CF0ED2275A70075960075D9C3
:100320000075F700759C00759E0075D84075DA421F
:1003300075FC802275A72053F1FB53F2F743A5D03B
:1003400043A67F75A700228582A310FF0280FB22AF
:10035000C3E5309402E53194005060E530453170DA
:1003600031C2A09000071202677582AA120347E506
:10037000302530FAE53133EA2432F8AAA37B00A60F
:100380000208A6030530E4B53002053190002802CA
:1003900002677582FF120347E5302530FAE53133F5
:1003A000EA2432F8AAA37B00A60208A6030530E4DB
:1003B000B530020531900032020267C3E530940A7D
:1003C000E531940050297582FF120347E53025304E
:1003D000FAE53133EA2432F8AAA37B00A60208A684
:1003E000030530E4B530020531900028020267D2DF
:1003F000A0900640120267E4F530F531AB367A0082
:10040000E5382AFAE5393BFBE4FCFD74015538FE7A
:100410007F00BE0155BF0052EDC313FDEC13FCEB92
:1004200013FBEA13FAEDC313FDEC13FCEB13FBEA29
:1004300013F5828B838CF0ED12093385822C858332
:100440002D85F02EF52FC02CC02DC02EC02F900072
:100450000075F0B4743C12080185822C85832D85CB
:10046000F02EF52FE58124FCF58122E4C0E0C0E008
:100470007434C0E07441C0E0852C82852D83852EC4
:10048000F0E52F1207D1AA82E58124FCF581EAB4B8
:100490000100E433FAC002E4C0E07460C0E074AE6E
:1004A000C0E07443C0E0852C82852D83852EF0E565
:1004B0002F1207A1AB82E58124FCF581D002EBB4B9
:1004C0000100E433FB5A700302058E752401E4C079
:1004D000E0C0E07434C0E07443C0E0852C82852D18
:1004E00083852EF0E52F1207A1AA82E58124FCF571
:1004F00081EA703B752301E4F526C0E0C0E0743466
:10050000C0E07441C0E0852C82852D83852EF0E506
:100510002F120951AA82AB83ACF0FDE58124FCF5D2
:10052000818A828B838CF0ED120A70858225227578
:100530002300E4F525C0E0C0E07434C0E07443C09B
:10054000E0852C82852D83852EF0E52F120946AAA1
:1005500082AB83ACF0FDE58124FCF581E4C0E0C012
:10056000E07434C0E07441C0E08A828B838CF0ED8B
:10057000120951AA82AB83ACF0FDE58124FCF58120
:100580008A828B838CF0ED120A7085822622752474
:100590000075260075250022E4F556F557FCFDC0D0
:1005A00004C005742EC0E07400C0E07480C0E01286
:1005B00009121581158115811203341203181202D4
:1005C00091D005D0047401B522028003020784751E
:1005D0002200C3EC9414ED6480948050080CBC009D
:1005E000010D020784C3E5569414E5576480948096
:1005F0004003020688854E58854F5985505A8551CB
:100600005B7582091202BDAA82AB83AEF0FFC00205
:10061000C003C006C007855882855983855AF0E516
:100620005B1208A4AA82AB83AEF0FFE58124FCF53F
:10063000818A4E8B4F8E508F5185525885535985E4
:10064000545A85555B7582011202BDAA82AB83AEF6
:10065000F0FFC002C003C006C007855882855983D9
:10066000855AF0E55B1208A4AA82AB83AEF0FFE5E1
:100670008124FCF5818A528B538E548F550556E4A4
:10068000B556020557020780E4C0E0C0E074A0C080
:10069000E07441C0E0854E82854F838550F0E5517E
:1006A000120951AA82AB83AEF0FFE58124FCF581EB
:1006B000749AC0E07499C0E0C0E0743EC0E08A82E1
:1006C0008B838EF0EF12094685825885835985F019
:1006D0005AF55BE58124FCF58185584685594785A7
:1006E0005A48855B49E4C0E0C0E074A0C0E07441B2
:1006F000C0E08552828553838554F0E55512095137
:10070000AA82AB83AEF0FFE58124FCF581749AC028
:10071000E07499C0E0C0E0743EC0E08A828B838EB2
:10072000F0EF120946AA82AB83AEF0FFE58124FC0C
:10073000F5818A4A8B4B8E4C8F4DC02CC02DC02E1C
:10074000C02FC002C003C006C007C058C059C05A5D
:10075000C05B7433C0E07400C0E07480C0E0120974
:1007600012E58124F1F581E4F556F557F54EF54F84
:10077000F550F551755200755300755400755500CC
:100780007C007D00C004C00512035012046BD0052C
:10079000D0040205C5E4AC83AB82FAF9748E020979
:1007A0003CFFA8811818120A96D2D133E6400730D0
:1007B000E70B7582012220E70675820022C2D11262
:1007C0000A78E97003F5822230D101B3E433F5826F
:1007D00022FFA8811818120A96D2D133E6400730BA
:1007E000E70B7582002220E70675820122C2D11232
:1007F0000A78E97003F5822220D101B3E433F5824F
:1008000022120B43BC0003020AE2EF60FA30D50269
:10081000B2D1E583B4FF03020AF8E582B4FF030214
:100820000AF8258340072482400B020AE22483143D
:100830005003020AF8F582EA8DF0A4A8F0EA8EF0DF
:10084000A428F8E435F0F9EB8DF0A428E935F0F9A7
:10085000E433CA8FF0A429F9EA35F0FAEBF88EF008
:10086000A429F9EA35F0FAE433FBEC8DF0A429F978
:10087000EA35F0FAE43BFBE88FF0A42AFAEB35F016
:10088000FBE433CCFD8EF0A42AFAEB35F0FBE43C1C
:10089000FCED8FF0A42BFBEC35F0FC20E703120BF2
:1008A00010020AC1120B437900E583B58202800D64
:1008B0005003120B71E583C39582120B8BE5D0C4F4
:1008C00065D020E117EA2DFAEB3EFBEC3FFC500926
:1008D0007401120B8BEC4480FC020AC1C3EA9DFA3E
:1008E000EB9EFBEC9FFC500FC3E499F9E49AFAE409
:1008F0009BFBE49CFCB2D1120B10020AC102155AF8
:1009000085821885831985F01A85091B9008FD02D8
:100910000FADC008858108E50824FBF51BE5082418
:10092000FBF8861808861908861A9008FD120FAD84
:10093000D00822FCABF0AA83A982749EC2D1F582B2
:10094000120B10020AC1A8811818C6B2E7C6020825
:10095000A4120B4330D502B2D1BF0009BC00030280
:100960000B05020AF8BC0003020AE2E583B4FF0BA0
:10097000E582B4FF03020B05020AE2E582B4FF033D
:10098000020AF8C395835007247F400B020AE22431
:1009900080145003020AF8C0E0E4CCCBCAF98D1CE5
:1009A0008E1D8F1EEF54F0C4F51F758306851FF052
:1009B000EB84F582E9C4F9EAC4FAEBC4FBEC540F0A
:1009C000C47803D6FC18EBD6FB18EAD6FA8582F079
:1009D000EDA4A8F0FD8582F0EEA428FEE435F0F841
:1009E0008582F0EFA428FFE435F0F8E99DF9EA9E4E
:1009F000FAEB9FFBEC98FCAD1CAE1DAF1E30E71070
:100A00001582E92DF9EA3EFAEB3FFBE43CFC80ED70
:100A1000C082D58398C3E933F9EA33FAEB33FBECB0
:100A200033FCC3E99DEA9EEB9FEC9400B3E413F919
:100A3000D002D0E0C44AFAD003D0E0C44BFBD004CB
:100A4000D0E0F5F0540FC44CFCD082158230F40F86
:100A5000D3EC13FCEB13FBEA13FAE913F90582E973
:100A600030E70A74012AFAE43BFBE43CFC020AD9B1
:100A70007F86121571F582227901AA82E68F82B5EE
:100A8000821318E6B5F00E18E6B5830918E68A82D7
:100A9000B58202790022B4800FE5F0700AE5837018
:100AA00006E58270027F00EFB6801518B6001018B8
:100AB000B6000B18B60006080808760022080808D9
:100AC00022B98003EA13B34010EA2401FAE43BFBA5
:100AD000E43CFC50047C800582BC000EBB000BBAD9
:100AE0000008E4F5F0F583F58222A2D1E582138CAB
:100AF000F092F78B838A8222E4F583F58275F08089
:100B0000F4A2D11322E4F583F58275F0C0747F223C
:100B10007804EC7011E58224F8500AF582E4C9CA21
:100B2000CBFCD8EF22EC7820058220E713D5820198
:100B300022C3E933F9EA33FAEB33FBEC33FCD8EAAE
:100B4000158222AA82AB83A2F73392D16002D2F738
:100B5000F582ACF0E58124F9F8E6FD08E6FE0886AA
:100B6000F008E6A2F73392D56002D2F7F583AFF032
:100B700022E582C583F582A2D133A2D592D1139208
:100B8000D5ECCFFCEBCEFBEACDFA226040F8258213
:100B9000500274FFF582E824F8501ECCCBCAF9E469
:100BA000CC24F85014CBCAF9E4CB24F8500BCAF982
:100BB000E4CA24F8500379002224086010F8C3EC3A
:100BC00013FCEB13FBEA13FAE913F9D8F122AA821A
:100BD00074DFC0E0740BC0E0C00AC00B8A8222053B
:100BE00011E4B51102051222AA8274302AFA24C631
:100BF000500A74072AFA3000034302208A82020B4B
:100C0000CEE582FAC4540FF582C002120BE8D0027E
:100C1000740F5AF582020BE8AA0CAB0DAC0EAD0FA7
:100C2000AE10751720EE2EFEED235401FF4206EAAA
:100C30002AFAEB33FBEC33FCED33FDC3EE951340A6
:100C400008EEC39513FE430201D517D98A0C8B0D0C
:100C50008C0E8D0F8E10227868E624D075F00AA4D1
:100C6000FA7869E624D02AFA78678603BB2D04C394
:100C7000E49AFA751301C3E464808AF063F0809506
:100C8000F050297517038A0374F62517401C0513C5
:100C9000E51714245CF8E517245CF98704A60477AB
:100CA0002E1BEBFA6004051780DE8B02EA30E70D9D
:100CB000785D8603785EA603785D762E0AE515607A
:100CC0000AE51504FB2513F5138005300B02051307
:100CD000785C8603E4BB2D0104FB7006200603301C
:100CE00007020513300403020D9E300557EB600C1C
:100CF00075822DC002120BCED002801C30060C75FE
:100D0000822BC002120BCED002800D30070A7582F2
:100D100020C002120BCED002785D8604BC2E0C756A
:100D20008230C002120BCED0021514AC141514C3BD
:100D3000E5139C4003020DE2758230C002120BCE17
:100D4000D00280E7AC141514C3E5139C500C7582D7
:100D500020C002120BCED00280EA785C8604BC2D43
:100D60000C75822DC002120BCED002801C30060CF6
:100D700075822BC002120BCED002800D30070A758F
:100D80008220C002120BCED002785D8604BC2E52A7
:100D9000758230C002120BCED00215148044EB6075
:100DA0000E75822DC002120BCED002151480203099
:100DB000060E75822BC002120BCED0021514800FC6
:100DC00030070C758220C002120BCED002151478A9
:100DD0005D8603BB2E0C758230C002120BCED00292
:100DE0001514751701C20DE517245CF88603BB4581
:100DF00003020E9FBB2E348A03C3E464808BF0632E
:100E0000F08095F0500F758230C003120BCED003E6
:100E10001B8B0280E48B02D20DE5157038200B038A
:100E2000020E9F75822E120BCE8074300D278A031E
:100E3000EB30E71FC3E464808515F063F08095F024
:100E4000500C758230C003120BCED00315150B8BDE
:100E50000280DD8B02300D0EC3E464808515F063E3
:100E6000F08095F05021E517245CF886038B82C052
:100E700002120BCED002300D0EE517245CF886036B
:100E8000BB2E02800215151514C3E464808515F08D
:100E900063F08095F04003200D050517020DE7C3B0
:100EA000E464808515F063F08095F0500A75823017
:100EB000120BCE151580E830040FAA141514EA6041
:100EC00008758220120BCE80F122E5157003300BDD
:100ED0000D74072515FAE514C39AF5148006E51478
:100EE00024FAF514751700785C8602BA2B0F2006D9
:100EF0000C785C762020070575170105142004196D
:100F0000AA14C3E464808AF063F08095F0500A75F7
:100F10008220120BCE151480E7C20DE517245CF871
:100F20008602BA00028069BA451F3000027665C3A6
:100F3000E464808515F063F08095F0500A75823086
:100F4000120BCE151580E8D20DC3E5179402E433D9
:100F5000FA7014EA700EC3E464808515F063F080C3
:100F600095F04003300D16E517245CF886028A825E
:100F7000120BCEE51724FD50121515800E7402B524
:100F80001709300B0675822E120BCE0517020F1BA8
:100F9000300419AA14C3E464808AF063F08095F0E9
:100FA000500A758220120BCE151480E72285820A22
:100FB00085830BE4F511F512AA18AB19AC1A8A82D5
:100FC0008B838CF0121596FD74012AF518E43BF51D
:100FD000198C1AEDFA7003021553BA250280030228
:100FE000154BC204C205C206C207C208C209C20A22
:100FF000C20BC201C202C20375130075140075153D
:10100000FFAB18AC19AD1A8B828C838DF01215963C
:10101000FAA3AB82AC838B188C198D1ABA25078A78
:1010200082120BCE80928A06BE3000402E8A06EED7
:1010300024C6402774FFB51513E51475F00AA4FE05
:10104000EA24D02EF51470BFD20580BBE51575F0EB
:101050000AA4FEEA24D02EF51580ACBA2E0A74FF3D
:10106000B515A4751500809F8A06BE6100400E8AE2
:1010700006EE248540075302DFD2008002C200BA88
:1010800020028075BA2303021108BA2A0302110D47
:10109000BA2B02805FBA2D028055BA4202805FBA35
:1010A0004303021152BA440302128DBA45030212DD
:1010B000A7BA46030212A3BA47030212ABBA490306
:1010C00002128DBA4C02803BBA4E030212AFBA4FE5
:1010D00003021294BA5003021226BA530302117685
:1010E000BA5503021299BA580302129E0212D9D2BB
:1010F00004021007D206021007D207021007D20915
:10110000021007D20A021007D20B02100774FFB5B3
:10111000152030090BE51B14F8881B8614021007F4
:10112000E51B24FEF8881B8606088607188E140225
:10113000100730090BE51B14F8881B8615021007F1
:10114000E51B24FEF8881B8606088607188E150204
:10115000100730090AE51B14F8881B8602800FE58A
:101160001B24FEF8881B8603088604188B028A82DB
:10117000120BCE0212DEE51B24FDF8881B86030845
:10118000860408860518188B0C8C0D8D0E8B828CAE
:10119000838DF01216EAAB82AC838B1674FFB51503
:1011A0000385161520041DC3E51695145016E51485
:1011B000C39516F514AB141514EB60087582201254
:1011C0000BCE80F1850C82850D83850EF01215966D
:1011D000FBFA6029AB151515C3E464808BF063F04E
:1011E0008095F050188A82120BCEAB0CAC0DAD0E70
:1011F0000BBB00010C8B0C8C0D8D0E80C7200403E3
:101200000212DEC3E516951440030212DEE514C394
:101210009516F514AB141514EB70030212DE7582EB
:1012200020120BCE80EEE51B24FDF8881B860308F8
:10123000860408860518188B0C8C0D8D0EE50EFBA8
:1012400030E7047A438013EB546060047A50800ADC
:10125000EB30E6047A4980027A588A82C002120B87
:10126000CE75823A120BCE758230120BCE75827813
:10127000120BCED002BA4902800BBA50028006850A
:101280000D82120C01850C82120C018051D208755E
:10129000130A804A751308804575130A8040751338
:1012A00010803BD2018037D2028033D203802FE5F9
:1012B0001B24FDF8881B8603088604088605181879
:1012C0008B0C8C0D8D0E8B828C838DF0E51112169C
:1012D000D1A3E5121216D180058A82120BCE20010D
:1012E00006200203300370E51B24FCF8881B8603EC
:1012F0000886040886050886061818188B0C8C0DBD
:101300008D0E8E0FE50CE50DE50EE50F8B828C83BF
:101310008DF0EE1215B274FFB51503751506300386
:1013200027747F550FFB8B10E510EB2BFB8B10E523
:101330000E30E70674014510F510E51024684006EC
:10134000749925104002D202300206120ECA020F12
:10135000B8120C57020FB8E5137003020FB87B6187
:1013600030092BE51B14F8881BE6FC3395E0FDFEE5
:10137000FF8C0C8D0D8E0E8F0F20085EAC0C7D0047
:101380007E007F008C0C8D0D8E0E8F0F804C300AEE
:101390001FE51B24FCF8881B8604088605088606C2
:1013A0000886071818188C0C8D0D8E0E8F0F802A4A
:1013B000E51B24FEF8881B860408860518ED339586
:1013C000E0FEFF8C0C8D0D8E0E8F0F20080CAC0CE8
:1013D000AD0D7E007F008E0E8F0F300B43E50C4568
:1013E0000D450E450F60397408B5130C758230C079
:1013F00003120BCED00380287410B51323758230EE
:10140000C003120BCED00330000C758278C00312DB
:101410000BCED003800A758258C003120BCED003C6
:10142000300825AC0CAD0DAE0EE50FFF30E717C34D
:10143000E49CFCE49DFDE49EFEE49FFF8C0C8D0D7E
:101440008E0E8F0F8002C208751600D20C8B0075AD
:101450001000C000120C18D000200C0DE510C4FCC8
:10146000E6FD4CF61888038002A6100516B20CE5BE
:101470000C450D450E450F70D68803E514700375B5
:10148000140120051A200417E51604FCC395145016
:101490000E758220C003120BCED003151480E930E4
:1014A000080E75822DC003120BCED00315148024B4
:1014B000E516602030060E75822BC003120BCED0CD
:1014C000031514800F30070C758220C003120BCE59
:1014D000D003151420041EAC141514C3E5169C503B
:1014E000273005047C3080027C208C82C003120BE4
:1014F000CED00380E2C3E51695145009E514C395D8
:1015000016F51480037514008B00AB161516EB60EE
:1015100022B20C200C0A08E6C4540FFB8B10800783
:101520008603740F5BF510851082C000120BE8D0A3
:101530000080D7200403020FB8AB141514EB70031E
:10154000020FB8758220120BCE80EE8A82120BCE6B
:10155000020FB885118285128322AA82BA0A081066
:10156000990280FB75990D10990280FB8A99227F60
:101570009E12171230D103020AE2C3EF958250097E
:1015800074FFF5F0F583F582227900120B8B8982C6
:101590008A838BF0EC2220F71430F6148883A8821B
:1015A00020F507E6A88375830022E280F7E4932202
:1015B000E022C0E0F84582458345F07009F5F0FB74
:1015C000FCFDFE021680E823A2F792E0F8A982AAA9
:1015D00083D2F7ABF07C007E07C3749798404074C9
:1015E000FF2EFE740A89F0A4F985F082740A8AF04D
:1015F000A4FA85F083740A8BF0A4FB740529F9EA38
:101600003582FAEB3583FB740035F0FCC3EC13FC38
:10161000EB13FBEA13FAE913F908EC70EF80BAE870
:10162000C3947FF88B838EF0E4FBFCFDFEFF08C3C0
:10163000E933F9EA33FAE58333F583EB3BD4FBEC8A
:101640003CD4FCED3DD4FDEE3ED4FEEF3FD4FF6034
:101650002D05F074052BD4FBE43CD4FCE43DD4FD13
:10166000E43ED4FEE43FD4FF758204C3EF13FFEEE3
:1016700013FEED13FDEC13FCEB13FBD582EDD8AF9D
:10168000785CD0E020E704762B8002762D0879067E
:10169000E7C4540F4430F608B90603762E08E75421
:1016A0000F4430F60819B902E7764508E5F020E75F
:1016B00004762B8004762DF4040875F00A844430F7
:1016C000F608E5F04430F608E4F690005C75F0406A
:1016D0002220F71030F6118883A88220F507F6A89B
:1016E0008375830022F280F7F022AA82AB83ACF0EC
:1016F0007D007E008A828B838CF0121596FFA3AA50
:1017000082AB83EF60070DBD00EA0E80E78D828E0D
:101710008322AA82AB83A2F73392D16002D2F7F57B
:1017200082ACF02200000000000000000000000079
:00000001FF
