:1000000002000375817B1201ECE582600302006F40
:10001000780079007A007B007C007D00EC4D601C4C
:1000200088828983E493A3A882A9838A828B83F040
:10003000A3AA82AB831CBCFFE31D80E07582007520
:1000400083007C007D00EC4D600AE4F0A31CBCFF43
:10005000F51D80F27582007583007C007D00EC4DFB
:10006000600AE4F0A31CBCFFF51D80F21201E1124E
:1000700004D880FE1B5B324A005043413020696E39
:1000800020382D6269742050574D206D6F646520B3
:10009000746573742070726F6772616D0A46696C63
:1000A000653A2025730A436F6D70696C65643A2068
:1000B00025732C2025730A0A00433A5C5573657238
:1000C000735C46616269616E204C6F7A616E6F5C31
:1000D0004465736B746F705C5542435C55424333A7
:1000E0007264596561725C5465726D20325C454C76
:1000F0004543203339315C436F6E74726F6C6C65AD
:10010000725C436F64655C5043412E6300466562D8
:1001100020313420323031390030383A35313A34F8
:10012000350050696E20636F6E6669677572617421
:10013000696F6E20646F6E652E0A00504341206324
:100140006F6E66696775726174696F6E20646F6E39
:10015000652E0A0041444320636F6E6669677572BD
:100160006174696F6E20646F6E652E0A000A004527
:100170006E74657220646972656374696F6E206F56
:100180006620726F746174696F6E3A0A00256300AD
:100190004D6F76696E6720666F72776172642E0AA2
:1001A000004D6F76696E67206261636B7761726480
:1001B000732E0A00564050312E343D25372E3266BC
:1001C000562C20564050312E353D25372E3266565E
:1001D0002C20564050312E363D25372E3266560D96
:1001E00000E4F523F524E4F525F5262275A700752E
:1001F00097DE7597AD75FF8075EF0675A71075C111
:100200002075A70075A90075A900E5A930E7FB7561
:10021000A90375A903E5A930E7FB43A41075E10123
:1002200075E20275E340759810758DE6858D8B53E8
:10023000890F438920D28ED29975820022AA8243E7
:100240008E407592B87593FF8592948593957591BC
:10025000047B00C3EB9A500BE59130E7FB53917F91
:100260000B80F075910022AA82AB837C007D00C3D5
:10027000EC9AED9B502B7E00BE0400501D7582FA57
:10028000C002C003C004C005C00612023DD006D0A3
:1002900005D004D003D0020E80DE0CBC00D10D804E
:1002A000CE2285822985832A85F02BE4F52CF52D35
:1002B000E52724FFFFE52834FFF879007A00C3E939
:1002C0009FEA648088F063F08095F05059C002C0C6
:1002D00007C000C00112098EAB82D001D000D00748
:1002E000D002BB0A028003BB0D1DE52C2529FCE5CD
:1002F0002D352AFDAE2B8C828D838EF0E41209A160
:10030000852C82852D8322E92529FCEA352AFDAE3C
:100310002B8C828D838EF0EB1209A109B900010AA2
:10032000892C8A2D8098E52C2529FAE52D352AFB84
:10033000AC2B8A828B838CF0E41209A185278285FD
:1003400028832275A70075B28075BCF875B91E7533
:10035000E80075DF3F75B300D2EF228582BBD2EC97
:1003600020ECFDD2EC20ECFD85BD8285BE832212FF
:10037000035B120850AA82AB83ACF0FDC002C0033D
:10038000C004C005909FBE75F052744012085CAA6C
:1003900082AB83ACF0FDE58124FCF581E4C0E07420
:1003A000FCC0E0747FC0E07446C0E08A828B838C1E
:1003B000F0ED1209BAAA82AB83ACF0FDE58124FC12
:1003C000F5818A828B838CF0ED2275A700759600EB
:1003D00075D90075F700759C00759E0075D840753D
:1003E000DA4275FC4075DB4275EA8022AA82BA4681
:1003F00056E4B52306E4B5240280247401B523062F
:10040000E4B5240280237402B52306E4B5240280F7
:10041000227403B52306E4B52402802102049AD293
:10042000A1D2A2C2A3C2A48071C2A1D2A2D2A3C2ED
:10043000A48067C2A1C2A2D2A3D2A4805DD2A1C26D
:10044000A2C2A3D2A48053E4B52306E4B52402805B
:10045000237401B52306E4B5240280227402B52377
:1004600006E4B5240280217403B52306E4B5240212
:1004700080208026D2A1C2A2C2A3D2A4801CC2A185
:10048000C2A2D2A3D2A48012C2A1D2A2D2A3C2A4D9
:100490008008D2A1D2A2C2A3C2A40523E4B523023C
:1004A00005240525E4B525020526C374039523E438
:1004B00064808524F063F08095F05005E4F523F521
:1004C000242243D4CF75A72053F28F75A70043D5BC
:1004D0007F43A61F43A58022E4F54BF54C7474C0FE
:1004E000E07400C0E07480C0E012096D15811581D0
:1004F00015817419C0E07401C0E07480C0E0740D0F
:10050000C0E07401C0E07480C0E074B9C0E0740061
:10051000C0E07480C0E07479C0E07400C0E0748012
:10052000C0E012096DE58124F4F5811204C2742241
:10053000C0E07401C0E07480C0E012096D1581153F
:100540008115811203CA743BC0E07401C0E074805D
:10055000C0E012096D158115811581120343745491
:10056000C0E07401C0E07480C0E012096D1581150F
:10057000811581746DC0E07401C0E07480C0E01228
:10058000096D158115811581746FC0E07401C0E09B
:100590007480C0E012096D158115811581752704DD
:1005A000E4F52890004675F0401202A2744AC0E0BB
:1005B0007400C0E07440C0E0748DC0E07401C0E01D
:1005C0007480C0E07446C0E07400C0E07440C0E0D5
:1005D000120822E58124F7F5817446B54A17749014
:1005E000C0E07401C0E07480C0E012096D1581158F
:1005F000811581801574A1C0E07401C0E07480C0D1
:10060000E012096D158115811581854A821203EC6E
:10061000C3E54B94F4E54C6480948140030206F7F3
:10062000853A4D853B4E853C4F853D5075820A127B
:10063000036FAA82AB83ACF0FDC002C003C004C04C
:1006400005854D82854E83854FF0E5501208FFAA3F
:1006500082AB83ACF0FDE58124FCF5818A3A8B3BCB
:100660008C3C8D3D853E4D853F4E85404F854150AC
:1006700075820B12036FAE82AF83AAF0FBC006C077
:1006800007C002C003854D82854E83854FF0E5503B
:100690001208FFAA82AB83ACF0FDE58124FCF58152
:1006A0008A3E8B3F8C408D4185424D85434E85442B
:1006B0004F85455075820C12036FAE82AF83AAF04E
:1006C000FBC006C007C002C003854D82854E8385EE
:1006D0004FF0E5501208FFAA82AB83ACF0FDE58134
:1006E00024FCF5818A428B438C448D45054BE4B54F
:1006F0004B02054C02060AE4C0E0C0E074FAC0E018
:100700007443C0E0853A82853B83853CF0E53D1229
:1007100009BA85824D85834E85F04FF550E58124D9
:10072000FCF581854D2E854E2F854F30855031E467
:10073000C0E0C0E074FAC0E07443C0E0853E82854A
:100740003F838540F0E5411209BA85825185835285
:1007500085F053F554E58124FCF5818551328552AD
:1007600033855334855435E4C0E0C0E074FAC0E00A
:100770007443C0E08542828543838544F0E5451299
:1007800009BAAC82AD83AAF0FBE58124FCF5818C2B
:10079000368D378A388B39C004C005C002C003C00B
:1007A00051C052C053C054C04DC04EC04FC0507411
:1007B000B4C0E07401C0E07480C0E012096DE5814E
:1007C00024F1F581E4F54BF54CF53AF53BF53CF5B4
:1007D0003D753E00753F0075400075410075420053
:1007E00075430075440075450002060AAA08AB0966
:1007F000AC0A8A828B838CF0120AD9FA0508E4B518
:10080000080205098A822285820885830985F00A03
:10081000850B65850C66850D67850E689007EC0273
:100820000D05C00F85810FE50F24F8F568E50F244D
:10083000FBF8860808860908860AE50F24F8F8867A
:10084000650886660886679007EC120D05D00F22B2
:10085000E4AC83AB82FAF9748E0211201211ACBCA5
:10086000000302114BEF60FA30D502B2D1E583B438
:10087000FF03021161E582B4FF0302116125834089
:10088000072482400B02114B248314500302116190
:10089000F582EA8DF0A4A8F0EA8EF0A428F8E435F9
:1008A000F0F9EB8DF0A428E935F0F9E433CA8FF0C4
:1008B000A429F9EA35F0FAEBF88EF0A429F9EA3523
:1008C000F0FAE433FBEC8DF0A429F9EA35F0FAE410
:1008D0003BFBE88FF0A42AFAEB35F0FBE433CCFDC8
:1008E0008EF0A42AFAEB35F0FBE43CFCED8FF0A48B
:1008F0002BFBEC35F0FC20E70312117902112A12D0
:1009000011AC7900E583B58202800D50031211DA33
:10091000E583C395821211F4E5D0C465D020E117B8
:10092000EA2DFAEB3EFBEC3FFC500974011211F486
:10093000EC4480FC02112AC3EA9DFAEB9EFBEC9F7B
:10094000FC500FC3E499F9E49AFAE49BFBE49CFCA5
:10095000B2D112117902112A021BC38582638583E9
:100960006485F065851066900958021616C00F85DB
:10097000810FE50F24FBF566E50F24FBF88663087D
:100980008664088665900958121616D00F221098B2
:100990000280FBAA998A82C002121BC3D0028A82FB
:1009A0002220F71030F6118883A88220F507F6A8D8
:1009B0008375830022F280F7F0221211AC30D50249
:1009C000B2D1BF0009BC000302116E021161BC006C
:1009D0000302114BE583B4FF0BE582B4FF03021160
:1009E0006E02114BE582B4FF03021161C39583507F
:1009F00007247F400B02114B248014500302116125
:100A0000C0E0E4CCCBCAF98D178E188F19EF54F0E3
:100A1000C4F51A758306851AF0EB84F582E9C4F9EA
:100A2000EAC4FAEBC4FBEC540FC47803D6FC18EB11
:100A3000D6FB18EAD6FA8582F0EDA4A8F0FD8582EF
:100A4000F0EEA428FEE435F0F88582F0EFA428FF4C
:100A5000E435F0F8E99DF9EA9EFAEB9FFBEC98FC8F
:100A6000AD17AE18AF1930E7101582E92DF9EA3E3F
:100A7000FAEB3FFBE43CFC80EDC082D58398C3E9F0
:100A800033F9EA33FAEB33FBEC33FCC3E99DEA9E1E
:100A9000EB9FEC9400B3E413F9D002D0E0C44AFA1F
:100AA000D003D0E0C44BFBD004D0E0F5F0540FC429
:100AB0004CFCD082158230F40FD3EC13FCEB13FB0B
:100AC000EA13FAE913F90582E930E70A74012AFA10
:100AD000E43BFBE43CFC02114220F71430F614889E
:100AE00083A88220F507E6A88375830022E280F7B9
:100AF000E49322E022855582855683121E6A858200
:100B000064E564600A055EE4B55E06055F8002D2B6
:100B100003856482227A007B00300305786C7600BE
:100B200022C002C003120AF5AC82D003D002BC007E
:100B300002802DBC08028014BC09028023BC0A027A
:100B4000801EBC0D028019BC20218014EA4B60D1AC
:100B50001ABAFF011B155E74FFB55E02155F80C1F6
:100B6000EA4B60BDEA246CF8760022EC7009EA24B6
:100B70006CF87600D20322ECB56307EA246CF876B1
:100B80000022C3EA940FEB940050968A058B060A64
:100B9000BA00010BED246CF8A604020B21AA827B9B
:100BA0007FC3EA648094B0401174B98AF063F08026
:100BB00095F04006EA24D0FB8030C3EA648094C1FB
:100BC000401174C68AF063F08095F0400674C92A1B
:100BD000FB8017C3EA648094E1400F74E68AF063F7
:100BE000F08095F0400474A92AFBC3EB9560500394
:100BF0008B822275827F22AA82755A00755B0075EE
:100C00005C00755D008A00E6FA60148A82C00012FA
:100C10000B9DAB82D000C3EB956040030880E88653
:100C2000038B82C000120B9DAA82D000C3E5609A9C
:100C30004050856017751800751900751A00855A9F
:100C400082855B83855CF0E55DC002C000121BD825
:100C5000AB82AC83ADF0FED000D0028B5A8C5B8DA2
:100C60005C8E5DE4FBFCFDEA255AFAEB355BFBECA0
:100C7000355CFCED355DFD8A5A8B5B8C5C8D5D08C7
:100C8000809D855A82855B83855CF0E55D22AA8222
:100C9000755A00755B00755C00755D008A00E6FBA7
:100CA00060228B82C003C000120B9DAC82D000D0AA
:100CB00003C3EC9560400DBB2D028008BB2B028066
:100CC000030880DA88028603BB2D03D38001C39218
:100CD00006BB2D028003BB2B010A8A82120BF73060
:100CE0000613C3E4955AFAE4955BFBE4955CFCE4D7
:100CF000955DFD8008AA5AAB5BAC5CAD5D8A828BCA
:100D0000838CF0ED22858255858356E4F55EF55F90
:100D1000F562C203AA65AB66AC678A828B838CF0EE
:100D2000120AD9FD74012AF565E43BF5668C67ED7E
:100D3000FA700302110EBA250280030210A7D20234
:100D4000C200756000756100C204C205AB65AC6687
:100D5000AD678B828C838DF0120AD9FAA3AB82AC7B
:100D6000838B658C668D678B828C838DF0120AD99C
:100D7000F5638A06BE300040168A06EE24C6400F90
:100D8000E56175F00AA4FEEA24D02EF56180C38ADD
:100D900006BE6100400A8A06EE248540035302DF46
:100DA000BA250280ADBA2A028057BA42028048BAF8
:100DB00043028052BA4403020ECABA4503020EE04F
:100DC000BA4603020EE0BA4703020EE0BA49030234
:100DD0000ECABA4C028025BA4E03020F35BA4F0331
:100DE000020ED0BA53028020BA5503020EC8BA5878
:100DF00003020ED8020F5DD200020D52D201020D85
:100E000052D204020D52D205200417E56824FDF8E1
:100E10008868860308860408860518188B578C583E
:100E20008D59E561700B3005047B0180027BFF8BDF
:100E300061756000C3E56095615005120AF5AA82EC
:100E4000300307E5607003020F5DEA601ABA200202
:100E5000800DBA09028008BA0D028003BA0A033075
:100E60000505E561B5601FE56060C92004120562F3
:100E7000AB57AC58AD598B828C838DF0E41209A12D
:100E8000756000020F5DBA081CE56060A7200411C0
:100E9000AB57AC58AD591BBBFF011C8B578C588D01
:100EA000591560808F20041BAB57AC58AD598B820D
:100EB0008C838DF0EA1209A10BBB00010C8B578CBF
:100EC000588D590560020E34C20275600A020F5D2A
:100ED000C202756008020F5DC202756010020F5DEC
:100EE000120B15786CE66075200472E56824FDF835
:100EF0008868866908866A08866B18188569578528
:100F00006A58856B5990006C75F040121C46AE8291
:100F1000AF83ABF0FC856982856A83856BF0EE1246
:100F200009A1A3EF1209A1A3EB1209A1A3EC1209D5
:100F3000A105628028E56824FDF888688603088694
:100F40000408860518188B578C588D598B828C8312
:100F50008DF0E55E1209A1A3E55F1209A1E56070BD
:100F6000030210A7120B15786CE670030210A7306D
:100F700004030210A7E56824FDF888688603088644
:100F80000408860518188B578C588D590562200265
:100F90000302102030013585576985586A85596BE1
:100FA00075826C120C8EAE82AF83ABF0FC856982C9
:100FB000856A83856BF0EE1209A1A3EF1209A1A344
:100FC000EB1209A1A3EC1209A10210A7300026859B
:100FD000576985586A85596B75826C120C8EAE8282
:100FE000AF83ABF0FC856982856A83856BF0EE1276
:100FF00009A10210A785576985586A85596B7582C2
:101000006C120C8EAE82AF83ABF0FC856982856A70
:1010100083856BF0EE1209A1A3EF1209A10210A7BC
:1010200030013485576985586A85596B75826C1211
:101030000BF7AE82AF83ABF0FC856982856A83854E
:101040006BF0EE1209A1A3EF1209A1A3EB1209A103
:10105000A3EC1209A1805030002585576985586A94
:1010600085596B75826C120BF7AE82AF83ABF0FCC7
:10107000856982856A83856BF0EE1209A1802885D7
:10108000576985586A85596B75826C120BF7AE8269
:10109000AF83ABF0FC856982856A83856BF0EE12C5
:1010A00009A1A3EF1209A1200303020D14AB65AC43
:1010B00066AD678B828C838DF0120AD9FEA3AB825A
:1010C000AC838B658C668D67EEFA7003020D14BAE3
:1010D00025E18B828C838DF0120AD9FABA6E0280D8
:1010E00003BA4ECFE56824FDF888688602088606B4
:1010F00008860718188A578E588F598A828E838FD0
:10110000F0E55E1209A1A3E55F1209A180A5AA621C
:101110007B008A828B8322FCABF0AA83A982749E17
:10112000C2D1F58212117902112AB98003EA13B3F0
:101130004010EA2401FAE43BFBE43CFC50047C80D0
:101140000582BC000EBB000BBA0008E4F5F0F58385
:10115000F58222A2D1E582138CF092F78B838A82EA
:1011600022E4F583F58275F080F4A2D11322E4F530
:1011700083F58275F0C0747F227804EC7011E582EB
:1011800024F8500AF582E4C9CACBFCD8EF22EC78E7
:1011900020058220E713D5820122C3E933F9EA331F
:1011A000FAEB33FBEC33FCD8EA158222AA82AB833C
:1011B000A2F73392D16002D2F7F582ACF0E5812438
:1011C000F9F8E6FD08E6FE0886F008E6A2F7339295
:1011D000D56002D2F7F583AFF022E582C583F582B0
:1011E000A2D133A2D592D11392D5ECCFFCEBCEFB9A
:1011F000EACDFA226040F82582500274FFF582E8B9
:1012000024F8501ECCCBCAF9E4CC24F85014CBCA35
:10121000F9E4CB24F8500BCAF9E4CA24F850037956
:10122000002224086010F8C3EC13FCEB13FBEA1354
:10123000FAE913F9D8F122AA827448C0E07412C006
:10124000E0C055C0568A8222055CE4B55C02055DAB
:1012500022AA8274302AFA24C6500A74072AFA3065
:1012600007034302208A82021237E582FAC4540F30
:10127000F582C002121251D002740F5AF582021286
:1012800051AA57AB58AC59AD5AAE5B756220EE2EE1
:10129000FEED235401FF4206EA2AFAEB33FBEC335E
:1012A000FCED33FDC3EE955E4008EEC3955EFE4354
:1012B0000201D562D98A578B588C598D5A8E5B2280
:1012C0007878E624D075F00AA4FA7879E624D02A52
:1012D000FA78778603BB2D04C3E49AFA755E01C3DE
:1012E000E464808AF063F08095F050297562038A87
:1012F0000374F62562401C055EE56214246CF8E573
:1013000062246CF98704A604772E1BEBFA600405AF
:101310006280DE8B02EA30E70D786D8603786EA678
:1013200003786D762E0AE560600AE56004FB255EB1
:10133000F55E8005301202055E786C8603E4BB2DF5
:101340000104FB7006200D03300E02055E300B0316
:10135000021407300C57EB600C75822DC00212127C
:1013600037D002801C300D0C75822BC00212123750
:10137000D002800D300E0A758220C002121237D0C2
:1013800002786D8604BC2E0C758230C002121237B2
:10139000D002155FAC5F155FC3E55E9C400302148D
:1013A0004B758230C002121237D00280E7AC5F1555
:1013B0005FC3E55E9C500C758220C002121237D0CC
:1013C0000280EA786C8604BC2D0C75822DC0021256
:1013D0001237D002801C300D0C75822BC002121205
:1013E00037D002800D300E0A758220C002121237EB
:1013F000D002786D8604BC2E52758230C002121263
:1014000037D002155F8044EB600E75822DC002124A
:101410001237D002155F8020300D0E75822BC0026E
:10142000121237D002155F800F300E0C758220C06B
:1014300002121237D002155F786D8603BB2E0C7531
:101440008230C002121237D002155F756201C214D9
:10145000E562246CF88603BB4503021508BB2E34F5
:101460008A03C3E464808BF063F08095F0500F75BD
:101470008230C003121237D0031B8B0280E48B0230
:10148000D214E560703820120302150875822E12FE
:10149000123780743014278A03EB30E71FC3E464EB
:1014A000808560F063F08095F0500C758230C00349
:1014B000121237D00315600B8B0280DD8B023014C3
:1014C0000EC3E464808560F063F08095F05021E500
:1014D00062246CF886038B82C002121237D002306D
:1014E000140EE562246CF88603BB2E0280021560A0
:1014F000155FC3E464808560F063F08095F040037D
:101500002014050562021450C3E464808560F06312
:10151000F08095F0500A758230121237156080E81D
:10152000300B0FAA5F155FEA600875822012123730
:1015300080F122E560700330120D74072560FAE532
:101540005FC39AF55F8006E55F24FAF55F75620078
:10155000786C8602BA2B0F200D0C786C7620200E4A
:1015600005756201055F200B19AA5FC3E464808AD8
:10157000F063F08095F0500A758220121237155FE3
:1015800080E7C214E562246CF88602BA0002806922
:10159000BA451F3007027665C3E464808560F06356
:1015A000F08095F0500A758230121237156080E88D
:1015B000D214C3E5629402E433FA7014EA700EC3E5
:1015C000E464808560F063F08095F0400330141689
:1015D000E562246CF886028A82121237E56224FDE5
:1015E00050121560800E7402B562093012067582C1
:1015F0002E1212370562021584300B19AA5FC3E45C
:1016000064808AF063F08095F0500A75822012128F
:1016100037155F80E722858255858356E4F55CF5B2
:101620005DAA63AB64AC658A828B838CF0120AD9A5
:10163000FD74012AF563E43BF5648C65EDFA7003F3
:10164000021BBCBA25028003021BB4C20BC20CC22F
:101650000DC20EC20FC210C211C212C208C209C20C
:101660000A755E00755F007560FFAB63AC64AD65C5
:101670008B828C838DF0120AD9FAA3AB82AC838B58
:10168000638C648D65BA25078A8212123780928A2C
:1016900006BE3000402E8A06EE24C6402774FFB5F1
:1016A0006013E55F75F00AA4FEEA24D02EF55F70A2
:1016B000BFD20C80BBE56075F00AA4FEEA24D02EF0
:1016C000F56080ACBA2E0A74FFB560A47560008026
:1016D0009F8A06BE6100400E8A06EE2485400753AD
:1016E00002DFD2078002C207BA20028075BA230344
:1016F000021771BA2A03021776BA2B02805FBA2D3D
:10170000028055BA4202805FBA43030217BBBA4453
:10171000030218F6BA4503021910BA460302190C5F
:10172000BA4703021914BA49030218F6BA4C0280E8
:101730003BBA4E03021918BA4F030218FDBA500300
:1017400002188FBA53030217DFBA5503021902BAFF
:101750005803021907021942D20B021670D20D0269
:101760001670D20E021670D210021670D211021626
:1017700070D21202167074FFB5602030100BE5664F
:1017800014F88866865F021670E56624FEF888669F
:101790008606088607188E5F02167030100BE56605
:1017A00014F888668660021670E56624FEF888667E
:1017B0008606088607188E6002167030100AE566E5
:1017C00014F888668602800FE56624FEF88866862F
:1017D00003088604188B028A82121237021947E521
:1017E0006624FDF8886686030886040886051818AE
:1017F0008B578C588D598B828C838DF0121F8BAB3D
:1018000082AC838B6174FFB56003856160200B1D22
:10181000C3E561955F5016E55FC39561F55FAB5F0A
:10182000155FEB600875822012123780F1855782B0
:101830008558838559F0120AD9FBFA6029AB6015E7
:1018400060C3E464808BF063F08095F050188A8266
:10185000121237AB57AC58AD590BBB00010C8B576C
:101860008C588D5980C7200B03021947C3E5619539
:101870005F4003021947E55FC39561F55FAB5F15F4
:101880005FEB700302194775822012123780EEE574
:101890006624FDF8886686030886040886051818FD
:1018A0008B578C588D59E559FB30E7047A438013E8
:1018B000EB546060047A50800AEB30E6047A498089
:1018C000027A588A82C00212123775823A1212378F
:1018D000758230121237758278121237D002BA49E7
:1018E00002800BBA5002800685588212126A855710
:1018F0008212126A8051D20F755E0A804A755E08A4
:101900008045755E0A8040755E10803BD208803746
:10191000D2098033D20A802FE56624FDF8886686D6
:101920000308860408860518188B578C588D598B28
:10193000828C838DF0E55C1209A1A3E55D1209A1FB
:1019400080058A82121237200806200903300A70A7
:10195000E56624FCF8886686030886040886050880
:1019600086061818188B578C588D598E5AE557E5EE
:1019700058E559E55A8B828C838DF0EE121E6C74FB
:10198000FFB56003756006300A27747F555AFB8BDC
:101990005BE55BEB2BFB8B5BE55930E706740145A0
:1019A0005BF55BE55B246840067499255B4002D2D9
:1019B000093009061215330216211212C00216212F
:1019C000E55E70030216217B7130102BE56614F87A
:1019D0008866E6FC3395E0FDFEFF8C578D588E59E6
:1019E0008F5A200F5EAC577D007E007F008C578D94
:1019F000588E598F5A804C30111FE56624FCF888A8
:101A00006686040886050886060886071818188C56
:101A1000578D588E598F5A802AE56624FEF88866BD
:101A2000860408860518ED3395E0FEFF8C578D5827
:101A30008E598F5A200F0CAC57AD587E007F008E08
:101A4000598F5A301243E55745584559455A603920
:101A50007408B55E0C758230C003121237D0038053
:101A6000287410B55E23758230C003121237D0037C
:101A700030070C758278C003121237D003800A75C4
:101A80008258C003121237D003300F25AC57AD581F
:101A9000AE59E55AFF30E717C3E49CFCE49DFDE432
:101AA0009EFEE49FFF8C578D588E598F5A8002C23C
:101AB0000F756100D2138B00755B00C0001212819C
:101AC000D00020130DE55BC4FCE6FD4CF61888033E
:101AD0008002A65B0561B213E55745584559455A42
:101AE00070D68803E55F7003755F01200C1A200B28
:101AF00017E56104FCC3955F500E758220C0031288
:101B00001237D003155F80E9300F0E75822DC003A8
:101B1000121237D003155F8024E5616020300D0E6E
:101B200075822BC003121237D003155F800F300E61
:101B30000C758220C003121237D003155F200B1ED4
:101B4000AC5F155FC3E5619C5027300C047C30808E
:101B5000027C208C82C003121237D00380E2C3E5DE
:101B600061955F5009E55FC39561F55F8003755F1F
:101B7000008B00AB611561EB6022B21320130A08E1
:101B8000E6C4540FFB8B5B80078603740F5BF55B29
:101B9000855B82C000121251D00080D7200B030257
:101BA0001621AB5F155FEB700302162175822012C0
:101BB000123780EE8A82121237021621855C8285E6
:101BC0005D8322AA82BA0A0810990280FB75990DDA
:101BD00010990280FB8A9922AAF0FBE5828517F012
:101BE000A4FCADF0E5838517F0A42DFDE435F0FEEF
:101BF000E5828518F0A42DFDE5F03EFEE433FFEA12
:101C00008517F0A42EFEE5F03FFFE5838518F0A4CC
:101C10002EFEE5F03FFFE5828519F0A42EFEE5F0EB
:101C20003FFFEB8517F0A42FFFEA8518F0A42FFFE4
:101C3000E5838519F0A42FFFE582851AF0A42F8E85
:101C4000F08D838C8222AA82AB83ACF0751500756F
:101C50001600C2178A058B068C078D828E838FF043
:101C6000120AD9F8B820028003B809070DBD00EAAE
:101C70000E80E78D028E038F04B82D0DD2157401EE
:101C80002DFAE43EFB8F04800EC215B82B097401B7
:101C90002DFAE43EFB8F04751100751200751300D8
:101CA0007514008A058B068C078D828E838FF01247
:101CB0000AD9F8F9B930004005E824C650128D82DF
:101CC0008E838FF0120AD9F8B82E028003021D7B92
:101CD0008D828E838FF0120AD9F9B92E05D21702A0
:101CE0001D73C005C006C007C005C006C007C001FF
:101CF000C011C012C013C01490000075F0207441D0
:101D000012085C85821185831285F013F514E58134
:101D100024FCF581D001D007D006D005E93395E049
:101D2000FDE924D0F582ED34FFF583121FB3AD82B7
:101D3000AE83AFF0F9C005C006C007C005C006C03D
:101D400007C0018511828512838513F0E5141208FE
:101D5000FF85821185831285F013F514E58124FC3B
:101D6000F581D007D006D005D007D006D0053017B2
:101D70000215150DBD00010E021CA95300DF8D8256
:101D80008E838FF0E81209A1B8456274012DFAE440
:101D90003EFB8F048A828B838CF0120AD9FDBD2D05
:101DA00009D2160ABA000D0B800AC216BD2B050A0D
:101DB000BA00010B7516008A828B838CF0120AD947
:101DC000FDFEBE3000401D8D06EE24C64016E51611
:101DD00075F00AA4F516ED24D02516F5160ABA00FA
:101DE000D60B80D3301606C3E49516F516E51525F7
:101DF00016F516E5166055E51630E728C011C01235
:101E0000C013C01490CCCD75F0CC743D12085C8525
:101E1000821185831285F013F514E58124FCF58188
:101E2000051680CFC011C012C013C01490000075F9
:101E3000F020744112085C85821185831285F013AD
:101E4000F514E58124FCF581151680A730150F8562
:101E50001111851212851313E514B2E7F5148511DB
:101E6000828512838513F0E51422E473C0E0F845FF
:101E700082458345F07009F5F0FBFCFDFE021F3A38
:101E8000E823A2F792E0F8A982AA83D2F7ABF07C0C
:101E9000007E07C3749798404074FF2EFE740A8931
:101EA000F0A4F985F082740A8AF0A4FA85F08374AC
:101EB0000A8BF0A4FB740529F9EA3582FAEB358325
:101EC000FB740035F0FCC3EC13FCEB13FBEA13FAD4
:101ED000E913F908EC70EF80BAE8C3947FF88B83BC
:101EE0008EF0E4FBFCFDFEFF08C3E933F9EA33FAA8
:101EF000E58333F583EB3BD4FBEC3CD4FCED3DD4E4
:101F0000FDEE3ED4FEEF3FD4FF602D05F074052BAF
:101F1000D4FBE43CD4FCE43DD4FDE43ED4FEE43FF9
:101F2000D4FF758204C3EF13FFEE13FEED13FDEC37
:101F300013FCEB13FBD582EDD8AF786CD0E020E733
:101F400004762B8002762D087906E7C4540F4430BE
:101F5000F608B90603762E08E7540F4430F6081940
:101F6000B902E7764508E5F020E704762B80047691
:101F70002DF4040875F00A844430F608E5F0443086
:101F8000F608E4F690006C75F04022AA82AB83ACB0
:101F9000F07D007E008A828B838CF0120AD9FFA329
:101FA000AA82AB83EF60070DBD00EA0E80E78D8249
:101FB0008E8322AC83AB827A007900748E021FC9B3
:101FC000FCABF0AA83A982749EF582C2D1EC30E703
:101FD00016D2D1E9F42401F9EAF43400FAEBF4342E
:101FE00000FBECF43400FC12117902112A0000000D
:00000001FF
