:1000000002002E752301E4F524F525E4F526F527F5
:1000100022000000000000000000000000000000BE
:1000200000000000000000000000000202A2758134
:100030007C12020FE582600302009A780079007A50
:10004000007B007C007D00EC4D601C88828983E48D
:1000500093A3A882A9838A828B83F0A3AA82AB830D
:100060001CBCFFE31D80E07582007583007C007D71
:1000700000EC4D600AE4F0A31CBCFFF51D80F27596
:1000800082007583007C007D00EC4D600AE4F0A3E3
:100090001CBCFFF51D80F212000312051C80FE1B24
:1000A0005B324A005043413020696E20382D62692E
:1000B000742050574D206D6F6465207465737420F3
:1000C00070726F6772616D0A46696C653A202573BC
:1000D0000A436F6D70696C65643A2025732C202586
:1000E000730A0A00433A5C55736572735C46616239
:1000F00069616E204C6F7A616E6F5C4465736B74DE
:100100006F705C5542435C5542433372645965617C
:10011000725C5465726D20325C454C454320333926
:10012000315C436F6E74726F6C6C65725C436F64AC
:10013000655C5043412E63004665622031342032B5
:100140003031390030393A34383A34340050696E3D
:1001500020636F6E66696775726174696F6E206483
:100160006F6E652E0A0050434120636F6E666967AB
:1001700075726174696F6E20646F6E652E0A00413E
:10018000444320636F6E66696775726174696F6E50
:1001900020646F6E652E0A000A00456E7465722039
:1001A000646972656374696F6E206F6620726F7424
:1001B0006174696F6E3A0A002563004D6F76696E4F
:1001C0006720666F72776172642E0A004D6F7669E0
:1001D0006E67206261636B77617264732E0A0056EA
:1001E0002850312E34293D25342E3266562C205687
:1001F0002850312E35293D25342E3266562C205676
:100200002850312E36293D25342E3266560D007584
:10021000A7007597DE7597AD75FF8075EF0675A71A
:100220001075C12075A70075A90075A900E5A93052
:10023000E7FB75A90375A903E5A930E7FB43A41003
:1002400075E10175E20275E340759810758DE685DC
:100250008D8B53890F438920D28ED29975C8004364
:100260008E1075CAC075CBE675CEFF75CFFFD2ADC7
:10027000D2CAD2AF75820022AA82438E407592B84C
:100280007593FF8592948593957591047B00C3EBDC
:100290009A500BE59130E7FB53917F0B80F07591FD
:1002A000002275A700C2CF75230132AA82AB837CDE
:1002B000007D00C3EC9AED9B502B7E00BE040050E5
:1002C0001D7582FAC002C003C004C005C006120238
:1002D00078D006D005D004D003D0020E80DE0CBC4E
:1002E00000D10D80CE2285822A85832B85F02CE4D7
:1002F000F52DF52EE52824FFFFE52934FFF87900D8
:100300007A00C3E99FEA648088F063F08095F0503A
:1003100059C002C007C000C0011209E0AB82D00181
:10032000D000D007D002BB0A028003BB0D1DE52D13
:10033000252AFCE52E352BFDAE2C8C828D838EF08C
:10034000E41209F3852D82852E8322E9252AFCEA11
:10035000352BFDAE2C8C828D838EF0EB1209F309C8
:10036000B900010A892D8A2E8098E52D252AFAE503
:100370002E352BFBAC2C8A828B838CF0E41209F394
:100380008528828529832275A70075B28075BCF8FF
:1003900075B91E75E80075DF3F75B300D2EF228591
:1003A00082BBD2EC20ECFDD2EC20ECFD85BD828539
:1003B000BE832212039F1208A2AA82AB83ACF0FD77
:1003C000C002C003C004C005909FBE75F0527440C7
:1003D0001208AEAA82AB83ACF0FDE58124FCF58166
:1003E000E4C0E074FCC0E0747FC0E07446C0E08A02
:1003F000828B838CF0ED120A0CAA82AB83ACF0FDE9
:10040000E58124FCF5818A828B838CF0ED2275A72F
:100410000075960075D90075F700759C00759E00F3
:1004200075D84075DA4275FC4075DB4275EA80226A
:10043000AA82BA4656E4B52406E4B525028024749F
:1004400001B52406E4B5250280237402B52406E430
:10045000B5250280227403B52406E4B52502802167
:100460000204DED2A1D2A2C2A3C2A48071C2A1D2D0
:10047000A2D2A3C2A48067C2A1C2A2D2A3D2A480E6
:100480005DD2A1C2A2C2A3D2A48053E4B52406E4E3
:10049000B5250280237401B52406E4B52502802227
:1004A0007402B52406E4B5250280217403B5240640
:1004B000E4B5250280208026D2A1C2A2C2A3D2A484
:1004C000801CC2A1C2A2D2A3D2A48012C2A1D2A275
:1004D000D2A3C2A48008D2A1D2A2C2A3C2A40524DE
:1004E000E4B5240205250526E4B526020527C374D4
:1004F000039524E464808525F063F08095F0500531
:10050000E4F524F5252243D4CF75A72053F28F7547
:10051000A70043D57F43A67F43A58022E4F54CF591
:100520004D749FC0E07400C0E07480C0E01209BF49
:100530001581158115817444C0E07401C0E0748098
:10054000C0E07438C0E07401C0E07480C0E074E4BE
:10055000C0E07400C0E07480C0E074A4C0E0740027
:10056000C0E07480C0E01209BFE58124F4F5811277
:100570000506744DC0E07401C0E07480C0E012094B
:10058000BF15811581158112040E7466C0E07401D7
:10059000C0E07480C0E01209BF1581158115811279
:1005A0000387747FC0E07401C0E07480C0E012096A
:1005B000BF1581158115817498C0E07401C0E07485
:1005C00080C0E01209BF158115811581749AC0E0C1
:1005D0007401C0E07480C0E01209BF158115811557
:1005E00081752804E4F52990004775F0401202E671
:1005F000744BC0E07400C0E07440C0E074B8C0E068
:100600007401C0E07480C0E07447C0E07400C0E0D2
:100610007440C0E0120874E58124F7F5817446B592
:100620004B1774BBC0E07401C0E07480C0E01209D5
:10063000BF158115811581801574CCC0E07401C08F
:10064000E07480C0E01209BF158115811581740125
:10065000B52309854B82120430752300E52324FF5E
:1006600092A5C3E54C94F4E54D6480948140030267
:100670000749853B4E853C4F853D50853E517582EF
:100680000A1203B3AA82AB83ACF0FDC002C003C060
:1006900004C005854E82854F838550F0E5511209CF
:1006A00051AA82AB83ACF0FDE58124FCF5818A3B45
:1006B0008B3C8C3D8D3E853F4E85404F854150851E
:1006C000425175820B1203B3AE82AF83AAF0FBC016
:1006D00006C007C002C003854E82854F838550F057
:1006E000E551120951AA82AB83ACF0FDE58124FCEF
:1006F000F5818A3F8B408C418D4285434E85444F26
:1007000085455085465175820C1203B3AE82AF8386
:10071000AAF0FBC006C007C002C003854E82854F09
:10072000838550F0E551120951AA82AB83ACF0FDEC
:10073000E58124FCF5818A438B448C458D46054C2C
:10074000E4B54C02054D02064EE4C0E0C0E074FA88
:10075000C0E07443C0E0853B82853C83853DF0E585
:100760003E120A0C85824E85834F85F050F551E587
:100770008124FCF581854E2F854F30855031855180
:1007800032E4C0E0C0E074FAC0E07443C0E0853FEA
:10079000828540838541F0E542120A0C85825285AC
:1007A000835385F054F555E58124FCF5818552335A
:1007B000855334855435855536E4C0E0C0E074FA7D
:1007C000C0E07443C0E08543828544838545F0E5FD
:1007D00046120A0CAC82AD83AAF0FBE58124FCF53D
:1007E000818C378D388A398B3AC004C005C002C06D
:1007F00003C052C053C054C055C04EC04FC050C0BB
:100800005174DFC0E07401C0E07480C0E01209BF21
:10081000E58124F1F581E4F54CF54DF53BF53CF52A
:100820003DF53E753F00754000754100754200750D
:10083000430075440075450075460002064EAA083F
:10084000AB09AC0A8A828B838CF0120B2BFA050859
:10085000E4B5080205098A82228582088583098514
:10086000F00A850B66850C67850D68850E69900812
:100870003E020D57C00F85810FE50F24F8F569E59D
:100880000F24FBF8860808860908860AE50F24F875
:10089000F8866608866708866890083E120D57D06D
:1008A0000F22E4AC83AB82FAF9748E02117212113A
:1008B000FEBC000302119DEF60FA30D502B2D1E513
:1008C00083B4FF030211B3E582B4FF030211B32521
:1008D0008340072482400B02119D2483145003029D
:1008E00011B3F582EA8DF0A4A8F0EA8EF0A428F8FE
:1008F000E435F0F9EB8DF0A428E935F0F9E433CADA
:100900008FF0A429F9EA35F0FAEBF88EF0A429F972
:10091000EA35F0FAE433FBEC8DF0A429F9EA35F07E
:10092000FAE43BFBE88FF0A42AFAEB35F0FBE43362
:10093000CCFD8EF0A42AFAEB35F0FBE43CFCED8F05
:10094000F0A42BFBEC35F0FC20E7031211CB0211D5
:100950007C1211FE7900E583B58202800D500312EE
:10096000122CE583C39582121246E5D0C465D020CF
:10097000E117EA2DFAEB3EFBEC3FFC500974011243
:100980001246EC4480FC02117CC3EA9DFAEB9EFB0C
:10099000EC9FFC500FC3E499F9E49AFAE49BFBE462
:1009A0009CFCB2D11211CB02117C021C1585826411
:1009B00085836585F0668510679009AA021668C070
:1009C0000F85810FE50F24FBF567E50F24FBF88603
:1009D000640886650886669009AA121668D00F22F8
:1009E00010980280FBAA998A82C002121C15D002BC
:1009F0008A822220F71030F6118883A88220F5071A
:100A0000F6A88375830022F280F7F0221211FE30DF
:100A1000D502B2D1BF0009BC00030211C00211B35C
:100A2000BC000302119DE583B4FF0BE582B4FF0314
:100A30000211C002119DE582B4FF030211B3C395F8
:100A4000835007247F400B02119D24801450030221
:100A500011B3C0E0E4CCCBCAF98D178E188F19EF13
:100A600054F0C4F51A758306851AF0EB84F582E913
:100A7000C4F9EAC4FAEBC4FBEC540FC47803D6FC07
:100A800018EBD6FB18EAD6FA8582F0EDA4A8F0FDA3
:100A90008582F0EEA428FEE435F0F88582F0EFA41C
:100AA00028FFE435F0F8E99DF9EA9EFAEB9FFBECAC
:100AB00098FCAD17AE18AF1930E7101582E92DF983
:100AC000EA3EFAEB3FFBE43CFC80EDC082D5839824
:100AD000C3E933F9EA33FAEB33FBEC33FCC3E99DAA
:100AE000EA9EEB9FEC9400B3E413F9D002D0E0C48B
:100AF0004AFAD003D0E0C44BFBD004D0E0F5F05468
:100B00000FC44CFCD082158230F40FD3EC13FCEBF5
:100B100013FBEA13FAE913F90582E930E70A7401D5
:100B20002AFAE43BFBE43CFC02119420F71430F673
:100B3000148883A88220F507E6A88375830022E243
:100B400080F7E49322E022855682855783121EBCEB
:100B5000858265E565600A055FE4B55F060560802E
:100B600002D203856582227A007B00300305786D0E
:100B7000760022C002C003120B47AC82D003D00221
:100B8000BC0002802DBC08028014BC09028023BC7A
:100B90000A02801EBC0D028019BC20218014EA4B81
:100BA00060D11ABAFF011B155F74FFB55F021560B3
:100BB00080C1EA4B60BDEA246DF8760022EC700932
:100BC000EA246DF87600D20322ECB56407EA246DBE
:100BD000F8760022C3EA940FEB940050968A058BB6
:100BE000060ABA00010BED246DF8A604020B73AAE5
:100BF000827B7FC3EA648094B0401174B98AF06349
:100C0000F08095F04006EA24D0FB8030C3EA64808F
:100C100094C1401174C68AF063F08095F040067468
:100C2000C92AFB8017C3EA648094E1400F74E68A06
:100C3000F063F08095F0400474A92AFBC3EB956142
:100C400050038B822275827F22AA82755B00755CBD
:100C500000755D00755E008A00E6FA60148A82C045
:100C600000120BEFAB82D000C3EB9561400308800C
:100C7000E886038B82C000120BEFAA82D000C3E586
:100C8000619A4050856117751800751900751A0032
:100C9000855B82855C83855DF0E55EC002C00012E5
:100CA0001C2AAB82AC83ADF0FED000D0028B5B8CF3
:100CB0005C8D5D8E5EE4FBFCFDEA255BFAEB355C4A
:100CC000FBEC355DFCED355EFD8A5B8B5C8C5D8DF0
:100CD0005E08809D855B82855C83855DF0E55E2294
:100CE000AA82755B00755C00755D00755E008A0008
:100CF000E6FB60228B82C003C000120BEFAC82D0F7
:100D000000D003C3EC9561400DBB2D028008BB2BC6
:100D10000280030880DA88028603BB2D03D380019A
:100D2000C39206BB2D028003BB2B010A8A82120CE0
:100D300049300613C3E4955BFAE4955CFBE4955DEA
:100D4000FCE4955EFD8008AA5BAB5CAC5DAD5E8AA1
:100D5000828B838CF0ED22858256858357E4F55F84
:100D6000F560F563C203AA66AB67AC688A828B83C1
:100D70008CF0120B2BFD74012AF566E43BF5678CB1
:100D800068EDFA7003021160BA250280030210F9BF
:100D9000D202C200756100756200C204C205AB6672
:100DA000AC67AD688B828C838DF0120B2BFAA3ABF2
:100DB00082AC838B668C678D688B828C838DF012FE
:100DC0000B2BF5648A06BE300040168A06EE24C658
:100DD000400FE56275F00AA4FEEA24D02EF5628089
:100DE000C38A06BE6100400A8A06EE24854003538A
:100DF00002DFBA250280ADBA2A028057BA420280C9
:100E000048BA43028052BA4403020F1CBA45030297
:100E10000F32BA4603020F32BA4703020F32BA4901
:100E200003020F1CBA4C028025BA4E03020F87BA88
:100E30004F03020F22BA53028020BA5503020F1A41
:100E4000BA5803020F2A020FAFD200020DA4D2013A
:100E5000020DA4D204020DA4D205200417E56924D2
:100E6000FDF88869860308860408860518188B58DB
:100E70008C598D5AE562700B3005047B0180027B32
:100E8000FF8B62756100C3E56195625005120B47E7
:100E9000AA82300307E5617003020FAFEA601ABA55
:100EA0002002800DBA09028008BA0D028003BA0A36
:100EB00003300505E562B5611FE56160C9200412D4
:100EC0000563AB58AC59AD5A8B828C838DF0E4121C
:100ED00009F3756100020FAFBA081CE56160A72035
:100EE0000411AB58AC59AD5A1BBBFF011C8B588C7D
:100EF000598D5A1561808F20041BAB58AC59AD5ADF
:100F00008B828C838DF0EA1209F30BBB00010C8BF2
:100F1000588C598D5A0561020E86C20275610A020B
:100F20000FAFC202756108020FAFC20275611002F5
:100F30000FAF120B67786DE66075200472E56924C7
:100F4000FDF88869866A08866B08866C1818856AB9
:100F500058856B59856C5A90006D75F040121C983D
:100F6000AE82AF83ABF0FC856A82856B83856CF0C3
:100F7000EE1209F3A3EF1209F3A3EB1209F3A3ECAA
:100F80001209F305638028E56924FDF88869860362
:100F900008860408860518188B588C598D5A8B8240
:100FA0008C838DF0E55F1209F3A3E5601209F3E588
:100FB0006170030210F9120B67786DE6700302107E
:100FC000F93004030210F9E56924FDF88869860305
:100FD00008860408860518188B588C598D5A0563A5
:100FE00020020302107230013585586A85596B85DD
:100FF0005A6C75826D120CE0AE82AF83ABF0FC854B
:101000006A82856B83856CF0EE1209F3A3EF1209F7
:10101000F3A3EB1209F3A3EC1209F30210F9300069
:101020002685586A85596B855A6C75826D120CE05D
:10103000AE82AF83ABF0FC856A82856B83856CF0F2
:10104000EE1209F30210F985586A85596B855A6CBE
:1010500075826D120CE0AE82AF83ABF0FC856A82C4
:10106000856B83856CF0EE1209F3A3EF1209F3028E
:1010700010F930013485586A85596B855A6C758230
:101080006D120C49AE82AF83ABF0FC856A82856B32
:1010900083856CF0EE1209F3A3EF1209F3A3EB12B0
:1010A00009F3A3EC1209F3805030002585586A85B6
:1010B000596B855A6C75826D120C49AE82AF83AB49
:1010C000F0FC856A82856B83856CF0EE1209F380F3
:1010D0002885586A85596B855A6C75826D120C4942
:1010E000AE82AF83ABF0FC856A82856B83856CF042
:1010F000EE1209F3A3EF1209F3200303020D66AB0E
:1011000066AC67AD688B828C838DF0120B2BFEA3CF
:10111000AB82AC838B668C678D68EEFA7003020D30
:1011200066BA25E18B828C838DF0120B2BFABA6E96
:10113000028003BA4ECFE56924FDF888698602086B
:10114000860608860718188A588E598F5A8A828E02
:10115000838FF0E55F1209F3A3E5601209F380A520
:10116000AA637B008A828B8322FCABF0AA83A982CC
:10117000749EC2D1F5821211CB02117CB98003EAB0
:1011800013B34010EA2401FAE43BFBE43CFC5004B6
:101190007C800582BC000EBB000BBA0008E4F5F0B1
:1011A000F583F58222A2D1E582138CF092F78B832E
:1011B0008A8222E4F583F58275F080F4A2D11322AD
:1011C000E4F583F58275F0C0747F227804EC701129
:1011D000E58224F8500AF582E4C9CACBFCD8EF2294
:1011E000EC7820058220E713D5820122C3E933F988
:1011F000EA33FAEB33FBEC33FCD8EA158222AA82FD
:10120000AB83A2F73392D16002D2F7F582ACF0E55E
:101210008124F9F8E6FD08E6FE0886F008E6A2F764
:101220003392D56002D2F7F583AFF022E582C58311
:10123000F582A2D133A2D592D11392D5ECCFFCEB9B
:10124000CEFBEACDFA226040F82582500274FFF509
:1012500082E824F8501ECCCBCAF9E4CC24F8501410
:10126000CBCAF9E4CB24F8500BCAF9E4CA24F850ED
:101270000379002224086010F8C3EC13FCEB13FB85
:10128000EA13FAE913F9D8F122AA82749AC0E07439
:1012900012C0E0C056C0578A8222055DE4B55D02E7
:1012A000055E22AA8274302AFA24C6500A74072ADC
:1012B000FA3007034302208A82021289E582FAC4C7
:1012C000540FF582C0021212A3D002740F5AF58295
:1012D0000212A3AA58AB59AC5AAD5BAE5C75632041
:1012E000EE2EFEED235401FF4206EA2AFAEB33FB11
:1012F000EC33FCED33FDC3EE955F4008EEC3955F24
:10130000FE430201D563D98A588B598C5A8D5B8E66
:101310005C227879E624D075F00AA4FA787AE6247B
:10132000D02AFA78788603BB2D04C3E49AFA755F55
:1013300001C3E464808AF063F08095F050297563FE
:10134000038A0374F62563401C055FE56314246D6E
:10135000F8E563246DF98704A604772E1BEBFA6089
:1013600004056380DE8B02EA30E70D786E86037831
:101370006FA603786E762E0AE561600AE56104FBCC
:10138000255FF55F8005301202055F786D8603E406
:10139000BB2D0104FB7006200D03300E02055F30EB
:1013A0000B03021459300C57EB600C75822DC002F0
:1013B000121289D002801C300D0C75822BC00212D3
:1013C0001289D002800D300E0A758220C0021212DE
:1013D00089D002786E8604BC2E0C758230C0021251
:1013E0001289D0021560AC601560C3E55F9C4003B4
:1013F00002149D758230C002121289D00280E7ACBF
:10140000601560C3E55F9C500C758220C00212120B
:1014100089D00280EA786D8604BC2D0C75822DC0BF
:1014200002121289D002801C300D0C75822BC00272
:10143000121289D002800D300E0A758220C002126D
:101440001289D002786E8604BC2E52758230C0029A
:10145000121289D00215608044EB600E75822DC097
:1014600002121289D00215608020300D0E75822B79
:10147000C002121289D0021560800F300E0C7582E6
:1014800020C002121289D0021560786E8603BB2E2E
:101490000C758230C002121289D00215607563018A
:1014A000C214E563246DF88603BB450302155ABBDD
:1014B0002E348A03C3E464808BF063F08095F0508F
:1014C0000F758230C003121289D0031B8B0280E497
:1014D0008B02D214E561703820120302155A75820E
:1014E0002E12128980743014278A03EB30E71FC351
:1014F000E464808561F063F08095F0500C75823073
:10150000C003121289D00315610B8B0280DD8B02A0
:1015100030140EC3E464808561F063F08095F05070
:1015200021E563246DF886038B82C002121289D0F4
:101530000230140EE563246DF88603BB2E02800290
:1015400015611560C3E464808561F063F08095F0F7
:10155000400320140505630214A2C3E4648085617E
:10156000F063F08095F0500A75823012128915618F
:1015700080E8300B0FAA601560EA600875822012BF
:10158000128980F122E561700330120D7407256124
:10159000FAE560C39AF5608006E56024FAF56075A7
:1015A0006300786D8602BA2B0F200D0C786D7620C3
:1015B000200E057563010560200B19AA60C3E46461
:1015C000808AF063F08095F0500A758220121289AB
:1015D000156080E7C214E563246DF88602BA000244
:1015E0008069BA451F3007027665C3E4648085616F
:1015F000F063F08095F0500A7582301212891561FF
:1016000080E8D214C3E5639402E433FA7014EA70FC
:101610000EC3E464808561F063F08095F040033090
:101620001416E563246DF886028A82121289E56336
:1016300024FD50121561800E7402B5630930120644
:1016400075822E12128905630215D6300B19AA6015
:10165000C3E464808AF063F08095F0500A758220BC
:10166000121289156080E722858256858357E4F53A
:101670005DF55EAA64AB65AC668A828B838CF012E2
:101680000B2BFD74012AF564E43BF5658C66EDFADD
:101690007003021C0EBA25028003021C06C20BC294
:1016A0000CC20DC20EC20FC210C211C212C208C2B9
:1016B00009C20A755F007560007561FFAB64AC65B7
:1016C000AD668B828C838DF0120B2BFAA3AB82ACB0
:1016D000838B648C658D66BA25078A821212898095
:1016E000928A06BE3000402E8A06EE24C640277439
:1016F000FFB56113E56075F00AA4FEEA24D02EF56B
:101700006070BFD20C80BBE56175F00AA4FEEA24CC
:10171000D02EF56180ACBA2E0A74FFB561A4756154
:1017200000809F8A06BE6100400E8A06EE24854036
:10173000075302DFD2078002C207BA20028075BABF
:1017400023030217C3BA2A030217C8BA2B02805F09
:10175000BA2D028055BA4202805FBA430302180DC7
:10176000BA4403021948BA4503021962BA46030291
:10177000195EBA4703021966BA4903021948BA4CFE
:1017800002803BBA4E0302196ABA4F0302194FBADC
:1017900050030218E1BA5303021831BA5503021973
:1017A00054BA5803021959021994D20B0216C2D224
:1017B0000D0216C2D20E0216C2D2100216C2D211E9
:1017C0000216C2D2120216C274FFB5612030100B8D
:1017D000E56714F8886786600216C2E56724FEF89C
:1017E00088678606088607188E600216C230100BBE
:1017F000E56714F8886786610216C2E56724FEF87B
:1018000088678606088607188E610216C230100A9D
:10181000E56714F888678602800FE56724FEF8887C
:10182000678603088604188B028A821212890219BD
:1018300099E56724FDF8886786030886040886050D
:1018400018188B588C598D5A8B828C838DF0121FEF
:10185000DDAB82AC838B6274FFB56103856261206E
:101860000B1DC3E56295605016E560C39562F56097
:10187000AB601560EB600875822012128980F185DB
:101880005882855983855AF0120B2BFBFA6029ABDD
:10189000611561C3E464808BF063F08095F05018AB
:1018A0008A82121289AB58AC59AD5A0BBB00010C9D
:1018B0008B588C598D5A80C7200B03021999C3E5A8
:1018C0006295604003021999E560C39562F560ABCB
:1018D000601560EB700302199975822012128980DD
:1018E000EEE56724FDF88867860308860408860508
:1018F00018188B588C598D5AE55AFB30E7047A43F7
:101900008013EB546060047A50800AEB30E6047A6E
:101910004980027A588A82C00212128975823A126C
:101920001289758230121289758278121289D0025A
:10193000BA4902800BBA500280068559821212BC45
:101940008558821212BC8051D20F755F0A804A7589
:101950005F088045755F0A8040755F10803BD20844
:101960008037D2098033D20A802FE56724FDF888BA
:1019700067860308860408860518188B588C598DCD
:101980005A8B828C838DF0E55D1209F3A3E55E121C
:1019900009F380058A821212892008062009033083
:1019A0000A70E56724FCF8886786030886040886C1
:1019B000050886061818188B588C598D5A8E5BE5C9
:1019C00058E559E55AE55B8B828C838DF0EE121E4B
:1019D000BE74FFB56103756106300A27747F555BDD
:1019E000FB8B5CE55CEB2BFB8B5CE55A30E706740C
:1019F00001455CF55CE55C246840067499255C4013
:101A000002D209300906121585021673121312024A
:101A10001673E55F70030216737B7230102BE56757
:101A200014F88867E6FC3395E0FDFEFF8C588D596D
:101A30008E5A8F5B200F5EAC587D007E007F008C3D
:101A4000588D598E5A8F5B804C30111FE56724FCEE
:101A5000F888678604088605088606088607181829
:101A6000188C588D598E5A8F5B802AE56724FEF8B2
:101A70008867860408860518ED3395E0FEFF8C58CC
:101A80008D598E5A8F5B200F0CAC58AD597E007F5C
:101A9000008E5A8F5B301243E5584559455A455BD5
:101AA00060397408B55F0C758230C003121289D09A
:101AB0000380287410B55F23758230C00312128929
:101AC000D00330070C758278C003121289D00380CE
:101AD0000A758258C003121289D003300F25AC5802
:101AE000AD59AE5AE55BFF30E717C3E49CFCE49DBB
:101AF000FDE49EFEE49FFF8C588D598E5A8F5B80CB
:101B000002C20F756200D2138B00755C00C0001218
:101B100012D3D00020130DE55CC4FCE6FD4CF61892
:101B200088038002A65C0562B213E5584559455A00
:101B3000455B70D68803E5607003756001200C1A60
:101B4000200B17E56204FCC39560500E758220C01F
:101B500003121289D003156080E9300F0E75822DB3
:101B6000C003121289D00315608024E56260203022
:101B70000D0E75822BC003121289D0031560800FE1
:101B8000300E0C758220C003121289D0031560201C
:101B90000B1EAC601560C3E5629C5027300C047CC2
:101BA0003080027C208C82C003121289D00380E234
:101BB000C3E56295605009E560C39562F5608003F6
:101BC0007560008B00AB621562EB6022B2132013CC
:101BD0000A08E6C4540FFB8B5C80078603740F5B16
:101BE000F55C855C82C0001212A3D00080D7200B68
:101BF00003021673AB601560EB70030216737582F7
:101C00002012128980EE8A82121289021673855D73
:101C100082855E8322AA82BA0A0810990280FB7527
:101C2000990D10990280FB8A9922AAF0FBE5828522
:101C300017F0A4FCADF0E5838517F0A42DFDE43585
:101C4000F0FEE5828518F0A42DFDE5F03EFEE433BC
:101C5000FFEA8517F0A42EFEE5F03FFFE583851827
:101C6000F0A42EFEE5F03FFFE5828519F0A42EFEDC
:101C7000E5F03FFFEB8517F0A42FFFEA8518F0A4ED
:101C80002FFFE5838519F0A42FFFE582851AF0A4C4
:101C90002F8EF08D838C8222AA82AB83ACF07515D7
:101CA00000751600C2178A058B068C078D828E83FD
:101CB0008FF0120B2BF8B820028003B809070DBD76
:101CC00000EA0E80E78D028E038F04B82D0DD21529
:101CD00074012DFAE43EFB8F04800EC215B82B0967
:101CE00074012DFAE43EFB8F047511007512007526
:101CF00013007514008A058B068C078D828E838FE6
:101D0000F0120B2BF8F9B930004005E824C6501248
:101D10008D828E838FF0120B2BF8B82E0280030277
:101D20001DCD8D828E838FF0120B2BF9B92E05D22B
:101D300017021DC5C005C006C007C005C006C00704
:101D4000C001C011C012C013C01490000075F02073
:101D500074411208AE85821185831285F013F51443
:101D6000E58124FCF581D001D007D006D005E93308
:101D700095E0FDE924D0F582ED34FFF583122005CE
:101D8000AD82AE83AFF0F9C005C006C007C005C084
:101D900006C007C0018511828512838513F0E51402
:101DA00012095185821185831285F013F514E5819E
:101DB00024FCF581D007D006D005D007D006D00589
:101DC00030170215150DBD00010E021CFB5300DF7C
:101DD0008D828E838FF0E81209F3B8456274012D6D
:101DE000FAE43EFB8F048A828B838CF0120B2BFD6E
:101DF000BD2D09D2160ABA000D0B800AC216BD2BE2
:101E0000050ABA00010B7516008A828B838CF012CA
:101E10000B2BFDFEBE3000401D8D06EE24C6401685
:101E2000E51675F00AA4F516ED24D02516F5160A68
:101E3000BA00D60B80D3301606C3E49516F516E526
:101E4000152516F516E5166055E51630E728C0117C
:101E5000C012C013C01490CCCD75F0CC743D1208E4
:101E6000AE85821185831285F013F514E58124FC7B
:101E7000F581051680CFC011C012C013C0149000A8
:101E80000075F02074411208AE8582118583128599
:101E9000F013F514E58124FCF581151680A73015A3
:101EA0000F851111851212851313E514B2E7F5148D
:101EB0008511828512838513F0E51422E473C0E056
:101EC000F84582458345F07009F5F0FBFCFDFE0204
:101ED0001F8CE823A2F792E0F8A982AA83D2F7AB7D
:101EE000F07C007E07C3749798404074FF2EFE7408
:101EF0000A89F0A4F985F082740A8AF0A4FA85F0C0
:101F000083740A8BF0A4FB740529F9EA3582FAEB95
:101F10003583FB740035F0FCC3EC13FCEB13FBEAD8
:101F200013FAE913F908EC70EF80BAE8C3947FF86C
:101F30008B838EF0E4FBFCFDFEFF08C3E933F9EA76
:101F400033FAE58333F583EB3BD4FBEC3CD4FCED77
:101F50003DD4FDEE3ED4FEEF3FD4FF602D05F0747E
:101F6000052BD4FBE43CD4FCE43DD4FDE43ED4FE9C
:101F7000E43FD4FF758204C3EF13FFEE13FEED13AD
:101F8000FDEC13FCEB13FBD582EDD8AF786DD0E000
:101F900020E704762B8002762D087906E7C4540FDB
:101FA0004430F608B90603762E08E7540F4430F69D
:101FB0000819B902E7764508E5F020E704762B809A
:101FC00004762DF4040875F00A844430F608E5F030
:101FD0004430F608E4F690006D75F04022AA82AB1A
:101FE00083ACF07D007E008A828B838CF0120B2BF9
:101FF000FFA3AA82AB83EF60070DBD00EA0E80E766
:102000008D828E8322AC83AB827A007900748E023B
:10201000201BFCABF0AA83A982749EF582C2D1EC8E
:1020200030E716D2D1E9F42401F9EAF43400FAEBEE
:10203000F43400FBECF43400FC1211CB02117C00F0
:00000001FF
