:10000000020076752201752301752400752500759F
:100010002600E4F527F528752B00220000000000DB
:1000200000000000000000000000000201771B5BE0
:10003000324A00562850312E33293D25332E326660
:10004000562C20562850302E32293D25332E32662C
:10005000562057696E64203D2025642064656772D0
:100060006565730D00000000000000000000000046
:1000700000000002021B75815B1200E7E58260034D
:100080000200E2780079007A007B007C007D00ECC1
:100090004D601C88828983E493A3A882A9838A8205
:1000A0008B83F0A3AA82AB831CBCFFE31D80E075A9
:1000B00082007583007C007D00EC4D600AE4F0A3B3
:1000C0001CBCFFF51D80F27582007583007C007DED
:1000D00000EC4D600AE4F0A31CBCFFF51D80F21299
:1000E000000312039480FE75A7007597DE7597AD27
:1000F00075FF8075EF0675A71075C12075A700758F
:10010000A90075A900E5A930E7FB75A90375A90346
:10011000E5A930E7FB43A41075E10375E20175E33F
:100120004043D4CF43D50F759810758DE6858D8BE0
:1001300053890F438920D28ED29975A25975A16037
:1001400075F80175C800438E1075CA6075CB73755C
:10015000CEFF75CFFFD2ADD2CA759100438E4075E8
:1001600092B07593B97594FF7595FF43E6804391FE
:1001700004D2AF75820022C0E0C0D075D00075A750
:1001800000C2CF7403B52602800302021475260054
:100190007401B52336E525700AD2A1D2A2C2A3C24A
:1001A000A4805C7401B5250AC2A1D2A2D2A3C2A4C4
:1001B000804D7402B5250AC2A1C2A2D2A3D2A480E6
:1001C0003ED2A1C2A2C2A3D2A48034E525700AD235
:1001D000A1C2A2C2A3D2A480267401B5250AC2A1DD
:1001E000C2A2D2A3D2A480177402B5250AC2A1D29A
:1001F000A2D2A3C2A48008D2A1D2A2C2A3D2A40533
:10020000250527E4B527020528E52524FC500775B8
:10021000250080020526D0D0D0E03275A70053918A
:100220003F75220175240132AA82E583CA25E0CAFE
:1002300033FB7C007D00C3EC9AED64808BF063F0AF
:100240008095F0500F7401B524EC7524000CBC00AF
:10025000E50D80E22275A70075B28075BCF875B90E
:100260001E75E80075DF3F75B300D2EF228582BBB3
:10027000D2EC20ECFDD2EC20ECFD85BD8285BE8366
:100280002212026D12058EAA82AB83ACF0FDC00271
:10029000C003C004C005909FBE75F05274401205A3
:1002A0009AAA82AB83ACF0FDE58124FCF581E4C021
:1002B000E074FCC0E0747FC0E07446C0E08A828BCA
:1002C000838CF0ED1206D7AA82AB83ACF0FDE581FA
:1002D00024FCF5818A828B838CF0ED2275A7007552
:1002E000960075D90075F700759C00759E0075D84D
:1002F0004075DA4275FC802275A72053F1FB53F25A
:10030000F743A5D043A67F75A700228582A330FFBF
:10031000FD85A382C2FF22E52B701DC2A0900004C0
:10032000120228E52B242CF87582AAC00012030BB8
:10033000E582D000F6052B2274F6252B4015E52B1F
:10034000242CF87582FFC00012030BE582D000F662
:10035000052B22D2A0900002120228752B00E52F57
:10036000FA30E02FAB2E8B04E4FBFDEA2BFAED3CD8
:10037000FB8A048B05C3EC94FFED94FF50158A298A
:10038000EBA2E713C52913C529A2E713C52913C595
:1003900029F52A22E4F546F547FCFDC004C00574A2
:1003A0002EC0E07400C0E07480C0E01206AB15817E
:1003B000158115811202F81202DC120255D005D007
:1003C000047401B522028003020580752200C3EC8B
:1003D000941EED6480948050080CBC00010D020551
:1003E00080C3E5469414E54764809480400302048A
:1003F00084853E48853F4985404A85414B75820941
:10040000120281AA82AB83AEF0FFC002C003C00615
:10041000C007854882854983854AF0E54B12063D31
:10042000AA82AB83AEF0FFE58124FCF5818A3E8B86
:100430003F8E408F4185424885434985444A8545E2
:100440004B758201120281AA82AB83AEF0FFC0021B
:10045000C003C006C007854882854983854AF0E508
:100460004B12063DAA82AB83AEF0FFE58124FCF57A
:10047000818A428B438E448F450546E4B54602058A
:100480004702057CE4C0E0C0E074A0C0E07441C055
:10049000E0853E82853F838540F0E5411206D7AA7C
:1004A00082AB83AEF0FFE58124FCF58174B8C0E037
:1004B000741EC0E07405C0E0743EC0E08A828B8385
:1004C0008EF0EF1206CC85824885834985F04AF587
:1004D0004BE58124FCF581854836854937854A38C6
:1004E000854B39E4C0E0C0E074A0C0E07441C0E0D6
:1004F0008542828543838544F0E5451206D7AA826A
:10050000AB83AEF0FFE58124FCF58174B8C0E074E4
:100510001EC0E07405C0E0743EC0E08A828B838E0A
:10052000F0EF1206CCAA82AB83AEF0FFE58124FC8B
:10053000F5818A3A8B3B8E3C8F3DC029C02AC00290
:10054000C003C006C007C048C049C04AC04B74338E
:10055000C0E07400C0E07480C0E01206ABE5812406
:10056000F3F581E4F546F547F53EF53FF540F541F5
:100570007542007543007544007545007C007D00A0
:10058000C004C005120317D005D0040203C1E4ACB7
:1005900083AB82FAF9748E0207FF12088BBC00034A
:1005A00002082AEF60FA30D502B2D1E583B4FF0326
:1005B000020840E582B4FF03020840258340072477
:1005C00082400B02082A2483145003020840F5825B
:1005D000EA8DF0A4A8F0EA8EF0A428F8E435F0F94A
:1005E000EB8DF0A428E935F0F9E433CA8FF0A429A3
:1005F000F9EA35F0FAEBF88EF0A429F9EA35F0FAC9
:10060000E433FBEC8DF0A429F9EA35F0FAE43BFB86
:10061000E88FF0A42AFAEB35F0FBE433CCFD8EF042
:10062000A42AFAEB35F0FBE43CFCED8FF0A42BFBA5
:10063000EC35F0FC20E70312085802080912088B79
:100640007900E583B58202800D50031208B9E58375
:10065000C395821208D3E5D0C465D020E117EA2DF6
:10066000FAEB3EFBEC3FFC500974011208D3EC445A
:1006700080FC020809C3EA9DFAEB9EFBEC9FFC504C
:100680000FC3E499F9E49AFAE49BFBE49CFCB2D131
:100690001208580208090212A2858218858319855A
:1006A000F01A85091B900696020CF5C00885810892
:1006B000E50824FBF51BE50824FBF88618088619D5
:1006C00008861A900696120CF5D00822A8811818F0
:1006D000C6B2E7C602063D12088B30D502B2D1BFC2
:1006E0000009BC000302084D020840BC00030208D8
:1006F0002AE583B4FF0BE582B4FF0302084D02082C
:100700002AE582B4FF03020840C395835007247F83
:10071000400B02082A2480145003020840C0E0E481
:10072000CCCBCAF98D1C8E1D8F1EEF54F0C4F51F63
:10073000758306851FF0EB84F582E9C4F9EAC4FAF3
:10074000EBC4FBEC540FC47803D6FC18EBD6FB18B3
:10075000EAD6FA8582F0EDA4A8F0FD8582F0EEA439
:1007600028FEE435F0F88582F0EFA428FFE435F0A8
:10077000F8E99DF9EA9EFAEB9FFBEC98FCAD1CAE04
:100780001DAF1E30E7101582E92DF9EA3EFAEB3F66
:10079000FBE43CFC80EDC082D58398C3E933F9EAE1
:1007A00033FAEB33FBEC33FCC3E99DEA9EEB9FECA1
:1007B0009400B3E413F9D002D0E0C44AFAD003D0D5
:1007C000E0C44BFBD004D0E0F5F0540FC44CFCD097
:1007D00082158230F40FD3EC13FCEB13FBEA13FA0F
:1007E000E913F90582E930E70A74012AFAE43BFBD0
:1007F000E43CFC020821FCABF0AA83A982749EC2EF
:10080000D1F582120858020809B98003EA13B340EF
:1008100010EA2401FAE43BFBE43CFC50047C800534
:1008200082BC000EBB000BBA0008E4F5F0F583F5BE
:100830008222A2D1E582138CF092F78B838A8222E6
:10084000E4F583F58275F080F4A2D11322E4F583F8
:10085000F58275F0C0747F227804EC7011E5822473
:10086000F8500AF582E4C9CACBFCD8EF22EC782014
:10087000058220E713D5820122C3E933F9EA33FA6E
:10088000EB33FBEC33FCD8EA158222AA82AB83A2BD
:10089000F73392D16002D2F7F582ACF0E58124F90A
:1008A000F8E6FD08E6FE0886F008E6A2F73392D5E2
:1008B0006002D2F7F583AFF022E582C583F582A20C
:1008C000D133A2D592D11392D5ECCFFCEBCEFBEA7B
:1008D000CDFA226040F82582500274FFF582E824A8
:1008E000F8501ECCCBCAF9E4CC24F85014CBCAF98A
:1008F000E4CB24F8500BCAF9E4CA24F85003790079
:100900002224086010F8C3EC13FCEB13FBEA13FA83
:10091000E913F9D8F122AA827427C0E07409C0E073
:10092000C00AC00B8A82220511E4B5110205122209
:10093000AA8274302AFA24C6500A74072AFA3000B0
:10094000034302208A82020916E582FAC4540FF595
:1009500082C002120930D002740F5AF582020930A7
:10096000AA0CAB0DAC0EAD0FAE10751720EE2EFE1F
:10097000ED235401FF4206EA2AFAEB33FBEC33FC89
:10098000ED33FDC3EE95134008EEC39513FE43020D
:1009900001D517D98A0C8B0D8C0E8D0F8E102278F5
:1009A00058E624D075F00AA4FA7859E624D02AFA39
:1009B00078578603BB2D04C3E49AFA751301C3E488
:1009C00064808AF063F08095F050297517038A03DC
:1009D00074F62517401C0513E51714244CF8E51789
:1009E000244CF98704A604772E1BEBFA6004051744
:1009F00080DE8B02EA30E70D784D8603784EA60341
:100A0000784D762E0AE515600AE51504FB2513F5E9
:100A1000138005300B020513784C8603E4BB2D01CF
:100A200004FB70062006033007020513300403029E
:100A30000AE6300557EB600C75822DC002120916CC
:100A4000D002801C30060C75822BC002120916D011
:100A500002800D30070A758220C002120916D002EA
:100A6000784D8604BC2E0C758230C002120916D057
:100A7000021514AC141514C3E5139C4003020B2A91
:100A8000758230C002120916D00280E7AC1415142A
:100A9000C3E5139C500C758220C002120916D002C7
:100AA00080EA784C8604BC2D0C75822DC002120998
:100AB00016D002801C30060C75822BC0021209165B
:100AC000D002800D30070A758220C002120916D0AC
:100AD00002784D8604BC2E52758230C0021209166F
:100AE000D00215148044EB600E75822DC0021209ED
:100AF00016D0021514802030060E75822BC002120B
:100B00000916D0021514800F30070C758220C00220
:100B1000120916D0021514784D8603BB2E0C75826F
:100B200030C002120916D0021514751701C20DE566
:100B300017244CF88603BB4503020BE7BB2E348A0F
:100B400003C3E464808BF063F08095F0500F7582EE
:100B500030C003120916D0031B8B0280E48B02D233
:100B60000DE5157038200B03020BE775822E120974
:100B7000168074300D278A03EB30E71FC3E46480CE
:100B80008515F063F08095F0500C758230C003122B
:100B90000916D00315150B8B0280DD8B02300D0E6C
:100BA000C3E464808515F063F08095F05021E5176B
:100BB000244CF886038B82C002120916D002300D35
:100BC0000EE517244CF88603BB2E0280021515157E
:100BD00014C3E464808515F063F08095F040032031
:100BE0000D050517020B2FC3E464808515F063F033
:100BF0008095F0500A758230120916151580E8307C
:100C0000040FAA141514EA600875822012091680D0
:100C1000F122E5157003300B0D74072515FAE51464
:100C2000C39AF5148006E51424FAF51475170078B4
:100C30004C8602BA2B0F20060C784C762020070534
:100C40007517010514200419AA14C3E464808AF0FE
:100C500063F08095F0500A758220120916151480F1
:100C6000E7C20DE517244CF88602BA00028069BA83
:100C7000451F3000027665C3E464808515F063F09B
:100C80008095F0500A758230120916151580E8D249
:100C90000DC3E5179402E433FA7014EA700EC3E44E
:100CA00064808515F063F08095F04003300D16E503
:100CB00017244CF886028A82120916E51724FD5083
:100CC000121515800E7402B51709300B0675822EA9
:100CD0001209160517020C63300419AA14C3E46440
:100CE000808AF063F08095F0500A75822012091610
:100CF000151480E72285820A85830BE4F511F5122D
:100D0000AA18AB19AC1A8A828B838CF01212B7FD29
:100D100074012AF518E43BF5198C1AEDFA700302F8
:100D2000129BBA25028003021293C204C205C206B6
:100D3000C207C208C209C20AC20BC201C202C20370
:100D40007513007514007515FFAB18AC19AD1A8B2F
:100D5000828C838DF01212B7FAA3AB82AC838B180E
:100D60008C198D1ABA25078A8212091680928A0672
:100D7000BE3000402E8A06EE24C6402774FFB5150B
:100D800013E51475F00AA4FEEA24D02EF51470BF02
:100D9000D20580BBE51575F00AA4FEEA24D02EF535
:100DA0001580ACBA2E0A74FFB515A4751500809F86
:100DB0008A06BE6100400E8A06EE24854007530273
:100DC000DFD2008002C200BA20028075BA2303027B
:100DD0000E50BA2A03020E55BA2B02805FBA2D02BA
:100DE0008055BA4202805FBA4303020E9ABA4403A6
:100DF000020FD5BA4503020FEFBA4603020FEBBA52
:100E00004703020FF3BA4903020FD5BA4C02803BE5
:100E1000BA4E03020FF7BA4F03020FDCBA500302B7
:100E20000F6EBA5303020EBEBA5503020FE1BA5851
:100E300003020FE6021021D204020D4FD206020D6A
:100E40004FD207020D4FD209020D4FD20A020D4FA9
:100E5000D20B020D4F74FFB5152030090BE51B14A2
:100E6000F8881B8614020D4FE51B24FEF8881B86AC
:100E700006088607188E14020D4F30090BE51B1467
:100E8000F8881B8615020D4FE51B24FEF8881B868B
:100E900006088607188E15020D4F30090AE51B1447
:100EA000F8881B8602800FE51B24FEF8881B86034A
:100EB000088604188B028A82120916021026E51B86
:100EC00024FDF8881B860308860408860518188BFD
:100ED0000C8C0D8D0E8B828C838DF012140BAB82DB
:100EE000AC838B1674FFB5150385161520041DC33E
:100EF000E51695145016E514C39516F514AB1415A4
:100F000014EB600875822012091680F1850C828529
:100F10000D83850EF01212B7FBFA6029AB1515157B
:100F2000C3E464808BF063F08095F050188A8212DD
:100F30000916AB0CAC0DAD0E0BBB00010C8B0C8C71
:100F40000D8D0E80C7200403021026C3E5169514EC
:100F50004003021026E514C39516F514AB141514BE
:100F6000EB700302102675822012091680EEE51B35
:100F700024FDF8881B860308860408860518188B4C
:100F80000C8C0D8D0EE50EFB30E7047A438013EBDD
:100F9000546060047A50800AEB30E6047A4980029B
:100FA0007A588A82C00212091675823A1209167599
:100FB0008230120916758278120916D002BA4902D7
:100FC000800BBA50028006850D82120949850C8279
:100FD0001209498051D20875130A804A7513088096
:100FE0004575130A8040751310803BD2018037D2BB
:100FF000028033D203802FE51B24FDF8881B860373
:1010000008860408860518188B0C8C0D8D0E8B82B3
:101010008C838DF0E5111213F2A3E5121213F28006
:10102000058A82120916200106200203300370E5AA
:101030001B24FCF8881B860308860408860508869E
:10104000061818188B0C8C0D8D0E8E0FE50CE50D07
:10105000E50EE50F8B828C838DF0EE1212D374FFB8
:10106000B51503751506300327747F550FFB8B10DC
:10107000E510EB2BFB8B10E50E30E70674014510F5
:10108000F510E51024684006749925104002D2023C
:10109000300206120C12020D0012099F020D00E52B
:1010A000137003020D007B5130092BE51B14F888E7
:1010B0001BE6FC3395E0FDFEFF8C0C8D0D8E0E8F34
:1010C0000F20085EAC0C7D007E007F008C0C8D0D27
:1010D0008E0E8F0F804C300A1FE51B24FCF8881BF6
:1010E00086040886050886060886071818188C0CDA
:1010F0008D0D8E0E8F0F802AE51B24FEF8881B862F
:101100000408860518ED3395E0FEFF8C0C8D0D8EDE
:101110000E8F0F20080CAC0CAD0D7E007F008E0EE4
:101120008F0F300B43E50C450D450E450F603974AC
:1011300008B5130C758230C003120916D00380283D
:101140007410B51323758230C003120916D0033012
:10115000000C758278C003120916D003800A7582CC
:1011600058C003120916D003300825AC0CAD0DAEE3
:101170000EE50FFF30E717C3E49CFCE49DFDE49E01
:10118000FEE49FFF8C0C8D0D8E0E8F0F8002C20827
:10119000751600D20C8B00751000C000120960D0CB
:1011A00000200C0DE510C4FCE6FD4CF61888038009
:1011B00002A6100516B20CE50C450D450E450F7044
:1011C000D68803E514700375140120051A2004174E
:1011D000E51604FCC39514500E758220C003120955
:1011E00016D003151480E930080E75822DC0031245
:1011F0000916D00315148024E516602030060E75FC
:10120000822BC003120916D0031514800F30070C6F
:10121000758220C003120916D003151420041EACD9
:10122000141514C3E5169C50273005047C30800249
:101230007C208C82C003120916D00380E2C3E5161D
:1012400095145009E514C39516F514800375140020
:101250008B00AB161516EB6022B20C200C0A08E6C8
:10126000C4540FFB8B1080078603740F5BF5108549
:101270001082C000120930D00080D7200403020D74
:1012800000AB141514EB7003020D007582201209D7
:101290001680EE8A82120916020D008511828512CF
:1012A0008322AA82BA0A0810990280FB75990D1050
:1012B000990280FB8A992220F71430F6148883A8BB
:1012C0008220F507E6A88375830022E280F7E49385
:1012D00022E022C0E0F84582458345F07009F5F030
:1012E000FBFCFDFE0213A1E823A2F792E0F8A9821D
:1012F000AA83D2F7ABF07C007E07C3749798404076
:1013000074FF2EFE740A89F0A4F985F082740A8AAB
:10131000F0A4FA85F083740A8BF0A4FB740529F914
:10132000EA3582FAEB3583FB740035F0FCC3EC132D
:10133000FCEB13FBEA13FAE913F908EC70EF80BA3F
:10134000E8C3947FF88B838EF0E4FBFCFDFEFF087E
:10135000C3E933F9EA33FAE58333F583EB3BD4FB96
:10136000EC3CD4FCED3DD4FDEE3ED4FEEF3FD4FF8B
:10137000602D05F074052BD4FBE43CD4FCE43DD493
:10138000FDE43ED4FEE43FD4FF758204C3EF13FFB7
:10139000EE13FEED13FDEC13FCEB13FBD582EDD841
:1013A000AF784CD0E020E704762B8002762D0879C8
:1013B00006E7C4540F4430F608B90603762E08E752
:1013C000540F4430F60819B902E7764508E5F020D5
:1013D000E704762B8004762DF4040875F00A844423
:1013E00030F608E5F04430F608E4F690004C75F06D
:1013F000402220F71030F6118883A88220F507F6E6
:10140000A88375830022F280F7F022AA82AB83AC16
:10141000F07D007E008A828B838CF01212B7FFA3CE
:10142000AA82AB83EF60070DBD00EA0E80E78D82D4
:101430008E83220000000000000000000000000079
:00000001FF
