:10000000020076752201752301752400752500759F
:100010002600E4F527F528752900752A00752B00C0
:10002000752C0022000000000000000201771B5B1D
:10003000324A00562850312E33293D25332E326660
:10004000562C20562850302E32293D25332E32662C
:10005000562057696E64203D20252E326620646547
:1000600067726565730D000000000000000000006D
:1000700000000002021B7581681200E7E582600340
:100080000200E2780079007A007B007C007D00ECC1
:100090004D601C88828983E493A3A882A9838A8205
:1000A0008B83F0A3AA82AB831CBCFFE31D80E075A9
:1000B00082007583007C007D00EC4D600AE4F0A3B3
:1000C0001CBCFFF51D80F27582007583007C007DED
:1000D00000EC4D600AE4F0A31CBCFFF51D80F21299
:1000E000000312042D80FE75A7007597DE7597AD8D
:1000F00075FF8075EF0675A71075C12075A700758F
:10010000A90075A900E5A930E7FB75A90375A90346
:10011000E5A930E7FB43A41043D4CF43D50F75E1E5
:100120000375E20175E340759810758DE6858D8B3A
:1001300053890F438920D28ED29975A2FC75A16094
:1001400075F80175C800438E1075CA6075CB73755C
:10015000CEFF75CFFFD2ADD2CA759100438E4075E8
:1001600092DC7593FF7594FF7595FF43E68043918C
:1001700004D2AF75820022C0E0C0D075D00075A750
:1001800000C2CF7403B52602800302021475260054
:100190007401B52336E525700AD2A1D2A2C2A3C24A
:1001A000A4805C7401B5250AC2A1D2A2D2A3C2A4C4
:1001B000804D7402B5250AC2A1C2A2D2A3D2A480E6
:1001C0003ED2A1C2A2C2A3D2A48034E525700AD235
:1001D000A1C2A2C2A3D2A480267401B5250AC2A1DD
:1001E000C2A2D2A3D2A480177402B5250AC2A1D29A
:1001F000A2D2A3C2A48008D2A1D2A2C2A3D2A40533
:10020000250527E4B527020528E52524FC500775B8
:10021000250080020526D0D0D0E03275A70053918A
:100220003FB2A575220175240132AA82AB837524E1
:10023000007C007D00C3EC9AED64808BF063F0805D
:1002400095F0500F7401B524EC7524000CBC00E54A
:100250000D80E22275A70075B28075BCF875B91ED5
:1002600075E80075DF3F75B300D2EF228582BBD2FF
:10027000EC20ECFDD2EC20ECFD85BD8285BE832216
:1002800012026C12062BAA82AB83ACF0FDC002C036
:1002900003C004C005909FBE75F05274401206372B
:1002A000AA82AB83ACF0FDE58124FCF581E4C0E0DB
:1002B00074FCC0E0747FC0E07446C0E08A828B8327
:1002C0008CF0ED120787AA82AB83ACF0FDE58124A8
:1002D000FCF5818A828B838CF0ED2275A7007596E0
:1002E0000075D90075F700759C00759E0075D840A3
:1002F00075DA4275FC802275A72053F1FB53F2F7A3
:1003000043A5D043A67F75A700228582A310FF02D4
:1003100080FB22C3E52D9402E52E94005060E52D6C
:10032000452E7031C2A090000712022A7582AA12CF
:10033000030AE52D252DFAE52E33EA242FF8AAA38A
:100340007B00A60208A603052DE4B52D02052E901C
:10035000002802022A7582FF12030AE52D252DFAD4
:10036000E52E33EA242FF8AAA37B00A60208A603F1
:10037000052DE4B52D02052E90003202022AC3E5B8
:100380002D940AE52E940050297582FF12030AE588
:100390002D252DFAE52E33EA242FF8AAA37B00A6FB
:1003A0000208A603052DE4B52D02052E90002802B3
:1003B000022AD2A090064012022AE4F52DF52EAAB8
:1003C00035AB3674015AFC7D00BC0160BD005DADEB
:1003D000337C00EA2CFAEB3DFBE4FCC313FDEC1389
:1003E000FCEB13FBEA13FAEDC313FDEC13FCEB1368
:1003F000FBEA13F5828B838CF0ED12076985822965
:1004000085832A85F02BF52CC029C02AC02BC02C4F
:1004100090000075F0B4743C1206378582298583FC
:100420002A85F02BF52CE58124FCF58122E4F55397
:10043000F554FCFDC004C005742EC0E07400C0E09B
:100440007480C0E01207481581158115811202F7EA
:100450001202DB120254D005D0047401B5220280CE
:100460000302061D752200C3EC940FED6480948096
:1004700050080CBC00010D02061DC3E5539414E5A1
:100480005464809480400302051D854B55854C566D
:10049000854D57854E58758209120280AA82AB831A
:1004A000AEF0FFC002C003C006C007855582855666
:1004B000838557F0E5581206DAAA82AB83AEF0FFC7
:1004C000E58124FCF5818A4B8B4C8E4D8F4E854FF8
:1004D00055855056855157855258758201120280B4
:1004E000AA82AB83AEF0FFC002C003C006C007857E
:1004F00055828556838557F0E5581206DAAA82ABF5
:1005000083AEF0FFE58124FCF5818A4F8B508E513C
:100510008F520553E4B553020554020619E4C0E0B6
:10052000C0E074A0C0E07441C0E0854B82854C837C
:10053000854DF0E54E120787AA82AB83AEF0FFE54A
:100540008124FCF58174B8C0E0741EC0E07405C05D
:10055000E0743EC0E08A828B838EF0EF12077C85C8
:10056000825585835685F057F558E58124FCF58141
:10057000855543855644855745855846E4C0E0C0B7
:10058000E074A0C0E07441C0E0854F82855083854F
:1005900051F0E552120787AA82AB83AEF0FFE581E6
:1005A00024FCF58174B8C0E0741EC0E07405C0E09E
:1005B000743EC0E08A828B838EF0EF12077CAA82A1
:1005C000AB83AEF0FFE58124FCF5818A478B488E32
:1005D000498F4AC029C02AC02BC02CC002C003C00A
:1005E00006C007C055C056C057C0587433C0E07429
:1005F00000C0E07480C0E0120748E58124F1F58175
:10060000E4F553F554F54BF54CF54DF54E754F00AB
:100610007550007551007552007C007D00C004C00B
:1006200005120313D005D00402045AE4AC83AB8254
:10063000FAF9748E020772120928BC00030208C777
:10064000EF60FA30D502B2D1E583B4FF030208DDD2
:10065000E582B4FF030208DD258340072482400BB6
:100660000208C724831450030208DDF582EA8DF0E6
:10067000A4A8F0EA8EF0A428F8E435F0F9EB8DF0A8
:10068000A428E935F0F9E433CA8FF0A429F9EA3552
:10069000F0FAEBF88EF0A429F9EA35F0FAE433FB2E
:1006A000EC8DF0A429F9EA35F0FAE43BFBE88FF091
:1006B000A42AFAEB35F0FBE433CCFD8EF0A42AFA41
:1006C000EB35F0FBE43CFCED8FF0A42BFBEC35F0BC
:1006D000FC20E7031208F50208A61209287900E5B4
:1006E00083B58202800D5003120956E583C39582BB
:1006F000120970E5D0C465D020E117EA2DFAEB3E6F
:10070000FBEC3FFC50097401120970EC4480FC02C0
:1007100008A6C3EA9DFAEB9EFBEC9FFC500FC3E4D6
:1007200099F9E49AFAE49BFBE49CFCB2D11208F537
:100730000208A602133F85821885831985F01A8561
:10074000091B900733020D92C008858108E5082433
:10075000FBF51BE50824FBF8861808861908861A9D
:10076000900733120D92D00822FCABF0AA83A98225
:10077000749EC2D1F5821208F50208A6A881181845
:10078000C6B2E7C60206DA12092830D502B2D1BFD6
:100790000009BC00030208EA0208DDBC00030208ED
:1007A000C7E583B4FF0BE582B4FF030208EA020841
:1007B000C7E582B4FF030208DDC395835007247F99
:1007C000400B0208C724801450030208DDC0E0E497
:1007D000CCCBCAF98D1C8E1D8F1EEF54F0C4F51FB3
:1007E000758306851FF0EB84F582E9C4F9EAC4FA43
:1007F000EBC4FBEC540FC47803D6FC18EBD6FB1803
:10080000EAD6FA8582F0EDA4A8F0FD8582F0EEA488
:1008100028FEE435F0F88582F0EFA428FFE435F0F7
:10082000F8E99DF9EA9EFAEB9FFBEC98FCAD1CAE53
:100830001DAF1E30E7101582E92DF9EA3EFAEB3FB5
:10084000FBE43CFC80EDC082D58398C3E933F9EA30
:1008500033FAEB33FBEC33FCC3E99DEA9EEB9FECF0
:100860009400B3E413F9D002D0E0C44AFAD003D024
:10087000E0C44BFBD004D0E0F5F0540FC44CFCD0E6
:1008800082158230F40FD3EC13FCEB13FBEA13FA5E
:10089000E913F90582E930E70A74012AFAE43BFB1F
:1008A000E43CFC0208BEB98003EA13B34010EA241A
:1008B00001FAE43BFBE43CFC50047C800582BC0074
:1008C0000EBB000BBA0008E4F5F0F583F58222A216
:1008D000D1E582138CF092F78B838A8222E4F58330
:1008E000F58275F080F4A2D11322E4F583F58275C8
:1008F000F0C0747F227804EC7011E58224F8500A6D
:10090000F582E4C9CACBFCD8EF22EC78200582201E
:10091000E713D5820122C3E933F9EA33FAEB33FB5B
:10092000EC33FCD8EA158222AA82AB83A2F7339279
:10093000D16002D2F7F582ACF0E58124F9F8E6FD4A
:1009400008E6FE0886F008E6A2F73392D56002D2E8
:10095000F7F583AFF022E582C583F582A2D133A2F9
:10096000D592D11392D5ECCFFCEBCEFBEACDFA2297
:100970006040F82582500274FFF582E824F8501E8A
:10098000CCCBCAF9E4CC24F85014CBCAF9E4CB247C
:10099000F8500BCAF9E4CA24F8500379002224085D
:1009A0006010F8C3EC13FCEB13FBEA13FAE913F93C
:1009B000D8F122AA8274C4C0E07409C0E0C00AC0A1
:1009C0000B8A82220511E4B51102051222AA827453
:1009D000302AFA24C6500A74072AFA300003430268
:1009E000208A820209B3E582FAC4540FF582C0025C
:1009F0001209CDD002740F5AF5820209CDAA0CABB0
:100A00000DAC0EAD0FAE10751720EE2EFEED23547B
:100A100001FF4206EA2AFAEB33FBEC33FCED33FD2F
:100A2000C3EE95134008EEC39513FE430201D5179C
:100A3000D98A0C8B0D8C0E8D0F8E10227865E624D2
:100A4000D075F00AA4FA7866E624D02AFA7864868B
:100A500003BB2D04C3E49AFA751301C3E464808ACE
:100A6000F063F08095F050297517038A0374F6251A
:100A700017401C0513E517142459F8E5172459F9F4
:100A80008704A604772E1BEBFA6004051780DE8B23
:100A900002EA30E70D785A8603785BA603785A7627
:100AA0002E0AE515600AE51504FB2513F5138005EC
:100AB000300B02051378598603E4BB2D0104FB704B
:100AC000062006033007020513300403020B8330AF
:100AD0000557EB600C75822DC0021209B3D002805D
:100AE0001C30060C75822BC0021209B3D002800D97
:100AF00030070A758220C0021209B3D002785A86E4
:100B000004BC2E0C758230C0021209B3D002151439
:100B1000AC141514C3E5139C4003020BC775823057
:100B2000C0021209B3D00280E7AC141514C3E51358
:100B30009C500C758220C0021209B3D00280EA7862
:100B4000598604BC2D0C75822DC0021209B3D00247
:100B5000801C30060C75822BC0021209B3D00280B3
:100B60000D30070A758220C0021209B3D002785AEC
:100B70008604BC2E52758230C0021209B3D0021511
:100B8000148044EB600E75822DC0021209B3D002AE
:100B90001514802030060E75822BC0021209B3D0C6
:100BA000021514800F30070C758220C0021209B3A1
:100BB000D0021514785A8603BB2E0C758230C00201
:100BC0001209B3D0021514751701C20DE517245987
:100BD000F88603BB4503020C84BB2E348A03C3E4AE
:100BE00064808BF063F08095F0500F758230C00305
:100BF0001209B3D0031B8B0280E48B02D20DE515E2
:100C00007038200B03020C8475822E1209B3807495
:100C1000300D278A03EB30E71FC3E464808515F0AD
:100C200063F08095F0500C758230C0031209B3D088
:100C30000315150B8B0280DD8B02300D0EC3E464AF
:100C4000808515F063F08095F05021E5172459F860
:100C500086038B82C0021209B3D002300D0EE51755
:100C60002459F88603BB2E02800215151514C3E41F
:100C700064808515F063F08095F04003200D050534
:100C800017020BCCC3E464808515F063F08095F007
:100C9000500A7582301209B3151580E830040FAA86
:100CA000141514EA60087582201209B380F122E558
:100CB000157003300B0D74072515FAE514C39AF56A
:100CC000148006E51424FAF5147517007859860285
:100CD000BA2B0F20060C78597620200705751701CE
:100CE0000514200419AA14C3E464808AF063F08018
:100CF00095F0500A7582201209B3151480E7C20DD1
:100D0000E5172459F88602BA00028069BA451F30F7
:100D100000027665C3E464808515F063F08095F089
:100D2000500A7582301209B3151580E8D20DC3E55B
:100D3000179402E433FA7014EA700EC3E4648085F9
:100D400015F063F08095F04003300D16E517245937
:100D5000F886028A821209B3E51724FD5012151590
:100D6000800E7402B51709300B0675822E1209B376
:100D70000517020D00300419AA14C3E464808AF038
:100D800063F08095F0500A7582201209B315148023
:100D9000E72285820A85830BE4F511F512AA18ABC8
:100DA00019AC1A8A828B838CF0121354FD74012AB9
:100DB000F518E43BF5198C1AEDFA7003021338BAF2
:100DC00025028003021330C204C205C206C207C254
:100DD00008C209C20AC20BC201C202C203751300D3
:100DE0007514007515FFAB18AC19AD1A8B828C8386
:100DF0008DF0121354FAA3AB82AC838B188C198D2F
:100E00001ABA25078A821209B380928A06BE300078
:100E1000402E8A06EE24C6402774FFB51513E5144C
:100E200075F00AA4FEEA24D02EF51470BFD2058016
:100E3000BBE51575F00AA4FEEA24D02EF51580ACAA
:100E4000BA2E0A74FFB515A4751500809F8A06BED8
:100E50006100400E8A06EE248540075302DFD2006F
:100E60008002C200BA20028075BA2303020EEDBAD6
:100E70002A03020EF2BA2B02805FBA2D028055BA05
:100E80004202805FBA4303020F37BA440302107272
:100E9000BA450302108CBA4603021088BA4703020F
:100EA0001090BA4903021072BA4C02803BBA4E034A
:100EB000021094BA4F03021079BA500302100BBA11
:100EC0005303020F5BBA550302107EBA5803021097
:100ED000830210BED204020DECD206020DECD20742
:100EE000020DECD209020DECD20A020DECD20B027B
:100EF0000DEC74FFB5152030090BE51B14F8881BA9
:100F00008614020DECE51B24FEF8881B8606088675
:100F100007188E14020DEC30090BE51B14F8881B22
:100F20008615020DECE51B24FEF8881B8606088654
:100F300007188E15020DEC30090AE51B14F8881B02
:100F40008602800FE51B24FEF8881B8603088604B2
:100F5000188B028A821209B30210C3E51B24FDF824
:100F6000881B860308860408860518188B0C8C0DD0
:100F70008D0E8B828C838DF01214A8AB82AC838B88
:100F80001674FFB5150385161520041DC3E51695C7
:100F9000145016E514C39516F514AB141514EB6034
:100FA000087582201209B380F1850C82850D838536
:100FB0000EF0121354FBFA6029AB151515C3E46447
:100FC000808BF063F08095F050188A821209B3ABE1
:100FD0000CAC0DAD0E0BBB00010C8B0C8C0D8D0EF3
:100FE00080C72004030210C3C3E516951440030212
:100FF00010C3E514C39516F514AB141514EB700368
:101000000210C37582201209B380EEE51B24FDF89F
:10101000881B860308860408860518188B0C8C0D1F
:101020008D0EE50EFB30E7047A438013EB546060CD
:10103000047A50800AEB30E6047A4980027A588AB2
:1010400082C0021209B375823A1209B37582301256
:1010500009B37582781209B3D002BA4902800BBA7B
:1010600050028006850D821209E6850C821209E67F
:101070008051D20875130A804A751308804575138C
:101080000A8040751310803BD2018037D202803332
:10109000D203802FE51B24FDF8881B8603088604F5
:1010A00008860518188B0C8C0D8D0E8B828C838D09
:1010B000F0E51112148FA3E51212148F80058A82B5
:1010C0001209B3200106200203300370E51B24FC43
:1010D000F8881B8603088604088605088606181803
:1010E000188B0C8C0D8D0E8E0FE50CE50DE50EE5C5
:1010F0000F8B828C838DF0EE12137074FFB5150385
:10110000751506300327747F550FFB8B10E510EB28
:101110002BFB8B10E50E30E70674014510F510E54A
:101120001024684006749925104002D2023002064D
:10113000120CAF020D9D120A3C020D9DE5137003C7
:10114000020D9D7B5E30092BE51B14F8881BE6FC25
:101150003395E0FDFEFF8C0C8D0D8E0E8F0F200859
:101160005EAC0C7D007E007F008C0C8D0D8E0E8F92
:101170000F804C300A1FE51B24FCF8881B860408EE
:1011800086050886060886071818188C0C8D0D8EA3
:101190000E8F0F802AE51B24FEF8881B8604088624
:1011A0000518ED3395E0FEFF8C0C8D0D8E0E8F0F24
:1011B00020080CAC0CAD0D7E007F008E0E8F0F3022
:1011C0000B43E50C450D450E450F60397408B5130A
:1011D0000C758230C0031209B3D00380287410B597
:1011E0001323758230C0031209B3D00330000C758D
:1011F0008278C0031209B3D003800A758258C003F5
:101200001209B3D003300825AC0CAD0DAE0EE50FBE
:10121000FF30E717C3E49CFCE49DFDE49EFEE49FE1
:10122000FF8C0C8D0D8E0E8F0F8002C2087516007C
:10123000D20C8B00751000C0001209FDD000200CEC
:101240000DE510C4FCE6FD4CF61888038002A610DC
:101250000516B20CE50C450D450E450F70D68803FA
:10126000E514700375140120051A200417E516040F
:10127000FCC39514500E758220C0031209B3D0032D
:10128000151480E930080E75822DC0031209B3D001
:101290000315148024E516602030060E75822BC0DD
:1012A000031209B3D0031514800F30070C75822088
:1012B000C0031209B3D003151420041EAC14151476
:1012C000C3E5169C50273005047C3080027C208CBE
:1012D00082C0031209B3D00380E2C3E5169514500F
:1012E00009E514C39516F51480037514008B00AB43
:1012F000161516EB6022B20C200C0A08E6C4540F37
:10130000FB8B1080078603740F5BF510851082C07D
:10131000001209CDD00080D7200403020D9DAB142C
:101320001514EB7003020D9D7582201209B380EE37
:101330008A821209B3020D9D85118285128322AA29
:1013400082BA0A0810990280FB75990D10990280E3
:10135000FB8A992220F71430F6148883A88220F59E
:1013600007E6A88375830022E280F7E49322E02257
:10137000C0E0F84582458345F07009F5F0FBFCFDBF
:10138000FE02143EE823A2F792E0F8A982AA83D2D3
:10139000F7ABF07C007E07C3749798404074FF2E33
:1013A000FE740A89F0A4F985F082740A8AF0A4FA1E
:1013B00085F083740A8BF0A4FB740529F9EA358261
:1013C000FAEB3583FB740035F0FCC3EC13FCEB1334
:1013D000FBEA13FAE913F908EC70EF80BAE8C3945A
:1013E0007FF88B838EF0E4FBFCFDFEFF08C3E9333E
:1013F000F9EA33FAE58333F583EB3BD4FBEC3CD4D9
:10140000FCED3DD4FDEE3ED4FEEF3FD4FF602D0554
:10141000F074052BD4FBE43CD4FCE43DD4FDE43E65
:10142000D4FEE43FD4FF758204C3EF13FFEE13FE36
:10143000ED13FDEC13FCEB13FBD582EDD8AF78591F
:10144000D0E020E704762B8002762D087906E7C4E9
:10145000540F4430F608B90603762E08E7540F44BB
:1014600030F60819B902E7764508E5F020E704767A
:101470002B8004762DF4040875F00A844430F608B5
:10148000E5F04430F608E4F690005975F04022206B
:10149000F71030F6118883A88220F507F6A8837527
:1014A000830022F280F7F022AA82AB83ACF07D00A9
:1014B0007E008A828B838CF0121354FFA3AA82AB26
:1014C00083EF60070DBD00EA0E80E78D828E8322D8
:00000001FF
