:1000000002002E752301E4F524F525E4F526F527F5
:1000100022000000000000000000000000000000BE
:1000200000000000000000000000000201F97581DE
:100030007E120166E582600302009A780079007AF8
:10004000007B007C007D00EC4D601C88828983E48D
:1000500093A3A882A9838A828B83F0A3AA82AB830D
:100060001CBCFFE31D80E07582007583007C007D71
:1000700000EC4D600AE4F0A31CBCFFF51D80F27596
:1000800082007583007C007D00EC4D600AE4F0A3E3
:100090001CBCFFF51D80F212000312047380FE1BCE
:1000A0005B324A0050696E20636F6E6669677572D5
:1000B0006174696F6E20646F6E652E0A0050434153
:1000C00020636F6E66696775726174696F6E206414
:1000D0006F6E652E0A0041444320636F6E66696748
:1000E00075726174696F6E20646F6E652E0A000A06
:1000F00000456E74657220646972656374696F6E21
:10010000206F6620726F746174696F6E3A0A002501
:1001100063004D6F76696E6720666F7277617264F7
:100120002E0A004D6F76696E67206261636B77619E
:100130007264732E0A00562850312E34293D25341E
:100140002E3266562C20562850312E35293D253426
:100150002E3266562C20562850312E36293D253514
:100160002E3266560D0075A7007597DE7597AD7532
:10017000FF8075EF0675A71075C12075A70075A9DA
:100180000075A900E5A930E7FB75A90375A903E58A
:10019000A930E7FB43A41075E10175E20275E34065
:1001A000759810758DE6858D8B53890F438920D204
:1001B0008ED29975C800438E1075CAC075CBE6758E
:1001C000CEFF75CFFFD2ADD2CAD2AF75820022AAC0
:1001D00082438E407592B87593FF8592948593956E
:1001E0007591047B00C3EB9A500BE59130E7FB530C
:1001F000917F0B80F07591002275A700C2CF752307
:100200000132AA82AB837C007D00C3EC9AED9B5047
:100210002B7E00BE0400501D7582FAC002C003C0D0
:1002200004C005C0061201CFD006D005D004D0030B
:10023000D0020E80DE0CBC00D10D80CE2285822A39
:1002400085832B85F02CE4F52DF52EE52824FFFF82
:10025000E52934FFF879007A00C3E99FEA648088D1
:10026000F063F08095F05059C002C007C000C00193
:1002700012091AAB82D001D000D007D002BB0A020B
:100280008003BB0D1DE52D252AFCE52E352BFDAE8B
:100290002C8C828D838EF0E412092D852D82852E83
:1002A0008322E9252AFCEA352BFDAE2C8C828D8336
:1002B0008EF0EB12092D09B900010A892D8A2E80D2
:1002C00098E52D252AFAE52E352BFBAC2C8A828B5E
:1002D000838CF0E412092D8528828529832275A755
:1002E0000075B28075BCF875B91E75E80075DF3F02
:1002F00075B300D2EF228582BBD2EC20ECFDD2ECAC
:1003000020ECFD85BD8285BE83221202F61207DC39
:10031000AA82AB83ACF0FDC002C003C004C005904C
:100320009FBE75F05274401207E8AA82AB83ACF00E
:10033000FDE58124FCF581E4C0E074FCC0E0747F3D
:10034000C0E07446C0E08A828B838CF0ED120946CF
:10035000AA82AB83ACF0FDE58124FCF5818A828B17
:10036000838CF0ED2275A70075960075D90075F79E
:1003700000759C00759E0075D84075DA4275FC408A
:1003800075DB4275EA8022AA82BA4656E4B5240695
:10039000E4B5250280247401B52406E4B525028065
:1003A000237402B52406E4B5250280227403B52423
:1003B00006E4B525028021020435D2A1D2A2C2A34F
:1003C000C2A48071C2A1D2A2D2A3C2A48067C2A1DA
:1003D000C2A2D2A3D2A4805DD2A1C2A2C2A3D2A43F
:1003E0008053E4B52406E4B5250280237401B524C6
:1003F00006E4B5250280227402B52406E4B5250280
:1004000080217403B52406E4B5250280208026D21D
:10041000A1C2A2C2A3D2A4801CC2A1C2A2D2A3D252
:10042000A48012C2A1D2A2D2A3C2A48008D2A1D217
:10043000A2C2A3C2A40524E4B5240205250526E42E
:10044000B526020527C374039524E464808525F04E
:1004500063F08095F05005E4F524F5252243D4CFD0
:1004600075A72053F28F75A70043D57F43A67F431E
:10047000A58022E4F54CF54DF54EF54F749FC0E094
:100480007400C0E07480C0E01208F9158115811570
:100490008112045D74A4C0E07400C0E07480C0E008
:1004A0001208F915811581158112036574BDC0E02C
:1004B0007400C0E07480C0E01208F9158115811540
:1004C000811202DE74D6C0E07400C0E07480C0E027
:1004D0001208F915811581158174EFC0E07400C010
:1004E000E07480C0E01208F915811581158174F15E
:1004F000C0E07400C0E07480C0E01208F9158115F6
:10050000811581752804E4F52990004775F04012A3
:10051000023D744BC0E07400C0E07440C0E0740F52
:10052000C0E07401C0E07480C0E07447C0E07400B3
:10053000C0E07440C0E01207AEE58124F7F5817495
:1005400046B54B177412C0E07401C0E07480C0E07F
:100550001208F915811581158180157423C0E07486
:1005600001C0E07480C0E01208F915811581158181
:100570007401B52327C3E54E940FE54F6480948042
:10058000500A054EE4B54E11054F800D854B821281
:100590000387B2A5E4F54EF54F752300C3E54C94EF
:1005A000F4E54D648094814003020683853B5085C9
:1005B0003C51853D52853E5375820A12030AAA8238
:1005C000AB83ACF0FDC002C003C004C005855082FF
:1005D0008551838552F0E55312088BAA82AB83AC18
:1005E000F0FDE58124FCF5818A3B8B3C8C3D8D3E02
:1005F000853F5085405185415285425375820B128B
:10060000030AAE82AF83AAF0FBC006C007C002C0D7
:10061000038550828551838552F0E55312088BAAD9
:1006200082AB83ACF0FDE58124FCF5818A3F8B40F1
:100630008C418D42854350854451854552854653B2
:1006400075820C12030AAE82AF83AAF0FBC006C00B
:1006500007C002C0038550828551838552F0E5535F
:1006600012088BAA82AB83ACF0FDE58124FCF581F6
:100670008A438B448C458D46054CE4B54C02054DB0
:10068000020570E4C0E0C0E074FAC0E07443C0E06A
:10069000853B82853C83853DF0E53E120946858297
:1006A0005085835185F052F553E58124FCF5818511
:1006B000502F855130855231855332E4C0E0C0E07F
:1006C00074FAC0E07443C0E0853F82854083854171
:1006D000F0E54212094685825485835585F056F52A
:1006E00057E58124FCF5818554338555348556358D
:1006F000855736E4C0E0C0E074FAC0E07443C0E05F
:100700008543828544838545F0E546120946AC82DF
:10071000AD83AAF0FBE58124FCF5818C378D388A06
:10072000398B3AC004C005C002C003C054C055C0D4
:1007300056C057C050C051C052C0537436C0E07448
:1007400001C0E07480C0E01208F9E58124F1F58170
:10075000E4F54CF54DF53BF53CF53DF53E753F00B8
:100760007540007541007542007543007544007581
:100770004500754600020570AA08AB09AC0A8A82DA
:100780008B838CF0120A65FA0508E4B508020509A6
:100790008A822285820885830985F00A850B68850F
:1007A0000C69850D6A850E6B900778020C91C00F5D
:1007B00085810FE50F24F8F56BE50F24FBF886081B
:1007C00008860908860AE50F24F8F886680886690D
:1007D00008866A900778120C91D00F22E4AC83ABA4
:1007E00082FAF9748E0210AC121138BC00030210A8
:1007F000D7EF60FA30D502B2D1E583B4FF0302101F
:10080000EDE582B4FF030210ED258340072482400A
:100810000B0210D724831450030210EDF582EA8DE9
:10082000F0A4A8F0EA8EF0A428F8E435F0F9EB8DF6
:10083000F0A428E935F0F9E433CA8FF0A429F9EAE5
:1008400035F0FAEBF88EF0A429F9EA35F0FAE43342
:10085000FBEC8DF0A429F9EA35F0FAE43BFBE88FD4
:10086000F0A42AFAEB35F0FBE433CCFD8EF0A42A99
:10087000FAEB35F0FBE43CFCED8FF0A42BFBEC3500
:10088000F0FC20E7031211050210B61211387900AE
:10089000E583B58202800D5003121166E583C3958E
:1008A00082121180E5D0C465D020E117EA2DFAEB61
:1008B0003EFBEC3FFC50097401121180EC4480FCBB
:1008C0000210B6C3EA9DFAEB9EFBEC9FFC500FC3EF
:1008D000E499F9E49AFAE49BFBE49CFCB2D112118E
:1008E000050210B6021B4F85826685836785F06816
:1008F0008510699008E40215A2C00F85810FE50FED
:1009000024FBF569E50F24FBF886660886670886F0
:10091000689008E41215A2D00F2210980280FBAA5A
:10092000998A82C002121B4FD0028A822220F710BD
:1009300030F6118883A88220F507F6A88375830016
:1009400022F280F7F02212113830D502B2D1BF0066
:1009500009BC00030210FA0210EDBC00030210D71C
:10096000E583B4FF0BE582B4FF030210FA0210D74F
:10097000E582B4FF030210EDC395835007247F4046
:100980000B0210D724801450030210EDC0E0E4CC19
:10099000CBCAF98D178E188F19EF54F0C4F51A755C
:1009A0008306851AF0EB84F582E9C4F9EAC4FAEB10
:1009B000C4FBEC540FC47803D6FC18EBD6FB18EA42
:1009C000D6FA8582F0EDA4A8F0FD8582F0EEA42889
:1009D000FEE435F0F88582F0EFA428FFE435F0F866
:1009E000E99DF9EA9EFAEB9FFBEC98FCAD17AE1877
:1009F000AF1930E7101582E92DF9EA3EFAEB3FFB1B
:100A0000E43CFC80EDC082D58398C3E933F9EA3336
:100A1000FAEB33FBEC33FCC3E99DEA9EEB9FEC94CD
:100A200000B3E413F9D002D0E0C44AFAD003D0E016
:100A3000C44BFBD004D0E0F5F0540FC44CFCD08282
:100A4000158230F40FD3EC13FCEB13FBEA13FAE935
:100A500013F90582E930E70A74012AFAE43BFBE462
:100A60003CFC0210CE20F71430F6148883A88220B4
:100A7000F507E6A88375830022E280F7E49322E07D
:100A800022855882855983121DF6858267E5676045
:100A90000A0561E4B5610605628002D203856782BA
:100AA000227A007B00300305786F760022C002C0F6
:100AB00003120A81AC82D003D002BC0002802DBC9C
:100AC00008028014BC09028023BC0A02801EBC0DEF
:100AD000028019BC20218014EA4B60D11ABAFF01B0
:100AE0001B156174FFB56102156280C1EA4B60BDE0
:100AF000EA246FF8760022EC7009EA246FF8760099
:100B0000D20322ECB56607EA246FF8760022C3EA26
:100B1000940FEB940050968A058B060ABA00010BDD
:100B2000ED246FF8A604020AADAA827B7FC3EA64B3
:100B30008094B0401174B98AF063F08095F040065B
:100B4000EA24D0FB8030C3EA648094C1401174C6AB
:100B50008AF063F08095F0400674C92AFB8017C3C1
:100B6000EA648094E1400F74E68AF063F08095F0C7
:100B7000400474A92AFBC3EB956350038B82227552
:100B8000827F22AA82755D00755E00755F007560C8
:100B9000008A00E6FA60148A82C000120B29AB8238
:100BA000D000C3EB956340030880E886038B82C0C6
:100BB00000120B29AA82D000C3E5639A40508563D6
:100BC00017751800751900751A00855D82855E839A
:100BD000855FF0E560C002C000121B64AB82AC838D
:100BE000ADF0FED000D0028B5D8C5E8D5F8E60E438
:100BF000FBFCFDEA255DFAEB355EFBEC355FFCEDB9
:100C00003560FD8A5D8B5E8C5F8D6008809D855DA3
:100C100082855E83855FF0E56022AA82755D00753E
:100C20005E00755F007560008A00E6FB60228B82C3
:100C3000C003C000120B29AC82D000D003C3EC95D6
:100C400063400DBB2D028008BB2B0280030880DAB5
:100C500088028603BB2D03D38001C39206BB2D02FD
:100C60008003BB2B010A8A82120B83300613C3E474
:100C7000955DFAE4955EFBE4955FFCE49560FD808C
:100C800008AA5DAB5EAC5FAD608A828B838CF0EDB1
:100C900022858258858359E4F561F562F565C203C2
:100CA000AA68AB69AC6A8A828B838CF0120A65FDF4
:100CB00074012AF568E43BF5698C6AEDFA70030269
:100CC000109ABA25028003021033D202C200756363
:100CD00000756400C204C205AB68AC69AD6A8B8262
:100CE0008C838DF0120A65FAA3AB82AC838B688C7F
:100CF000698D6A8B828C838DF0120A65F5668A068F
:100D0000BE300040168A06EE24C6400FE56475F03A
:100D10000AA4FEEA24D02EF56480C38A06BE6100D0
:100D2000400A8A06EE248540035302DFBA2502807A
:100D3000ADBA2A028057BA42028048BA43028052B2
:100D4000BA4403020E56BA4503020E6CBA460302B9
:100D50000E6CBA4703020E6CBA4903020E56BA4C27
:100D6000028025BA4E03020EC1BA4F03020E5CBACE
:100D700053028020BA5503020E54BA5803020E647F
:100D8000020EE9D200020CDED201020CDED2040215
:100D90000CDED205200417E56B24FDF8886B860372
:100DA00008860408860518188B5A8C5B8D5CE564F0
:100DB000700B3005047B0180027BFF8B6475630040
:100DC000C3E56395645005120A81AA82300307E5E2
:100DD000637003020EE9EA601ABA2002800DBA09B4
:100DE000028008BA0D028003BA0A03300505E564E3
:100DF000B5631FE56360C92004120565AB5AAC5B9F
:100E0000AD5C8B828C838DF0E412092D756300023A
:100E10000EE9BA081CE56360A7200411AB5AAC5B6D
:100E2000AD5C1BBBFF011C8B5A8C5B8D5C1563801A
:100E30008F20041BAB5AAC5BAD5C8B828C838DF036
:100E4000EA12092D0BBB00010C8B5A8C5B8D5C05E3
:100E500063020DC0C20275630A020EE9C202756325
:100E600008020EE9C202756310020EE9120AA178A7
:100E70006FE66075200472E56B24FDF8886B866C64
:100E800008866D08866E1818856C5A856D5B856EB0
:100E90005C90006F75F040121BD2AE82AF83ABF056
:100EA000FC856C82856D83856EF0EE12092DA3EFB3
:100EB00012092DA3EB12092DA3EC12092D05658053
:100EC00028E56B24FDF8886B8603088604088605F0
:100ED00018188B5A8C5B8D5C8B828C838DF0E5614E
:100EE00012092DA3E56212092DE563700302103388
:100EF000120AA1786FE67003021033300403021067
:100F000033E56B24FDF8886B8603088604088605A4
:100F100018188B5A8C5B8D5C0565200203020FACA0
:100F2000300135855A6C855B6D855C6E75826F12FC
:100F30000C1AAE82AF83ABF0FC856C82856D838525
:100F40006EF0EE12092DA3EF12092DA3EB12092D5D
:100F5000A3EC12092D021033300026855A6C855BF4
:100F60006D855C6E75826F120C1AAE82AF83ABF02A
:100F7000FC856C82856D83856EF0EE12092D021062
:100F800033855A6C855B6D855C6E75826F120C1AA9
:100F9000AE82AF83ABF0FC856C82856D83856EF08D
:100FA000EE12092DA3EF12092D0210333001348502
:100FB0005A6C855B6D855C6E75826F120B83AE8299
:100FC000AF83ABF0FC856C82856D83856EF0EE128D
:100FD000092DA3EF12092DA3EB12092DA3EC120981
:100FE0002D8050300025855A6C855B6D855C6E7553
:100FF000826F120B83AE82AF83ABF0FC856C82856F
:101000006D83856EF0EE12092D8028855A6C855B04
:101010006D855C6E75826F120B83AE82AF83ABF011
:10102000FC856C82856D83856EF0EE12092DA3EF31
:1010300012092D200303020CA0AB68AC69AD6A8BCA
:10104000828C838DF0120A65FEA3AB82AC838B6821
:101050008C698D6AEEFA7003020CA0BA25E18B82CE
:101060008C838DF0120A65FABA6E028003BA4ECFF5
:10107000E56B24FDF8886B8602088606088607184B
:10108000188A5A8E5B8F5C8A828E838FF0E561129C
:10109000092DA3E56212092D80A5AA657B008A822D
:1010A0008B8322FCABF0AA83A982749EC2D1F58205
:1010B0001211050210B6B98003EA13B34010EA24F6
:1010C00001FAE43BFBE43CFC50047C800582BC005C
:1010D0000EBB000BBA0008E4F5F0F583F58222A2FE
:1010E000D1E582138CF092F78B838A8222E4F58318
:1010F000F58275F080F4A2D11322E4F583F58275B0
:10110000F0C0747F227804EC7011E58224F8500A54
:10111000F582E4C9CACBFCD8EF22EC782005822006
:10112000E713D5820122C3E933F9EA33FAEB33FB43
:10113000EC33FCD8EA158222AA82AB83A2F7339261
:10114000D16002D2F7F582ACF0E58124F9F8E6FD32
:1011500008E6FE0886F008E6A2F73392D56002D2D0
:10116000F7F583AFF022E582C583F582A2D133A2E1
:10117000D592D11392D5ECCFFCEBCEFBEACDFA227F
:101180006040F82582500274FFF582E824F8501E72
:10119000CCCBCAF9E4CC24F85014CBCAF9E4CB2464
:1011A000F8500BCAF9E4CA24F85003790022240845
:1011B0006010F8C3EC13FCEB13FBEA13FAE913F924
:1011C000D8F122AA8274D4C0E07411C0E0C058C023
:1011D000598A8222055FE4B55F02056022AA827403
:1011E000302AFA24C6500A74072AFA300703430249
:1011F000208A820211C3E582FAC4540FF582C0022C
:101200001211DDD002740F5AF5820211DDAA5AAB19
:101210005BAC5CAD5DAE5E756520EE2EFEED2354DD
:1012200001FF4206EA2AFAEB33FBEC33FCED33FD17
:10123000C3EE95614008EEC39561FE430201D5659A
:10124000D98A5A8B5B8C5C8D5D8E5E22787BE6241E
:10125000D075F00AA4FA787CE624D02AFA787A8647
:1012600003BB2D04C3E49AFA756101C3E464808A68
:10127000F063F08095F050297565038A0374F625B4
:1012800065401C0561E56514246FF8E565246FF978
:101290008704A604772E1BEBFA6004056580DE8BBD
:1012A00002EA30E70D787086037871A603787076CD
:1012B0002E0AE563600AE56304FB2561F56180059C
:1012C0003012020561786F8603E4BB2D0104FB70C8
:1012D00006200D03300E020561300B03021393301C
:1012E0000C57EB600C75822DC0021211C3D0028026
:1012F0001C300D0C75822BC0021211C3D002800D60
:10130000300E0A758220C0021211C3D00278708696
:1013100004BC2E0C758230C0021211C3D0021562BB
:10132000AC621562C3E5619C40030213D77582303D
:10133000C0021211C3D00280E7AC621562C3E5613E
:101340009C500C758220C0021211C3D00280EA7832
:101350006F8604BC2D0C75822DC0021211C3D00201
:10136000801C300D0C75822BC0021211C3D002807C
:101370000D300E0A758220C0021211C3D00278709F
:101380008604BC2E52758230C0021211C3D00215E1
:10139000628044EB600E75822DC0021211C3D00230
:1013A00015628020300D0E75822BC0021211C3D041
:1013B000021562800F300E0C758220C0021211C31C
:1013C000D002156278708603BB2E0C758230C00285
:1013D0001211C3D0021562756501C214E565246F50
:1013E000F88603BB4503021494BB2E348A03C3E47E
:1013F00064808BF063F08095F0500F758230C003ED
:101400001211C3D0031B8B0280E48B02D214E5635C
:10141000703820120302149475822E1211C3807446
:101420003014278A03EB30E71FC3E464808563F040
:1014300063F08095F0500C758230C0031211C3D058
:101440000315630B8B0280DD8B0230140EC3E46442
:10145000808563F063F08095F05021E565246FF896
:1014600086038B82C0021211C3D00230140EE565D0
:10147000246FF88603BB2E02800215631562C3E455
:1014800064808563F063F08095F0400320140505C7
:10149000650213DCC3E464808563F063F08095F03B
:1014A000500A7582301211C3156380E8300B0FAA01
:1014B000621562EA60087582201211C380F122E58C
:1014C00063700330120D74072563FAE562C39AF561
:1014D000628006E56224FAF562756500786F86021F
:1014E000BA2B0F200D0C786F7620200E0575650144
:1014F0000562200B19AA62C3E464808AF063F0805D
:1015000095F0500A7582201211C3156280E7C2144B
:10151000E565246FF88602BA00028069BA451F307B
:1015200007027665C3E464808563F063F08095F01C
:10153000500A7582301211C3156380E8D214C3E5D6
:10154000659402E433FA7014EA700EC3E464808593
:1015500063F063F08095F04003301416E565246F66
:10156000F886028A821211C3E56524FD50121563C4
:10157000800E7402B5650930120675822E1211C3F1
:101580000565021510300B19AA62C3E464808AF065
:1015900063F08095F0500A7582201211C3156280A5
:1015A000E722858258858359E4F55FF560AA66AB2A
:1015B00067AC688A828B838CF0120A65FD74012AFD
:1015C000F566E43BF5678C68EDFA7003021B48BAD8
:1015D00025028003021B40C20BC20CC20DC20EC208
:1015E0000FC210C211C212C208C209C20A7561003C
:1015F0007562007563FFAB66AC67AD688B828C83E8
:101600008DF0120A65FAA3AB82AC838B668C678D72
:1016100068BA25078A821211C380928A06BE3000FA
:10162000402E8A06EE24C6402774FFB56313E56298
:1016300075F00AA4FEEA24D02EF56270BFD20C80A9
:10164000BBE56375F00AA4FEEA24D02EF56380ACF6
:10165000BA2E0A74FFB563A4756300809F8A06BE24
:101660006100400E8A06EE248540075302DFD20750
:101670008002C207BA20028075BA23030216FDBA9F
:101680002A03021702BA2B02805FBA2D028055BAD4
:101690004202805FBA4303021747BA44030218822A
:1016A000BA450302189CBA4603021898BA470302C7
:1016B00018A0BA4903021882BA4C02803BBA4E0302
:1016C0000218A4BA4F03021889BA500302181BBAB1
:1016D000530302176BBA550302188EBA5803021847
:1016E000930218CED20B0215FCD20D0215FCD20EBD
:1016F0000215FCD2100215FCD2110215FCD2120206
:1017000015FC74FFB5632030100BE56914F8886987
:1017100086620215FCE56924FEF88869860608865B
:1017200007188E620215FC30100BE56914F8886901
:1017300086630215FCE56924FEF88869860608863A
:1017400007188E630215FC30100AE56914F88869E1
:101750008602800FE56924FEF888698603088604FE
:10176000188B028A821211C30218D3E56924FDF88E
:101770008869860308860408860518188B5A8C5BCE
:101780008D5C8B828C838DF0121F17AB82AC838BA8
:101790006474FFB56303856463200B1DC3E5649522
:1017A000625016E562C39564F562AB621562EB6048
:1017B000087582201211C380F1855A82855B83856A
:1017C0005CF0120A65FBFA6029AB631563C3E4643D
:1017D000808BF063F08095F050188A821211C3ABB1
:1017E0005AAC5BAD5C0BBB00010C8B5A8C5B8D5C07
:1017F00080C7200B030218D3C3E56495624003023F
:1018000018D3E562C39564F562AB621562EB7003B1
:101810000218D37582201211C380EEE56924FDF809
:101820008869860308860408860518188B5A8C5B1D
:101830008D5CE55CFB30E7047A438013EB54606019
:10184000047A50800AEB30E6047A4980027A588A9A
:1018500082C0021211C375823A1211C3758230120E
:1018600011C37582781211C3D002BA4902800BBA33
:1018700050028006855B821211F6855A821211F69B
:101880008051D20F75610A804A7561088045756183
:101890000A8040756110803BD2088037D2098033BE
:1018A000D20A802FE56924FDF8886986030886043A
:1018B00008860518188B5A8C5B8D5C8B828C838D07
:1018C000F0E55F12092DA3E56012092D80058A82DB
:1018D0001211C3200806200903300A70E56924FCB0
:1018E000F88869860308860408860508860618189D
:1018F000188B5A8C5B8D5C8E5DE55AE55BE55CE58B
:101900005D8B828C838DF0EE121DF874FFB563033E
:10191000756306300A27747F555DFB8B5EE55EEBD1
:101920002BFB8B5EE55C30E7067401455EF55EE5FA
:101930005E246840067499255E4002D2093009068B
:101940001214BF0215AD12124C0215ADE561700301
:101950000215AD7B7430102BE56914F88869E6FC3C
:101960003395E0FDFEFF8C5A8D5B8E5C8F5D200F02
:101970005EAC5A7D007E007F008C5A8D5B8E5C8F42
:101980005D804C30111FE56924FCF88869860408E5
:1019900086050886060886071818188C5A8D5B8EEF
:1019A0005C8F5D802AE56924FEF8886986040886D4
:1019B0000518ED3395E0FEFF8C5A8D5B8E5C8F5DD4
:1019C000200F0CAC5AAD5B7E007F008E5C8F5D30CB
:1019D0001243E55A455B455C455D60397408B56165
:1019E0000C758230C0031211C3D00380287410B567
:1019F0006123758230C0031211C3D00330070C7508
:101A00008278C0031211C3D003800A758258C003C4
:101A10001211C3D003300F25AC5AAD5BAE5CE55D4F
:101A2000FF30E717C3E49CFCE49DFDE49EFEE49FC9
:101A3000FF8C5A8D5B8E5C8F5D8002C20F756400D7
:101A4000D2138B00755E00C00012120DD00020135F
:101A50000DE55EC4FCE6FD4CF61888038002A65E28
:101A60000564B213E55A455B455C455D70D6880355
:101A7000E5627003756201200C1A200B17E56404FF
:101A8000FCC39562500E758220C0031211C3D003AF
:101A9000156280E9300F0E75822DC0031211C3D07C
:101AA0000315628024E5646020300D0E75822BC022
:101AB000031211C3D0031562800F300E0C75822003
:101AC000C0031211C3D0031562200B1EAC62156255
:101AD000C3E5649C5027300C047C3080027C208C51
:101AE00082C0031211C3D00380E2C3E56495625043
:101AF00009E562C39564F56280037562008B00ABF3
:101B0000641564EB6022B21320130A08E6C4540F74
:101B1000FB8B5E80078603740F5BF55E855E82C07B
:101B2000001211DDD00080D7200B030215ADAB628F
:101B30001562EB70030215AD7582201211C380EEA1
:101B40008A821211C30215AD855F8285608322AA45
:101B500082BA0A0810990280FB75990D10990280CB
:101B6000FB8A9922AAF0FBE5828517F0A4FCADF070
:101B7000E5838517F0A42DFDE435F0FEE582851898
:101B8000F0A42DFDE5F03EFEE433FFEA8517F0A456
:101B90002EFEE5F03FFFE5838518F0A42EFEE5F06C
:101BA0003FFFE5828519F0A42EFEE5F03FFFEB85AF
:101BB00017F0A42FFFEA8518F0A42FFFE5838519FD
:101BC000F0A42FFFE582851AF0A42F8EF08D838C70
:101BD0008222AA82AB83ACF0751500751600C2177D
:101BE0008A058B068C078D828E838FF0120A65F82A
:101BF000B820028003B809070DBD00EA0E80E78D0A
:101C0000028E038F04B82D0DD21574012DFAE43E17
:101C1000FB8F04800EC215B82B0974012DFAE43E27
:101C2000FB8F047511007512007513007514008A7E
:101C3000058B068C078D828E838FF0120A65F8F96A
:101C4000B930004005E824C650128D828E838FF093
:101C5000120A65F8B82E028003021D078D828E835A
:101C60008FF0120A65F9B92E05D217021CFFC005C4
:101C7000C006C007C005C006C007C001C011C01221
:101C8000C013C01490000075F02074411207E8855D
:101C9000821185831285F013F514E58124FCF5810A
:101CA000D001D007D006D005E93395E0FDE924D076
:101CB000F582ED34FFF583121F3FAD82AE83AFF0A6
:101CC000F9C005C006C007C005C006C007C0018531
:101CD00011828512838513F0E51412088B85821119
:101CE00085831285F013F514E58124FCF581D00776
:101CF000D006D005D007D006D00530170215150D37
:101D0000BD00010E021C355300DF8D828E838FF0E3
:101D1000E812092DB8456274012DFAE43EFB8F04E8
:101D20008A828B838CF0120A65FDBD2D09D2160ABA
:101D3000BA000D0B800AC216BD2B050ABA00010BB2
:101D40007516008A828B838CF0120A65FDFEBE3008
:101D500000401D8D06EE24C64016E51675F00AA457
:101D6000F516ED24D02516F5160ABA00D60B80D349
:101D7000301606C3E49516F516E5152516F516E595
:101D8000166055E51630E728C011C012C013C01404
:101D900090CCCD75F0CC743D1207E8858211858317
:101DA0001285F013F514E58124FCF581051680CF2A
:101DB000C011C012C013C01490000075F02074410F
:101DC0001207E885821185831285F013F514E581E9
:101DD00024FCF581151680A730150F851111851289
:101DE00012851313E514B2E7F51485118285128369
:101DF0008513F0E51422E473C0E0F845824583457D
:101E0000F07009F5F0FBFCFDFE021EC6E823A2F708
:101E100092E0F8A982AA83D2F7ABF07C007E07C3D8
:101E2000749798404074FF2EFE740A89F0A4F985D7
:101E3000F082740A8AF0A4FA85F083740A8BF0A405
:101E4000FB740529F9EA3582FAEB3583FB7400351A
:101E5000F0FCC3EC13FCEB13FBEA13FAE913F908EB
:101E6000EC70EF80BAE8C3947FF88B838EF0E4FBCC
:101E7000FCFDFEFF08C3E933F9EA33FAE58333F5E5
:101E800083EB3BD4FBEC3CD4FCED3DD4FDEE3ED4E7
:101E9000FEEF3FD4FF602D05F074052BD4FBE43C2E
:101EA000D4FCE43DD4FDE43ED4FEE43FD4FF75828F
:101EB00004C3EF13FFEE13FEED13FDEC13FCEB1365
:101EC000FBD582EDD8AF786FD0E020E704762B8089
:101ED00002762D087906E7C4540F4430F608B90697
:101EE00003762E08E7540F4430F60819B902E77656
:101EF0004508E5F020E704762B8004762DF40408ED
:101F000075F00A844430F608E5F04430F608E4F64B
:101F100090006F75F04022AA82AB83ACF07D007E0A
:101F2000008A828B838CF0120A65FFA3AA82AB839E
:101F3000EF60070DBD00EA0E80E78D828E8322AC34
:101F400083AB827A007900748E021F55FCABF0AA35
:101F500083A982749EF582C2D1EC30E716D2D1E912
:101F6000F42401F9EAF43400FAEBF43400FBECF465
:101F70003400FC1211050210B60000000000000041
:00000001FF
