:100000000200761B5B324A00562850312E34293DBF
:1000100025342E3266562C20562850302E32293D5B
:1000200025342E3266560D0000000002016875224C
:1000300001752301752400752500E4F526F52722B6
:1000700000000002020E7581541200E7E582600361
:100080000200E2780079007A007B007C007D00ECC1
:100090004D601C88828983E493A3A882A9838A8205
:1000A0008B83F0A3AA82AB831CBCFFE31D80E075A9
:1000B00082007583007C007D00EC4D600AE4F0A3B3
:1000C0001CBCFFF51D80F27582007583007C007DED
:1000D00000EC4D600AE4F0A31CBCFFF51D80F21299
:1000E000002E12037B80FE75A7007597DE7597AD15
:1000F00075FF8075EF0675A71075C12075A700758F
:10010000A90075A900E5A930E7FB75A90375A90346
:10011000E5A930E7FB43A41075E10175E20275E340
:1001200040759810758DE6858D8B53890F43892016
:10013000D28ED29975C800438E1075CA6075CB7384
:1001400075CEFF75CFFFD2ADD2CA759100438E40F8
:100150007592B07593B97594FF7595FF43E680432A
:100160009104D2AF75820022C0E0C0D075D0007576
:10017000A700C2CF7403B525028003020207B2A50F
:100180007525007401B52336E524700AD2A1D2A2E8
:10019000C2A3C2A4805C7401B5240AC2A1D2A2D2B7
:1001A000A3C2A4804D7402B5240AC2A1C2A2D2A3E4
:1001B000D2A4803ED2A1C2A2C2A3D2A48034E5249C
:1001C000700AD2A1C2A2C2A3D2A480267401B5240F
:1001D0000AC2A1C2A2D2A3D2A480177402B5240A73
:1001E000C2A1D2A2D2A3C2A48008D2A1D2A2C2A389
:1001F000D2A405240526E4B526020527E52424FC1F
:10020000500775240080020525D0D0D0E03275A7B4
:100210000053913F7522013285822A85832B85F018
:100220002CE4F52DF52EE52824FFFFE52934FFF811
:1002300079007A00C3E99FEA648088F063F08095D2
:10024000F05059C002C007C000C00112069EAB8228
:10025000D001D000D007D002BB0A028003BB0D1D25
:10026000E52D252AFCE52E352BFDAE2C8C828D83C9
:100270008EF0E41206B1852D82852E8322E9252A8F
:10028000FCEA352BFDAE2C8C828D838EF0EB1206B2
:10029000B109B900010A892D8A2E8098E52D252AF9
:1002A000FAE52E352BFBAC2C8A828B838CF0E41282
:1002B00006B18528828529832275A70075B28075CD
:1002C000BCF875B91E75E80075DF3F75B300D2EF55
:1002D000228582BBD2EC20ECFDD2EC20ECFD85BD6A
:1002E0008285BE83221202D1120560AA82AB83AC42
:1002F000F0FDC002C003C004C005909FBE75F0525F
:10030000744012056CAA82AB83ACF0FDE58124FC3D
:10031000F581E4C0E074FCC0E0747FC0E07446C0C6
:10032000E08A828B838CF0ED1206D5AA82AB83AC77
:10033000F0FDE58124FCF5818A828B838CF0ED222F
:1003400075A70075960075D90075F700759C007546
:100350009E0075D84075DA4275FCCD75DB4275EAB2
:10036000802243D4CF75A72053F1FB53F2EF75A73A
:100370000043D57F43A67F43A58022E4F53FF540A7
:10038000FCFDC004C0057403C0E07400C0E07480CC
:10039000C0E012067D1581158115811203621203DA
:1003A000401202B9D005D0047401B522FB752200B9
:1003B000C3EC9432ED6480948050070CBC00E90DCE
:1003C00080E6C3E53F9414E54064809480400302D6
:1003D0000465853741853842853943853A447582BD
:1003E0000A1202E5AA82AB83AEF0FFC002C003C0CE
:1003F00006C0078541828542838543F0E5441206A5
:100400000FAA82AB83AEF0FFE58124FCF5818A3729
:100410008B388E398F3A853B41853C42853D4385FB
:100420003E447582011202E5AA82AB83AEF0FFC0A2
:1004300002C003C006C0078541828542838543F020
:10044000E54412060FAA82AB83AEF0FFE58124FCDF
:10045000F5818A3B8B3C8E3D8F3E053FE4B53F02E4
:100460000540020559E4C0E0C0E074A0C0E074415A
:10047000C0E08537828538838539F0E53A1206D5A4
:10048000AA82AB83AEF0FFE58124FCF58174B8C08D
:10049000E0741EC0E07405C0E0743EC0E08A828B48
:1004A000838EF0EF1206CA85824185834285F04330
:1004B000F544E58124FCF58185412F854230854353
:1004C00031854432E4C0E0C0E074A0C0E07441C0B3
:1004D000E0853B82853C83853DF0E53E1206D5AA4A
:1004E00082AB83AEF0FFE58124FCF58174B8C0E0F7
:1004F000741EC0E07405C0E0743EC0E08A828B8345
:100500008EF0EF1206CAAA82AB83AEF0FFE581241B
:10051000FCF5818A338B348E358F36C002C003C020
:1005200006C007C041C042C043C0447408C0E07464
:1005300000C0E07480C0E012067DE58124F5F581FD
:10054000E4F53FF540F537F538F539F53A753B00F8
:10055000753C00753D00753E007C007D000203A8DF
:10056000E4AC83AB82FAF9748E0207FD120889BCF1
:100570000003020828EF60FA30D502B2D1E583B457
:10058000FF0302083EE582B4FF0302083E258340D4
:10059000072482400B020828248314500302083EDB
:1005A000F582EA8DF0A4A8F0EA8EF0A428F8E435EC
:1005B000F0F9EB8DF0A428E935F0F9E433CA8FF0B7
:1005C000A429F9EA35F0FAEBF88EF0A429F9EA3516
:1005D000F0FAE433FBEC8DF0A429F9EA35F0FAE403
:1005E0003BFBE88FF0A42AFAEB35F0FBE433CCFDBB
:1005F0008EF0A42AFAEB35F0FBE43CFCED8FF0A47E
:100600002BFBEC35F0FC20E703120856020807121A
:1006100008897900E583B58202800D50031208B77E
:10062000E583C395821208D1E5D0C465D020E117D7
:10063000EA2DFAEB3EFBEC3FFC500974011208D1A5
:10064000EC4480FC020807C3EA9DFAEB9EFBEC9F9A
:10065000FC500FC3E499F9E49AFAE49BFBE49CFC98
:10066000B2D11208560208070212A08582188583AB
:100670001985F01A85091B900668020CF3C00885DD
:100680008108E50824FBF51BE50824FBF88618081B
:10069000861908861A900668120CF3D00822109862
:1006A0000280FBAA998A82C0021212A0D0028A821A
:1006B0002220F71030F6118883A88220F507F6A8CB
:1006C0008375830022F280F7F022A8811818C6B241
:1006D000E7C602060F12088930D502B2D1BF000961
:1006E000BC000302084B02083EBC0003020828E5D8
:1006F00083B4FF0BE582B4FF0302084B020828E530
:1007000082B4FF0302083EC395835007247F400B49
:10071000020828248014500302083EC0E0E4CCCB39
:10072000CAF98D1C8E1D8F1EEF54F0C4F51F758302
:1007300006851FF0EB84F582E9C4F9EAC4FAEBC43C
:10074000FBEC540FC47803D6FC18EBD6FB18EAD6A2
:10075000FA8582F0EDA4A8F0FD8582F0EEA428FED3
:10076000E435F0F88582F0EFA428FFE435F0F8E9ED
:100770009DF9EA9EFAEB9FFBEC98FCAD1CAE1DAF19
:100780001E30E7101582E92DF9EA3EFAEB3FFBE453
:100790003CFC80EDC082D58398C3E933F9EA33FA93
:1007A000EB33FBEC33FCC3E99DEA9EEB9FEC94003A
:1007B000B3E413F9D002D0E0C44AFAD003D0E0C4C5
:1007C0004BFBD004D0E0F5F0540FC44CFCD08215A4
:1007D0008230F40FD3EC13FCEB13FBEA13FAE913AA
:1007E000F90582E930E70A74012AFAE43BFBE43CAC
:1007F000FC02081FFCABF0AA83A982749EC2D1F54B
:1008000082120856020807B98003EA13B34010EABF
:100810002401FAE43BFBE43CFC50047C800582BCF0
:10082000000EBB000BBA0008E4F5F0F583F5822258
:10083000A2D1E582138CF092F78B838A8222E4F5B1
:1008400083F58275F080F4A2D11322E4F583F5825A
:1008500075F0C0747F227804EC7011E58224F850A2
:100860000AF582E4C9CACBFCD8EF22EC78200582D5
:1008700020E713D5820122C3E933F9EA33FAEB33D7
:10088000FBEC33FCD8EA158222AA82AB83A2F733B1
:1008900092D16002D2F7F582ACF0E58124F9F8E656
:1008A000FD08E6FE0886F008E6A2F73392D560025E
:1008B000D2F7F583AFF022E582C583F582A2D1336A
:1008C000A2D592D11392D5ECCFFCEBCEFBEACDFAB8
:1008D000226040F82582500274FFF582E824F85027
:1008E0001ECCCBCAF9E4CC24F85014CBCAF9E4CB23
:1008F00024F8500BCAF9E4CA24F8500379002224E2
:10090000086010F8C3EC13FCEB13FBEA13FAE913CD
:10091000F9D8F122AA827425C0E07409C0E0C00AA7
:10092000C00B8A82220511E4B51102051222AA82A7
:1009300074302AFA24C6500A74072AFA3000034396
:1009400002208A82020914E582FAC4540FF582C09B
:100950000212092ED002740F5AF58202092EAA0C37
:10096000AB0DAC0EAD0FAE10751720EE2EFEED23C5
:100970005401FF4206EA2AFAEB33FBEC33FCED3379
:10098000FDC3EE95134008EEC39513FE430201D557
:1009900017D98A0C8B0D8C0E8D0F8E10227851E694
:1009A00024D075F00AA4FA7852E624D02AFA7850B6
:1009B0008603BB2D04C3E49AFA751301C3E4648073
:1009C0008AF063F08095F050297517038A0374F656
:1009D0002517401C0513E517142445F8E517244591
:1009E000F98704A604772E1BEBFA6004051780DE56
:1009F0008B02EA30E70D784686037847A6037846EF
:100A0000762E0AE515600AE51504FB2513F513801B
:100A100005300B02051378458603E4BB2D0104FB6A
:100A200070062006033007020513300403020AE4AF
:100A3000300557EB600C75822DC002120914D002EC
:100A4000801C30060C75822BC002120914D0028063
:100A50000D30070A758220C002120914D0027846B0
:100A60008604BC2E0C758230C002120914D0021507
:100A700014AC141514C3E5139C4003020B287582B3
:100A800030C002120914D00280E7AC141514C3E57B
:100A9000139C500C758220C002120914D00280EA07
:100AA00078458604BC2D0C75822DC002120914D025
:100AB00002801C30060C75822BC002120914D00271
:100AC000800D30070A758220C002120914D0027806
:100AD000468604BC2E52758230C002120914D00220
:100AE00015148044EB600E75822DC002120914D0DB
:100AF000021514802030060E75822BC002120914D4
:100B0000D0021514800F30070C758220C002120924
:100B100014D002151478468603BB2E0C758230C0A3
:100B200002120914D0021514751701C20DE517241D
:100B300045F88603BB4503020BE5BB2E348A03C38D
:100B4000E464808BF063F08095F0500F758230C0C4
:100B500003120914D0031B8B0280E48B02D20DE533
:100B6000157038200B03020BE575822E12091480D4
:100B700074300D278A03EB30E71FC3E464808515CA
:100B8000F063F08095F0500C758230C003120914A8
:100B9000D00315150B8B0280DD8B02300D0EC3E4E4
:100BA00064808515F063F08095F05021E5172445A9
:100BB000F886038B82C002120914D002300D0EE5B4
:100BC000172445F88603BB2E02800215151514C3A1
:100BD000E464808515F063F08095F04003200D05F6
:100BE0000517020B2DC3E464808515F063F0809532
:100BF000F0500A758230120914151580E830040F80
:100C0000AA141514EA600875822012091480F122D2
:100C1000E5157003300B0D74072515FAE514C39A1A
:100C2000F5148006E51424FAF51475170078458646
:100C300002BA2B0F20060C78457620200705751781
:100C4000010514200419AA14C3E464808AF063F037
:100C50008095F0500A758220120914151480E7C29D
:100C60000DE5172445F88602BA00028069BA451FCF
:100C70003000027665C3E464808515F063F08095EA
:100C8000F0500A758230120914151580E8D20DC390
:100C9000E5179402E433FA7014EA700EC3E464803A
:100CA0008515F063F08095F04003300D16E51724AC
:100CB00045F886028A82120914E51724FD501215A0
:100CC00015800E7402B51709300B0675822E1209B5
:100CD000140517020C61300419AA14C3E464808A55
:100CE000F063F08095F0500A7582201209141514F3
:100CF00080E72285820A85830BE4F511F512AA1894
:100D0000AB19AC1A8A828B838CF01212B5FD740178
:100D10002AF518E43BF5198C1AEDFA7003021299C2
:100D2000BA25028003021291C204C205C206C2079C
:100D3000C208C209C20AC20BC201C202C2037513B1
:100D4000007514007515FFAB18AC19AD1A8B828CA9
:100D5000838DF01212B5FAA3AB82AC838B188C1979
:100D60008D1ABA25078A8212091480928A06BE302B
:100D700000402E8A06EE24C6402774FFB51513E501
:100D80001475F00AA4FEEA24D02EF51470BFD20523
:100D900080BBE51575F00AA4FEEA24D02EF5158077
:100DA000ACBA2E0A74FFB515A4751500809F8A068B
:100DB000BE6100400E8A06EE248540075302DFD252
:100DC000008002C200BA20028075BA2303020E4ED0
:100DD000BA2A03020E53BA2B02805FBA2D02805545
:100DE000BA4202805FBA4303020E98BA4403020F6C
:100DF000D3BA4503020FEDBA4603020FE9BA47031F
:100E0000020FF1BA4903020FD3BA4C02803BBA4E2B
:100E100003020FF5BA4F03020FDABA5003020F6C48
:100E2000BA5303020EBCBA5503020FDFBA580302CD
:100E30000FE402101FD204020D4DD206020D4DD256
:100E400007020D4DD209020D4DD20A020D4DD20BF3
:100E5000020D4D74FFB5152030090BE51B14F88801
:100E60001B8614020D4DE51B24FEF8881B86060820
:100E70008607188E14020D4D30090BE51B14F888F7
:100E80001B8615020D4DE51B24FEF8881B860608FF
:100E90008607188E15020D4D30090AE51B14F888D7
:100EA0001B8602800FE51B24FEF8881B860308863C
:100EB00004188B028A82120914021024E51B24FDF7
:100EC000F8881B860308860408860518188B0C8C86
:100ED0000D8D0E8B828C838DF01213F0AB82AC8360
:100EE0008B1674FFB5150385161520041DC3E51672
:100EF00095145016E514C39516F514AB141514EBA0
:100F0000600875822012091480F1850C82850D839A
:100F1000850EF01212B5FBFA6029AB151515C3E466
:100F200064808BF063F08095F050188A8212091467
:100F3000AB0CAC0DAD0E0BBB00010C8B0C8C0D8DF6
:100F40000E80C7200403021024C3E5169514400345
:100F5000021024E514C39516F514AB141514EB70A8
:100F60000302102475822012091480EEE51B24FD73
:100F7000F8881B860308860408860518188B0C8CD5
:100F80000D8D0EE50EFB30E7047A438013EB5460C1
:100F900060047A50800AEB30E6047A4980027A587D
:100FA0008A82C00212091475823A120914758230BD
:100FB000120914758278120914D002BA4902800B02
:100FC000BA50028006850D82120947850C821209EB
:100FD000478051D20875130A804A751308804575F9
:100FE000130A8040751310803BD2018037D20280F3
:100FF00033D203802FE51B24FDF8881B8603088667
:101000000408860518188B0C8C0D8D0E8B828C8332
:101010008DF0E5111206B1A3E5121206B180058A22
:1010200082120914200106200203300370E51B24FC
:10103000FCF8881B860308860408860508860618BF
:1010400018188B0C8C0D8D0E8E0FE50CE50DE50E32
:10105000E50F8B828C838DF0EE1212D174FFB515E3
:1010600003751506300327747F550FFB8B10E510B1
:10107000EB2BFB8B10E50E30E70674014510F510E5
:10108000E51024684006749925104002D20230020F
:1010900006120C10020CFE12099D020CFEE51370E4
:1010A00003020CFE7B4A30092BE51B14F8881BE673
:1010B000FC3395E0FDFEFF8C0C8D0D8E0E8F0F2006
:1010C000085EAC0C7D007E007F008C0C8D0D8E0EBA
:1010D0008F0F804C300A1FE51B24FCF8881B860408
:1010E0000886050886060886071818188C0C8D0DCA
:1010F0008E0E8F0F802AE51B24FEF8881B860408BD
:10110000860518ED3395E0FEFF8C0C8D0D8E0E8F4D
:101110000F20080CAC0CAD0D7E007F008E0E8F0FE3
:10112000300B43E50C450D450E450F60397408B58D
:10113000130C758230C003120914D0038028741078
:10114000B51323758230C003120914D00330000C8C
:10115000758278C003120914D003800A758258C0C2
:1011600003120914D003300825AC0CAD0DAE0EE50A
:101170000FFF30E717C3E49CFCE49DFDE49EFEE412
:101180009FFF8C0C8D0D8E0E8F0F8002C20875167E
:1011900000D20C8B00751000C00012095ED0002038
:1011A0000C0DE510C4FCE6FD4CF61888038002A681
:1011B000100516B20CE50C450D450E450F70D6888E
:1011C00003E514700375140120051A200417E516B1
:1011D00004FCC39514500E758220C003120914D06C
:1011E00003151480E930080E75822DC0031209140E
:1011F000D00315148024E516602030060E75822B6E
:10120000C003120914D0031514800F30070C758227
:1012100020C003120914D003151420041EAC1415A9
:1012200014C3E5169C50273005047C3080027C20D6
:101230008C82C003120914D00380E2C3E516951412
:101240005009E514C39516F51480037514008B003E
:10125000AB161516EB6022B20C200C0A08E6C4543B
:101260000FFB8B1080078603740F5BF510851082CF
:10127000C00012092ED00080D7200403020CFEAB60
:10128000141514EB7003020CFE75822012091480F1
:10129000EE8A82120914020CFE85118285128322C5
:1012A000AA82BA0A0810990280FB75990D1099025A
:1012B00080FB8A992220F71430F6148883A88220B4
:1012C000F507E6A88375830022E280F7E49322E025
:1012D00022C0E0F84582458345F07009F5F0FBFC3B
:1012E000FDFE02139FE823A2F792E0F8A982AA83E9
:1012F000D2F7ABF07C007E07C3749798404074FF30
:101300002EFE740A89F0A4F985F082740A8AF0A48A
:10131000FA85F083740A8BF0A4FB740529F9EA3589
:1013200082FAEB3583FB740035F0FCC3EC13FCEB65
:1013300013FBEA13FAE913F908EC70EF80BAE8C37B
:10134000947FF88B838EF0E4FBFCFDFEFF08C3E97D
:1013500033F9EA33FAE58333F583EB3BD4FBEC3C1A
:10136000D4FCED3DD4FDEE3ED4FEEF3FD4FF602D26
:1013700005F074052BD4FBE43CD4FCE43DD4FDE43F
:101380003ED4FEE43FD4FF758204C3EF13FFEE1397
:10139000FEED13FDEC13FCEB13FBD582EDD8AF781B
:1013A00045D0E020E704762B8002762D087906E709
:1013B000C4540F4430F608B90603762E08E7540FDC
:1013C0004430F60819B902E7764508E5F020E7044D
:1013D000762B8004762DF4040875F00A844430F6E8
:1013E00008E5F04430F608E4F690004575F0402238
:1013F000AA82AB83ACF07D007E008A828B838CF066
:101400001212B5FFA3AA82AB83EF60070DBD00EAFD
:101410000E80E78D828E8322000000000000000015
:00000001FF
