:1000000002002E752301E4F524F525E4F526F527F5
:1000100022000000000000000000000000000000BE
:1000200000000000000000000000000201F97581DE
:100030008F120166E582600302009A780079007AE7
:10004000007B007C007D00EC4D601C88828983E48D
:1000500093A3A882A9838A828B83F0A3AA82AB830D
:100060001CBCFFE31D80E07582007583007C007D71
:1000700000EC4D600AE4F0A31CBCFFF51D80F27596
:1000800082007583007C007D00EC4D600AE4F0A3E3
:100090001CBCFFF51D80F212000312084680FE56BC
:1000A0002850312E34293D25342E3266562C2056C8
:1000B0002850312E35293D25342E3266562C2056B7
:1000C0002850312E36293D25352E3266560D001B1F
:1000D0005B324A0050696E20636F6E6669677572A5
:1000E0006174696F6E20646F6E652E0A0050434123
:1000F00020636F6E66696775726174696F6E2064E4
:100100006F6E652E0A0041444320636F6E66696717
:1001100075726174696F6E20646F6E652E0A000AD5
:1001200000456E74657220646972656374696F6EF0
:10013000206F6620726F746174696F6E3A0A0025D1
:1001400063004D6F76696E6720666F7277617264C7
:100150002E0A004D6F76696E67206261636B77616E
:100160007264732E0A0075A7007597DE7597AD75DA
:10017000FF8075EF0675A71075C12075A70075A9DA
:100180000075A900E5A930E7FB75A90375A903E58A
:10019000A930E7FB43A41075E10175E20275E34065
:1001A000759810758DE6858D8B53890F438920D204
:1001B0008ED29975C800438E1075CAC075CBE6758E
:1001C000CEFF75CFFFD2ADD2CAD2AF75820022AAC0
:1001D00082438E407592B87593FF8592948593956E
:1001E0007591047B00C3EB9A500BE59130E7FB530C
:1001F000917F0B80F07591002275A700C2CF752307
:100200000132AA82AB837C007D00C3EC9AED9B5047
:100210002B7E00BE0400501D7582FAC002C003C0D0
:1002200004C005C0061201CFD006D005D004D0030B
:10023000D0020E80DE0CBC00D10D80CE2285822A39
:1002400085832B85F02CE4F52DF52EE52824FFFF82
:10025000E52934FFF879007A00C3E99FEA648088D1
:10026000F063F08095F05059C002C007C000C00193
:10027000120B62AB82D001D000D007D002BB0A02C1
:100280008003BB0D1DE52D252AFCE52E352BFDAE8B
:100290002C8C828D838EF0E4120B75852D82852E39
:1002A0008322E9252AFCEA352BFDAE2C8C828D8336
:1002B0008EF0EB120B7509B900010A892D8A2E8088
:1002C00098E52D252AFAE52E352BFBAC2C8A828B5E
:1002D000838CF0E4120B758528828529832275A70B
:1002E0000075B28075BCF875B91E75E80075DF3F02
:1002F00075B300D2EF228582BBD2EC20ECFDD2ECAC
:1003000020ECFD85BD8285BE83221202F6120A24EE
:10031000AA82AB83ACF0FDC002C003C004C005904C
:100320009FBE75F0527440120A30AA82AB83ACF0C3
:10033000FDE58124FCF581E4C0E074FCC0E0747F3D
:10034000C0E07446C0E08A828B838CF0ED120B8E85
:10035000AA82AB83ACF0FDE58124FCF5818A828B17
:10036000838CF0ED2275A70075960075D90075F79E
:1003700000759C00759E0075D84075DA4275FC408A
:1003800075DB4275EA8022AA82BA4656E4B5240695
:10039000E4B5250280247401B52406E4B525028065
:1003A000237402B52406E4B5250280227403B52423
:1003B00006E4B525028021020435D2A1D2A2C2A34F
:1003C000C2A48071C2A1D2A2D2A3C2A48067C2A1DA
:1003D000C2A2D2A3D2A4805DD2A1C2A2C2A3D2A43F
:1003E0008053E4B52406E4B5250280237401B524C6
:1003F00006E4B5250280227402B52406E4B5250280
:1004000080217403B52406E4B5250280208026D21D
:10041000A1C2A2C2A3D2A4801CC2A1C2A2D2A3D252
:10042000A48012C2A1D2A2D2A3C2A48008D2A1D217
:10043000A2C2A3C2A40524E4B5240205250526E42E
:10044000B526020527C374039524E464808525F04E
:1004500063F08095F05005E4F524F5252243D4CFD0
:1004600075A72053F28F75A70043D57F43A67F431E
:10047000A5802285823585833685F0371209A4FD53
:10048000A31209A4FEC3ED94F4EE648094814003AA
:10049000020630AD2FAE30AF318D828E838FF012D9
:1004A00009A4F538A31209A4F539A31209A4F53A51
:1004B000A31209A4F53B75820AC005C006C0071245
:1004C000030AAC82AA83ABF0F8C004C002C003C028
:1004D00000853882853983853AF0E53B120AD3AA34
:1004E00082AB83ACF0F8E58124FCF581D007D0061F
:1004F000D0058D828E838FF0EA120B75A3EB120B61
:1005000075A3EC120B75A3E8120B7574042DF53866
:10051000E43EF5398F3A853882853983853AF01281
:1005200009A4F53CA31209A4F53DA31209A4F53EC4
:10053000A31209A4F53F75820BC005C006C00712BF
:10054000030AAC82AA83ABF0F8C004C002C003C0A7
:1005500000853C82853D83853EF0E53F120AD3AAA3
:1005600082AB83ACF0F8E58124FCF581D007D0069E
:10057000D005853882853983853AF0EA120B75A358
:10058000EB120B75A3EC120B75A3E8120B75740834
:100590002DFDE43EFE8D828E838FF01209A4F53C82
:1005A000A31209A4F53DA31209A4F53EA31209A4C0
:1005B000F53F75820CC005C006C00712030AA98268
:1005C000AA83ABF0FCC001C002C003C004853C821A
:1005D000853D83853EF0E53F120AD3AA82AB83AC0A
:1005E000F0F8E58124FCF581D007D006D0058D8296
:1005F0008E838FF0EA120B75A3EB120B75A3EC122E
:100600000B75A3E8120B758535828536838537F027
:100610001209A4FAA31209A4FB0ABA00010B85353A
:10062000828536838537F0EA120B75A3EB020B75D2
:1006300085323C85333D85343EAD2FAE30AF318DB4
:10064000828E838FF01209A4F8A31209A4F9A312D1
:1006500009A4FAA31209A4FBC005C006C007E4C0A0
:10066000E0C0E074FAC0E07443C0E0888289838A05
:10067000F0EB120B8E85823885833985F03AF53B95
:10068000E58124FCF581D007D006D005853C828524
:100690003D83853EF0E538120B75A3E539120B75E5
:1006A000A3E53A120B75A3E53B120B757404253CC8
:1006B000F540E4353DF541853E4274042DF543E4B3
:1006C0003EF5448F458543828544838545F0120974
:1006D000A4FBA31209A4F9A31209A4FAA31209A462
:1006E000FCC005C006C007E4C0E0C0E074FAC0E08A
:1006F0007443C0E08B8289838AF0EC120B8E858272
:100700004685834785F048F549E58124FCF581D08D
:1007100007D006D0058540828541838542F0E546B5
:10072000120B75A3E547120B75A3E548120B75A3D1
:10073000E549120B757408253CF540E4353DF5415B
:10074000853E4274082DF53CE43EF53D8F3E853CE8
:1007500082853D83853EF01209A4FBA31209A4F90A
:10076000A31209A4FAA31209A4FCC005C006C0077D
:10077000E4C0E0C0E074FAC0E07443C0E08B82895A
:10078000838AF0EC120B8EAA82AB83ACF0F8E58181
:1007900024FCF5818540828541838542F0EA120B75
:1007A00075A3EB120B75A3EC120B75A3E8120B7576
:1007B000C002C003C004C000C046C047C048C04912
:1007C000C038C039C03AC03B749FC0E07400C0E07C
:1007D0007480C0E0120B41E58124F1F581D007D08F
:1007E00006D0058535828536838537F0E4120B7592
:1007F000A3E4120B758D828E838FF0E4120B75A328
:10080000E4120B75A3E4120B75A3E4120B75854378
:10081000828544838545F0E4120B75A3E4120B75C1
:10082000A3E4120B75A3E4120B75853C82853D830E
:10083000853EF0E4120B75A3E4120B75A3E4120BD2
:1008400075A3E4020B75E4F567F568FAFBC002C016
:100850000374CFC0E07400C0E07480C0E0120B41AC
:1008600015811581158112045D74D4C0E07400C037
:10087000E07480C0E0120B411581158115811203CF
:100880006574EDC0E07400C0E07480C0E0120B41FC
:100890001581158115811202DE7406C0E07401C055
:1008A000E07480C0E0120B41158115811581741F21
:1008B000C0E07401C0E07480C0E0120B41158115E6
:1008C0008115817421C0E07401C0E07480C0E01221
:1008D0000B41158115811581752804E4F5299000D7
:1008E0006275F04012023D7466C0E07400C0E074AE
:1008F00040C0E0743FC0E07401C0E07480C0E074A8
:1009000062C0E07400C0E07440C0E01209F6E58106
:1009100024F7F581D003D0027446B5661FC002C02B
:10092000037442C0E07401C0E07480C0E0120B4167
:10093000158115811581D003D002801DC002C0032E
:100940007453C0E07401C0E07480C0E0120B411524
:100950008115811581D003D0027401B52321C3EA2A
:10096000940FEB6480948050070ABA000F0B800C40
:10097000856682120387B2A57A007B007523007515
:100980002F5675300075314075324A753300753415
:100990004090006775F040C002C003120473D0039A
:1009A000D00280B520F71430F6148883A88220F591
:1009B00007E6A88375830022E280F7E49322E02211
:1009C000AA08AB09AC0A8A828B838CF01209A4FABC
:1009D0000508E4B5080205098A8222858208858314
:1009E0000985F00A850B79850C7A850D7B850E7C4F
:1009F0009009C0020EBDC00F85810FE50F24F8F5E8
:100A00007CE50F24FBF8860808860908860AE50FAE
:100A100024F8F8867908867A08867B9009C0120E39
:100A2000BDD00F22E4AC83AB82FAF9748E0212D8E7
:100A3000121364BC0003021303EF60FA30D502B254
:100A4000D1E583B4FF03021319E582B4FF03021357
:100A500019258340072482400B021303248314507A
:100A600003021319F582EA8DF0A4A8F0EA8EF0A42F
:100A700028F8E435F0F9EB8DF0A428E935F0F9E435
:100A800033CA8FF0A429F9EA35F0FAEBF88EF0A416
:100A900029F9EA35F0FAE433FBEC8DF0A429F9EA00
:100AA00035F0FAE43BFBE88FF0A42AFAEB35F0FBD3
:100AB000E433CCFD8EF0A42AFAEB35F0FBE43CFCE9
:100AC000ED8FF0A42BFBEC35F0FC20E70312133183
:100AD0000212E21213647900E583B58202800D50A0
:100AE00003121392E583C395821213ACE5D0C4655B
:100AF000D020E117EA2DFAEB3EFBEC3FFC500974E5
:100B0000011213ACEC4480FC0212E2C3EA9DFAEB42
:100B10009EFBEC9FFC500FC3E499F9E49AFAE49B26
:100B2000FBE49CFCB2D11213310212E2021D7B8560
:100B3000827785837885F07985107A900B2C02175F
:100B4000CEC00F85810FE50F24FBF57AE50F24FB5E
:100B5000F88677088678088679900B2C1217CED005
:100B60000F2210980280FBAA998A82C002121D7B74
:100B7000D0028A822220F71030F6118883A88220C2
:100B8000F507F6A88375830022F280F7F02212138E
:100B90006430D502B2D1BF0009BC000302132602A3
:100BA0001319BC0003021303E583B4FF0BE582B401
:100BB000FF03021326021303E582B4FF0302131995
:100BC000C395835007247F400B02130324801450E5
:100BD00003021319C0E0E4CCCBCAF98D178E188F2D
:100BE00019EF54F0C4F51A758306851AF0EB84F5F5
:100BF00082E9C4F9EAC4FAEBC4FBEC540FC47803ED
:100C0000D6FC18EBD6FB18EAD6FA8582F0EDA4A83C
:100C1000F0FD8582F0EEA428FEE435F0F88582F040
:100C2000EFA428FFE435F0F8E99DF9EA9EFAEB9F7E
:100C3000FBEC98FCAD17AE18AF1930E7101582E940
:100C40002DF9EA3EFAEB3FFBE43CFC80EDC082D597
:100C50008398C3E933F9EA33FAEB33FBEC33FCC393
:100C6000E99DEA9EEB9FEC9400B3E413F9D002D027
:100C7000E0C44AFAD003D0E0C44BFBD004D0E0F586
:100C8000F0540FC44CFCD082158230F40FD3EC1317
:100C9000FCEB13FBEA13FAE913F90582E930E70AE2
:100CA00074012AFAE43BFBE43CFC0212FA856982F7
:100CB000856A83122022858278E578600A0572E4CD
:100CC000B5720605738002D203857882227A007B92
:100CD000003003057880760022C002C003120CADFC
:100CE000AC82D003D002BC0002802DBC080280146C
:100CF000BC09028023BC0A02801EBC0D028019BC04
:100D000020218014EA4B60D11ABAFF011B157274BE
:100D1000FFB57202157380C1EA4B60BDEA2480F80A
:100D2000760022EC7009EA2480F87600D20322ECE7
:100D3000B57707EA2480F8760022C3EA940FEB9493
:100D40000050968A058B060ABA00010BED2480F844
:100D5000A604020CD9AA827B7FC3EA648094B040C7
:100D60001174B98AF063F08095F04006EA24D0FB54
:100D70008030C3EA648094C1401174C68AF063F085
:100D80008095F0400674C92AFB8017C3EA648094FA
:100D9000E1400F74E68AF063F08095F0400474A996
:100DA0002AFBC3EB957450038B822275827F22AAA3
:100DB00082756E00756F007570007571008A00E6AF
:100DC000FA60148A82C000120D55AB82D000C3EBCA
:100DD000957440030880E886038B82C000120D558D
:100DE000AA82D000C3E5749A405085741775180024
:100DF000751900751A00856E82856F838570F0E520
:100E000071C002C000121D90AB82AC83ADF0FED069
:100E100000D0028B6E8C6F8D708E71E4FBFCFDEA4E
:100E2000256EFAEB356FFBEC3570FCED3571FD8A04
:100E30006E8B6F8C708D7108809D856E82856F833F
:100E40008570F0E57122AA82756E00756F0075706D
:100E5000007571008A00E6FB60228B82C003C0002F
:100E6000120D55AC82D000D003C3EC9574400DBB7D
:100E70002D028008BB2B0280030880DA88028603DB
:100E8000BB2D03D38001C39206BB2D028003BB2B75
:100E9000010A8A82120DAF300613C3E4956EFAE49C
:100EA000956FFBE49570FCE49571FD8008AA6EAB2C
:100EB0006FAC70AD718A828B838CF0ED2285826974
:100EC00085836AE4F572F573F576C203AA79AB7A85
:100ED000AC7B8A828B838CF01209A4FD74012AF505
:100EE00079E43BF57A8C7BEDFA70030212C6BA25E1
:100EF00002800302125FD202C20075740075750091
:100F0000C204C205AB79AC7AAD7B8B828C838DF049
:100F10001209A4FAA3AB82AC838B798C7A8D7B8B7C
:100F2000828C838DF01209A4F5778A06BE300040CA
:100F3000168A06EE24C6400FE57575F00AA4FEEA8F
:100F400024D02EF57580C38A06BE6100400A8A0649
:100F5000EE248540035302DFBA250280ADBA2A028F
:100F60008057BA42028048BA43028052BA44030210
:100F70001082BA4503021098BA4603021098BA4785
:100F800003021098BA4903021082BA4C028025BAB3
:100F90004E030210EDBA4F03021088BA53028020AC
:100FA000BA5503021080BA5803021090021115D2EC
:100FB00000020F0AD201020F0AD204020F0AD20560
:100FC000200417E57C24FDF8887C86030886040845
:100FD000860518188B6B8C6C8D6DE575700B300564
:100FE000047B0180027BFF8B75757400C3E57495EB
:100FF000755005120CADAA82300307E57470030228
:101000001115EA601ABA2002800DBA09028008BAE6
:101010000D028003BA0A03300505E575B5741FE5B6
:101020007460C92004120576AB6BAC6CAD6D8B821D
:101030008C838DF0E4120B75757400021115BA08DB
:101040001CE57460A7200411AB6BAC6CAD6D1BBBD1
:10105000FF011C8B6B8C6C8D6D1574808F20041BB5
:10106000AB6BAC6CAD6D8B828C838DF0EA120B7523
:101070000BBB00010C8B6B8C6C8D6D0574020FEC3F
:10108000C20275740A021115C202757408021115A4
:10109000C202757410021115120CCD7880E66075CD
:1010A000200472E57C24FDF8887C867D08867E0815
:1010B000867F1818857D6B857E6C857F6D9000809E
:1010C00075F040121DFEAE82AF83ABF0FC857D82D1
:1010D000857E83857FF0EE120B75A3EF120B75A34F
:1010E000EB120B75A3EC120B7505768028E57C24BA
:1010F000FDF8887C860308860408860518188B6B23
:101100008C6C8D6D8B828C838DF0E572120B75A3C8
:10111000E573120B75E574700302125F120CCD7843
:1011200080E6700302125F30040302125FE57C2444
:10113000FDF8887C860308860408860518188B6BE2
:101140008C6C8D6D05762002030211D83001358537
:101150006B7D856C7E856D7F758280120E46AE82BA
:10116000AF83ABF0FC857D82857E83857FF0EE12B8
:101170000B75A3EF120B75A3EB120B75A3EC120BFF
:101180007502125F300026856B7D856C7E856D7FD4
:10119000758280120E46AE82AF83ABF0FC857D82F5
:1011A000857E83857FF0EE120B7502125F856B7D65
:1011B000856C7E856D7F758280120E46AE82AF8310
:1011C000ABF0FC857D82857E83857FF0EE120B750A
:1011D000A3EF120B7502125F300134856B7D856CB5
:1011E0007E856D7F758280120DAFAE82AF83ABF0CE
:1011F000FC857D82857E83857FF0EE120B75A3EFE3
:10120000120B75A3EB120B75A3EC120B758050300B
:101210000025856B7D856C7E856D7F758280120DC6
:10122000AFAE82AF83ABF0FC857D82857E83857F08
:10123000F0EE120B758028856B7D856C7E856D7F49
:10124000758280120DAFAE82AF83ABF0FC857D82DC
:10125000857E83857FF0EE120B75A3EF120B752050
:101260000303020ECCAB79AC7AAD7B8B828C838D81
:10127000F01209A4FEA3AB82AC838B798C7A8D7BB0
:10128000EEFA7003020ECCBA25E18B828C838DF0CE
:101290001209A4FABA6E028003BA4ECFE57C24FD8F
:1012A000F8887C860208860608860718188A6B8EDE
:1012B0006C8F6D8A828E838FF0E572120B75A3E5B9
:1012C00073120B7580A5AA767B008A828B8322FC21
:1012D000ABF0AA83A982749EC2D1F58212133102A7
:1012E00012E2B98003EA13B34010EA2401FAE43BA6
:1012F000FBE43CFC50047C800582BC000EBB000B70
:10130000BA0008E4F5F0F583F58222A2D1E5821354
:101310008CF092F78B838A8222E4F583F58275F054
:1013200080F4A2D11322E4F583F58275F0C0747FB6
:10133000227804EC7011E58224F8500AF582E4C9A1
:10134000CACBFCD8EF22EC7820058220E713D582A7
:101350000122C3E933F9EA33FAEB33FBEC33FCD86F
:10136000EA158222AA82AB83A2F73392D16002D21D
:10137000F7F582ACF0E58124F9F8E6FD08E6FE0811
:1013800086F008E6A2F73392D56002D2F7F583AF74
:10139000F022E582C583F582A2D133A2D592D11382
:1013A00092D5ECCFFCEBCEFBEACDFA226040F825DB
:1013B00082500274FFF582E824F8501ECCCBCAF9A3
:1013C000E4CC24F85014CBCAF9E4CB24F8500BCA6F
:1013D000F9E4CA24F8500379002224086010F8C305
:1013E000EC13FCEB13FBEA13FAE913F9D8F122AA88
:1013F000827400C0E07414C0E0C069C06A8A8222AE
:101400000570E4B57002057122AA8274302AFA24AC
:10141000C6500A74072AFA3007034302208A820260
:1014200013EFE582FAC4540FF582C002121409D0FA
:1014300002740F5AF582021409AA6BAB6CAC6DAD45
:101440006EAE6F757620EE2EFEED235401FF420640
:10145000EA2AFAEB33FBEC33FCED33FDC3EE957275
:101460004008EEC39572FE430201D576D98A6B8B94
:101470006C8C6D8D6E8E6F22788CE624D075F00AA0
:10148000A4FA788DE624D02AFA788B8603BB2D0443
:10149000C3E49AFA757201C3E464808AF063F08051
:1014A00095F050297576038A0374F62576401C055D
:1014B00072E576142480F8E5762480F98704A60482
:1014C000772E1BEBFA6004057680DE8B02EA30E7AC
:1014D0000D788186037882A6037881762E0AE574DA
:1014E000600AE57404FB2572F5728005301202056E
:1014F0007278808603E4BB2D0104FB7006200D0387
:10150000300E020572300B030215BF300C57EB6032
:101510000C75822DC0021213EFD002801C300D0C0E
:1015200075822BC0021213EFD002800D300E0A75A7
:101530008220C0021213EFD00278818604BC2E0CE8
:10154000758230C0021213EFD0021573AC7315739D
:10155000C3E5729C4003021603758230C002121369
:10156000EFD00280E7AC731573C3E5729C500C7525
:101570008220C0021213EFD00280EA78808604BC79
:101580002D0C75822DC0021213EFD002801C300D7D
:101590000C75822BC0021213EFD002800D300E0AA0
:1015A000758220C0021213EFD00278818604BC2E0F
:1015B00052758230C0021213EFD00215738044EBD3
:1015C000600E75822DC0021213EFD00215738020B9
:1015D000300D0E75822BC0021213EFD002157380EE
:1015E0000F300E0C758220C0021213EFD00215735B
:1015F00078818603BB2E0C758230C0021213EFD0A7
:10160000021573757601C214E5762480F88603BB53
:1016100045030216C0BB2E348A03C3E464808BF0FA
:1016200063F08095F0500F758230C0031213EFD035
:10163000031B8B0280E48B02D214E57470382012F5
:10164000030216C075822E1213EF80743014278A9D
:1016500003EB30E71FC3E464808574F063F080958A
:10166000F0500C758230C0031213EFD00315740BC9
:101670008B0280DD8B0230140EC3E464808574F02D
:1016800063F08095F05021E5762480F886038B8204
:10169000C0021213EFD00230140EE5762480F886D3
:1016A00003BB2E02800215741573C3E46480857435
:1016B000F063F08095F040032014050576021608CB
:1016C000C3E464808574F063F08095F0500A7582FD
:1016D000301213EF157480E8300B0FAA731573EAFC
:1016E00060087582201213EF80F122E574700330D8
:1016F000120D74072574FAE573C39AF5738006E535
:101700007324FAF57375760078808602BA2B0F2061
:101710000D0C78807620200E057576010573200B60
:1017200019AA73C3E464808AF063F08095F0500ACC
:101730007582201213EF157380E7C214E5762480BA
:10174000F88602BA00028069BA451F300702766542
:10175000C3E464808574F063F08095F0500A75826C
:10176000301213EF157480E8D214C3E5769402E4C6
:1017700033FA7014EA700EC3E464808574F063F089
:101780008095F04003301416E5762480F886028AAE
:10179000821213EFE57624FD50121574800E740248
:1017A000B5760930120675822E1213EF05760217F0
:1017B0003C300B19AA73C3E464808AF063F080950F
:1017C000F0500A7582201213EF157380E72285828C
:1017D0006985836AE4F570F571AA77AB78AC798A8C
:1017E000828B838CF01209A4FD74012AF577E43B07
:1017F000F5788C79EDFA7003021D74BA2502800326
:10180000021D6CC20BC20CC20DC20EC20FC210C2AE
:1018100011C212C208C209C20A757200757300753E
:1018200074FFAB77AC78AD798B828C838DF0120925
:10183000A4FAA3AB82AC838B778C788D79BA250719
:101840008A821213EF80928A06BE3000402E8A06EA
:10185000EE24C6402774FFB57413E57375F00AA42F
:10186000FEEA24D02EF57370BFD20C80BBE57475F0
:10187000F00AA4FEEA24D02EF57480ACBA2E0A74C5
:10188000FFB574A4757400809F8A06BE6100400E87
:101890008A06EE248540075302DFD2078002C20782
:1018A000BA20028075BA2303021929BA2A03021941
:1018B0002EBA2B02805FBA2D028055BA4202805F99
:1018C000BA4303021973BA4403021AAEBA450302BB
:1018D0001AC8BA4603021AC4BA4703021ACCBA4954
:1018E00003021AAEBA4C02803BBA4E03021AD0BAB7
:1018F0004F03021AB5BA5003021A47BA530302192A
:1019000097BA5503021ABABA5803021ABF021AFA52
:10191000D20B021828D20D021828D20E021828D293
:1019200010021828D211021828D21202182874FFA7
:10193000B5742030100BE57A14F8887A8673021893
:1019400028E57A24FEF8887A8606088607188E73BA
:1019500002182830100BE57A14F8887A8674021879
:1019600028E57A24FEF8887A8606088607188E7499
:1019700002182830100AE57A14F8887A8602800F57
:10198000E57A24FEF8887A8603088604188B028A92
:10199000821213EF021AFFE57A24FDF8887A860393
:1019A00008860408860518188B6B8C6C8D6D8B82ED
:1019B0008C838DF0122143AB82AC838B7574FFB5A1
:1019C0007403857574200B1DC3E57595735016E57A
:1019D00073C39575F573AB731573EB60087582204F
:1019E0001213EF80F1856B82856C83856DF012098F
:1019F000A4FBFA6029AB741574C3E464808BF063B4
:101A0000F08095F050188A821213EFAB6BAC6CAD7E
:101A10006D0BBB00010C8B6B8C6C8D6D80C7200B2C
:101A200003021AFFC3E57595734003021AFFE573BD
:101A3000C39575F573AB731573EB7003021AFF75DD
:101A400082201213EF80EEE57A24FDF8887A86036F
:101A500008860408860518188B6B8C6C8D6DE56DF7
:101A6000FB30E7047A438013EB546060047A5080C3
:101A70000AEB30E6047A4980027A588A82C0021260
:101A800013EF75823A1213EF7582301213EF7582DD
:101A9000781213EFD002BA4902800BBA50028006C6
:101AA000856C82121422856B821214228051D20F0F
:101AB00075720A804A757208804575720A80407591
:101AC0007210803BD2088037D2098033D20A802F2F
:101AD000E57A24FDF8887A860308860408860518C6
:101AE000188B6B8C6C8D6D8B828C838DF0E57012F6
:101AF0000B75A3E571120B7580058A821213EF2016
:101B00000806200903300A70E57A24FCF8887A86F2
:101B1000030886040886050886061818188B6B8C3F
:101B20006C8D6D8E6EE56BE56CE56DE56E8B828C74
:101B3000838DF0EE12202474FFB5740375740630A3
:101B40000A27747F556EFB8B6FE56FEB2BFB8B6F5A
:101B5000E56D30E7067401456FF56FE56F24684069
:101B6000067499256F4002D2093009061216EB025D
:101B700017D91214780217D9E57270030217D97BAE
:101B80008530102BE57A14F8887AE6FC3395E0FD71
:101B9000FEFF8C6B8D6C8E6D8F6E200F5EAC6B7D3F
:101BA000007E007F008C6B8D6C8E6D8F6E804C3054
:101BB000111FE57A24FCF8887A86040886050886D1
:101BC000060886071818188C6B8D6C8E6D8F6E80CA
:101BD0002AE57A24FEF8887A860408860518ED330B
:101BE00095E0FEFF8C6B8D6C8E6D8F6E200F0CACB4
:101BF0006BAD6C7E007F008E6D8F6E301243E56B97
:101C0000456C456D456E60397408B5720C7582304F
:101C1000C0031213EFD00380287410B572237582AD
:101C200030C0031213EFD00330070C758278C00365
:101C30001213EFD003800A758258C0031213EFD03D
:101C400003300F25AC6BAD6CAE6DE56EFF30E71762
:101C5000C3E49CFCE49DFDE49EFEE49FFF8C6B8D41
:101C60006C8E6D8F6E8002C20F757500D2138B0063
:101C7000756F00C000121439D00020130DE56FC439
:101C8000FCE6FD4CF61888038002A66F0575B213BA
:101C9000E56B456C456D456E70D68803E573700342
:101CA000757301200C1A200B17E57504FCC395739E
:101CB000500E758220C0031213EFD003157380E914
:101CC000300F0E75822DC0031213EFD003157380F1
:101CD00024E5756020300D0E75822BC0031213EFC2
:101CE000D0031573800F300E0C758220C0031213C1
:101CF000EFD0031573200B1EAC731573C3E5759CF1
:101D00005027300C047C3080027C208C82C003126F
:101D100013EFD00380E2C3E57595735009E573C3F3
:101D20009575F57380037573008B00AB751575EBB6
:101D30006022B21320130A08E6C4540FFB8B6F8095
:101D4000078603740F5BF56F856F82C0001214095C
:101D5000D00080D7200B030217D9AB731573EB703B
:101D6000030217D97582201213EF80EE8A821213B4
:101D7000EF0217D985708285718322AA82BA0A0878
:101D800010990280FB75990D10990280FB8A9922A7
:101D9000AAF0FBE5828517F0A4FCADF0E58385177A
:101DA000F0A42DFDE435F0FEE5828518F0A42DFDAC
:101DB000E5F03EFEE433FFEA8517F0A42EFEE5F0E1
:101DC0003FFFE5838518F0A42EFEE5F03FFFE58296
:101DD0008519F0A42EFEE5F03FFFEB8517F0A42F48
:101DE000FFEA8518F0A42FFFE5838519F0A42FFFE3
:101DF000E582851AF0A42F8EF08D838C8222AA8230
:101E0000AB83ACF0751500751600C2178A058B06FA
:101E10008C078D828E838FF01209A4F8B82002807F
:101E200003B809070DBD00EA0E80E78D028E038F0F
:101E300004B82D0DD21574012DFAE43EFB8F0480F9
:101E40000EC215B82B0974012DFAE43EFB8F047500
:101E500011007512007513007514008A058B068C2D
:101E6000078D828E838FF01209A4F8F9B9300040F3
:101E700005E824C650128D828E838FF01209A4F8D3
:101E8000B82E028003021F338D828E838FF01209D9
:101E9000A4F9B92E05D217021F2BC005C006C00732
:101EA000C005C006C007C001C011C012C013C014D5
:101EB00090000075F0207441120A308582118583EC
:101EC0001285F013F514E58124FCF581D001D007CB
:101ED000D006D005E93395E0FDE924D0F582ED3454
:101EE000FFF58312216BAD82AE83AFF0F9C005C060
:101EF00006C007C005C006C007C001851182851253
:101F0000838513F0E514120AD38582118583128527
:101F1000F013F514E58124FCF581D007D006D00537
:101F2000D007D006D00530170215150DBD00010EE3
:101F3000021E615300DF8D828E838FF0E8120B75D5
:101F4000B8456274012DFAE43EFB8F048A828B83CC
:101F50008CF01209A4FDBD2D09D2160ABA000D0B92
:101F6000800AC216BD2B050ABA00010B7516008A3D
:101F7000828B838CF01209A4FDFEBE3000401D8DC3
:101F800006EE24C64016E51675F00AA4F516ED24F3
:101F9000D02516F5160ABA00D60B80D3301606C324
:101FA000E49516F516E5152516F516E5166055E5C2
:101FB0001630E728C011C012C013C01490CCCD75E4
:101FC000F0CC743D120A3085821185831285F0139E
:101FD000F514E58124FCF581051680CFC011C012EF
:101FE000C013C01490000075F0207441120A3085AF
:101FF000821185831285F013F514E58124FCF581A7
:10200000151680A730150F8511118512128513132F
:10201000E514B2E7F5148511828512838513F0E586
:102020001422E473C0E0F84582458345F07009F559
:10203000F0FBFCFDFE0220F2E823A2F792E0F8A9F3
:1020400082AA83D2F7ABF07C007E07C374979840D6
:102050004074FF2EFE740A89F0A4F985F082740A98
:102060008AF0A4FA85F083740A8BF0A4FB74052926
:10207000F9EA3582FAEB3583FB740035F0FCC3ECEA
:1020800013FCEB13FBEA13FAE913F908EC70EF8089
:10209000BAE8C3947FF88B838EF0E4FBFCFDFEFF6F
:1020A00008C3E933F9EA33FAE58333F583EB3BD42C
:1020B000FBEC3CD4FCED3DD4FDEE3ED4FEEF3FD432
:1020C000FF602D05F074052BD4FBE43CD4FCE43D0B
:1020D000D4FDE43ED4FEE43FD4FF758204C3EF1385
:1020E000FFEE13FEED13FDEC13FCEB13FBD582EDBD
:1020F000D8AF7880D0E020E704762B8002762D08D8
:102100007906E7C4540F4430F608B90603762E0862
:10211000E7540F4430F60819B902E7764508E5F0B0
:1021200020E704762B8004762DF4040875F00A84E9
:102130004430F608E5F04430F608E4F69000807587
:10214000F04022AA82AB83ACF07D007E008A828BB5
:10215000838CF01209A4FFA3AA82AB83EF60070D62
:10216000BD00EA0E80E78D828E8322AC83AB827A3B
:10217000007900748E022181FCABF0AA83A98274DD
:102180009EF582C2D1EC30E716D2D1E9F42401F9F0
:10219000EAF43400FAEBF43400FBECF43400FC1203
:1021A00013310212E20000000000000000000000F5
:00000001FF
