:100000000200037581491201A0E582600302006FBE
:10001000780079007A007B007C007D00EC4D601C4C
:1000200088828983E493A3A882A9838A828B83F040
:10003000A3AA82AB831CBCFFE31D80E07582007520
:1000400083007C007D00EC4D600AE4F0A31CBCFF43
:10005000F51D80F27582007583007C007D00EC4DFB
:10006000600AE4F0A31CBCFFF51D80F212019A1295
:1000700003E380FE1B5B324A005043413020696E2F
:1000800020382D6269742050574D206D6F646520B3
:10009000746573742070726F6772616D0A46696C63
:1000A000653A2025730A436F6D70696C65643A2068
:1000B00025732C2025730A0A00433A5C5573657238
:1000C000735C46616269616E204C6F7A616E6F5C31
:1000D0004465736B746F705C5542435C55424333A7
:1000E0007264596561725C5465726D20325C454C76
:1000F0004543203339315C436F6E74726F6C6C65AD
:10010000725C436F64655C5043412E63004A616ECC
:1001100020323920323031390030393A33343A30F4
:10012000300050696E20636F6E6669677572617426
:10013000696F6E20646F6E652E0A00504341206324
:100140006F6E66696775726174696F6E20646F6E39
:10015000652E0A0041444320636F6E6669677572BD
:100160006174696F6E20646F6E652E0A0056405090
:10017000312E343D25372E3366562C2056405031D3
:100180002E353D25372E3366562C20564050312EC5
:10019000363D25372E3366560D00E4F508F5092265
:1001A00075A7007597DE7597AD75FF8075EF0675BD
:1001B000A71075C12075A70075A90075A900E5A94C
:1001C00030E7FB75A90375A903E5A930E7FB43A454
:1001D0001075E10175E20275E340759810758DE6C2
:1001E000858D8B53890F438920D28ED299758200D9
:1001F00022AA82438E407592B87593FF85929485AA
:1002000093957591047B00C3EB9A500BE59130E711
:10021000FB53917F0B80F075910022AA82AB837C07
:10022000007D00C3EC9AED9B502B7E00BE04005075
:100230001D7582FAC002C003C004C005C0061201C9
:10024000F1D006D005D004D003D0020E80DE0CBC65
:1002500000D10D80CE2275A70075B28075BCF875EF
:10026000B91E75E80075DF3F75B300D2EF228582B5
:10027000BBD2EC20ECFDD2EC20ECFD85BD8285BE2E
:10028000832212026E120644AA82AB83ACF0FDC038
:1002900002C003C004C005909FBE75F052744012A6
:1002A0000650AA82AB83ACF0FDE58124FCF581E425
:1002B000C0E074FCC0E0747FC0E07446C0E08A8295
:1002C0008B838CF0ED120782AA82AB83ACF0FDE544
:1002D0008124FCF5818A828B838CF0ED2275A70046
:1002E00075960275D90075F700759C00759E0075AE
:1002F000D84075DA4275FC4075DB4275EA4022AAA7
:1003000082BA4656E4B50806E4B5090280247401B1
:10031000B50806E4B5090280237402B50806E4B501
:10032000090280227403B50806E4B509028021029F
:1003300003ADD2A1C2A2C2A3C2A48071C2A1D2A2A3
:10034000C2A3C2A48067C2A1C2A2D2A3C2A4805D7C
:10035000C2A1C2A2C2A3D2A48053E4B50806E4B5E8
:10036000090280237401B50806E4B50902802274ED
:1003700002B50806E4B5090280217403B50806E455
:10038000B5090280208026C2A1C2A2C2A3D2A48045
:100390001CC2A1C2A2D2A3C2A48012C2A1D2A2C274
:1003A000A3C2A48008D2A1C2A2C2A3C2A40508E429
:1003B000B508020509C374039508E464808509F053
:1003C00063F08095F05005E4F508F5092243D4CF99
:1003D00075A72053F28F75A70043D57F43A61F430F
:1003E000A580227474C0E07400C0E07480C0E01284
:1003F00007611581158115817419C0E07401C0E091
:100400007480C0E0740DC0E07401C0E07480C0E08E
:1004100074B9C0E07400C0E07480C0E07479C0E0DA
:100420007400C0E07480C0E0120761E58124F4F537
:10043000811203CD7422C0E07401C0E07480C0E07A
:100440001207611581158115811202DD743BC0E030
:100450007401C0E07480C0E0120761158115811538
:10046000811202567454C0E07401C0E07480C0E090
:100470001207611581158115817582461202FF757B
:100480000A00750B00750C00750D00750E00750FD8
:1004900000751000751100751200751300751400B9
:1004A000E4F515F516F517C3E516940AE51764800B
:1004B0009480400302058E850A18850B19850C1A55
:1004C000850D1B75820A120282AA82AB83ACF0FDF5
:1004D000C002C003C004C005851882851983851A2F
:1004E000F0E51B1206F3AA82AB83ACF0FDE5812494
:1004F000FCF5818A0A8B0B8C0C8D0D850E18850FEF
:100500001985101A85111B75820B120282AE82AFFB
:1005100083AAF0FBC006C007C002C003851882850D
:100520001983851AF0E51B1206F3AA82AB83ACF09F
:10053000FDE58124FCF5818A0E8B0F8C108D1185D1
:10054000121885131985141A85151B75820C120251
:1005500082AE82AF83AAF0FBC006C007C002C00310
:10056000851882851983851AF0E51B1206F3AA8285
:10057000AB83ACF0FDE58124FCF5818A128B138CF2
:10058000148D150516E4B5160205170204A7E4C07C
:10059000E0C0E07420C0E07441C0E08512828513A1
:1005A000838514F0E51512078285821885831985E5
:1005B000F01AF51BE58124FCF581E4C0E0C0E0748D
:1005C00020C0E07441C0E0850E82850F838510F065
:1005D000E51112078285821C85831D85F01EF51F9B
:1005E000E58124FCF581E4C0E0C0E07420C0E07443
:1005F00041C0E0850A82850B83850CF0E50D12076A
:1006000082AC82AD83AAF0FBE58124FCF581C018A1
:10061000C019C01AC01BC01CC01DC01EC01FC00412
:10062000C005C002C003746DC0E07401C0E07480F6
:10063000C0E0120761E58124F1F581900002120209
:100640001B020479E4AC83AB82FAF9748E0208AA27
:10065000120936BC00030208D5EF60FA30D502B2A9
:10066000D1E583B4FF030208EBE582B4FF0302087F
:10067000EB258340072482400B0208D524831450C5
:10068000030208EBF582EA8DF0A4A8F0EA8EF0A44C
:1006900028F8E435F0F9EB8DF0A428E935F0F9E419
:1006A00033CA8FF0A429F9EA35F0FAEBF88EF0A4FA
:1006B00029F9EA35F0FAE433FBEC8DF0A429F9EAE4
:1006C00035F0FAE43BFBE88FF0A42AFAEB35F0FBB7
:1006D000E433CCFD8EF0A42AFAEB35F0FBE43CFCCD
:1006E000ED8FF0A42BFBEC35F0FC20E7031209039F
:1006F0000208B41209367900E583B58202800D50F4
:1007000003120964E583C3958212097EE5D0C465AE
:10071000D020E117EA2DFAEB3EFBEC3FFC500974C8
:100720000112097EEC4480FC0208B4C3EA9DFAEB96
:100730009EFBEC9FFC500FC3E499F9E49AFAE49B0A
:10074000FBE49CFCB2D11209030208B402134D85EC
:10075000823285833385F03485233590074C020D32
:10076000A0C022858122E52224FBF535E52224FB69
:10077000F8863208863308863490074C120DA0D0D4
:10078000222212093630D502B2D1BF0009BC0003C3
:100790000208F80208EBBC00030208D5E583B4FFA9
:1007A0000BE582B4FF030208F80208D5E582B4FF26
:1007B000030208EBC395835007247F400B0208D542
:1007C00024801450030208EBC0E0E4CCCBCAF98DBE
:1007D000368E378F38EF54F0C4F539758306853976
:1007E000F0EB84F582E9C4F9EAC4FAEBC4FBEC54FB
:1007F0000FC47803D6FC18EBD6FB18EAD6FA85822C
:10080000F0EDA4A8F0FD8582F0EEA428FEE435F01A
:10081000F88582F0EFA428FFE435F0F8E99DF9EAC5
:100820009EFAEB9FFBEC98FCAD36AE37AF3830E765
:10083000101582E92DF9EA3EFAEB3FFBE43CFC801F
:10084000EDC082D58398C3E933F9EA33FAEB33FB81
:10085000EC33FCC3E99DEA9EEB9FEC9400B3E413F8
:10086000F9D002D0E0C44AFAD003D0E0C44BFBD0A8
:1008700004D0E0F5F0540FC44CFCD082158230F463
:100880000FD3EC13FCEB13FBEA13FAE913F905821F
:10089000E930E70A74012AFAE43BFBE43CFC020875
:1008A000CCFCABF0AA83A982749EC2D1F582120956
:1008B000030208B4B98003EA13B34010EA2401FA32
:1008C000E43BFBE43CFC50047C800582BC000EBB96
:1008D000000BBA0008E4F5F0F583F58222A2D1E519
:1008E00082138CF092F78B838A8222E4F583F5825F
:1008F00075F080F4A2D11322E4F583F58275F0C07F
:10090000747F227804EC7011E58224F8500AF58295
:10091000E4C9CACBFCD8EF22EC7820058220E7138B
:10092000D5820122C3E933F9EA33FAEB33FBEC3326
:10093000FCD8EA158222AA82AB83A2F73392D16057
:1009400002D2F7F582ACF0E58124F9F8E6FD08E67D
:10095000FE0886F008E6A2F73392D56002D2F7F5DA
:1009600083AFF022E582C583F582A2D133A2D5926E
:10097000D11392D5ECCFFCEBCEFBEACDFA2260404E
:10098000F82582500274FFF582E824F8501ECCCB83
:10099000CAF9E4CC24F85014CBCAF9E4CB24F850BB
:1009A0000BCAF9E4CA24F850037900222408601025
:1009B000F8C3EC13FCEB13FBEA13FAE913F9D8F1D3
:1009C00022AA8274D2C0E07409C0E0C024C0258A83
:1009D0008222052BE4B52B02052C22AA8274302A30
:1009E000FA24C6500A74072AFA3000034302208A08
:1009F000820209C1E582FAC4540FF582C0021209CD
:100A0000DBD002740F5AF5820209DBAA26AB27ACB1
:100A100028AD29AE2A753120EE2EFEED235401FFBC
:100A20004206EA2AFAEB33FBEC33FCED33FDC3EE6E
:100A3000952D4008EEC3952DFE430201D531D98A8C
:100A4000268B278C288D298E2A227846E624D0757D
:100A5000F00AA4FA7847E624D02AFA78458603BB40
:100A60002D04C3E49AFA752D01C3E464808AF0630F
:100A7000F08095F050297531038A0374F6253140D2
:100A80001C052DE53114243AF8E531243AF98704A0
:100A9000A604772E1BEBFA6004053180DE8B02EA98
:100AA00030E70D783B8603783CA603783B762E0A28
:100AB000E52F600AE52F04FB252DF52D8005300B71
:100AC00002052D783A8603E4BB2D0104FB70062055
:100AD0000603300702052D300403020B9130055741
:100AE000EB600C75822DC0021209C1D002801C304F
:100AF000060C75822BC0021209C1D002800D30078E
:100B00000A758220C0021209C1D002783B8604BC5B
:100B10002E0C758230C0021209C1D002152EAC2EE7
:100B2000152EC3E52D9C4003020BD5758230C00203
:100B30001209C1D00280E7AC2E152EC3E52D9C50C2
:100B40000C758220C0021209C1D00280EA783A8670
:100B500004BC2D0C75822DC0021209C1D002801C6C
:100B600030060C75822BC0021209C1D002800D30F4
:100B7000070A758220C0021209C1D002783B8604A0
:100B8000BC2E52758230C0021209C1D002152E80CF
:100B900044EB600E75822DC0021209C1D002152EE1
:100BA000802030060E75822BC0021209C1D00215BA
:100BB0002E800F30070C758220C0021209C1D002AE
:100BC000152E783B8603BB2E0C758230C0021209AD
:100BD000C1D002152E753101C20DE531243AF886D7
:100BE00003BB4503020C92BB2E348A03C3E464802A
:100BF0008BF063F08095F0500F758230C0031209BE
:100C0000C1D0031B8B0280E48B02D20DE52F70381C
:100C1000200B03020C9275822E1209C18074300DD4
:100C2000278A03EB30E71FC3E46480852FF063F06D
:100C30008095F0500C758230C0031209C1D00315A5
:100C40002F0B8B0280DD8B02300D0EC3E464808598
:100C50002FF063F08095F05021E531243AF88603B7
:100C60008B82C0021209C1D002300D0EE531243A48
:100C7000F88603BB2E028002152F152EC3E4648074
:100C8000852FF063F08095F04003200D05053102BB
:100C90000BDAC3E46480852FF063F08095F0500A8E
:100CA0007582301209C1152F80E830040FAA2E1565
:100CB0002EEA60087582201209C180F122E52F70AA
:100CC00003300B0D7407252FFAE52EC39AF52E80FD
:100CD00006E52E24FAF52E753100783A8602BA2BF5
:100CE0000F20060C783A7620200705753101052E75
:100CF000200419AA2EC3E464808AF063F08095F082
:100D0000500A7582201209C1152E80E7C20DE53107
:100D1000243AF88602BA00028069BA451F30000200
:100D20007665C3E46480852FF063F08095F0500A07
:100D30007582301209C1152F80E8D20DC3E53194B8
:100D400002E433FA7014EA700EC3E46480852FF075
:100D500063F08095F04003300D16E531243AF886B3
:100D6000028A821209C1E53124FD5012152F800E2E
:100D70007402B53109300B0675822E1209C1053196
:100D8000020D0E300419AA2EC3E464808AF063F0C9
:100D90008095F0500A7582201209C1152E80E72235
:100DA000858224858325E4F52BF52CAA32AB33AC60
:100DB000348A828B838CF0121362FD74012AF5321F
:100DC000E43BF5338C34EDFA7003021346BA250286
:100DD000800302133EC204C205C206C207C208C293
:100DE00009C20AC20BC201C202C203752D00752ED0
:100DF00000752FFFAB32AC33AD348B828C838DF01A
:100E0000121362FAA3AB82AC838B328C338D34BA6B
:100E100025078A821209C180928A06BE3000402EC0
:100E20008A06EE24C6402774FFB52F13E52E75F011
:100E30000AA4FEEA24D02EF52E70BFD20580BBE5B1
:100E40002F75F00AA4FEEA24D02EF52F80ACBA2E1E
:100E50000A74FFB52FA4752F00809F8A06BE61001B
:100E6000400E8A06EE248540075302DFD20080023E
:100E7000C200BA20028075BA2303020EFBBA2A030D
:100E8000020F00BA2B02805FBA2D028055BA4202CF
:100E9000805FBA4303020F45BA4403021080BA458B
:100EA0000302109ABA4603021096BA470302109E34
:100EB000BA4903021080BA4C02803BBA4E030210BA
:100EC000A2BA4F03021087BA5003021019BA530393
:100ED000020F69BA550302108CBA5803021091022E
:100EE00010CCD204020DFAD206020DFAD207020D7E
:100EF000FAD209020DFAD20A020DFAD20B020DFA49
:100F000074FFB52F2030090BE53514F88835862E8F
:100F1000020DFAE53524FEF888358606088607189E
:100F20008E2E020DFA30090BE53514F88835862F20
:100F3000020DFAE53524FEF888358606088607187E
:100F40008E2F020DFA30090AE53514F8883586022D
:100F5000800FE53524FEF888358603088604188B53
:100F6000028A821209C10210D1E53524FDF88835C4
:100F7000860308860408860518188B268C278D287A
:100F80008B828C838DF01214B6AB82AC838B307461
:100F9000FFB52F0385302F20041DC3E530952E505B
:100FA00016E52EC39530F52EAB2E152EEB60087589
:100FB00082201209C180F18526828527838528F049
:100FC000121362FBFA6029AB2F152FC3E464808BE8
:100FD000F063F08095F050188A821209C1AB26ACFC
:100FE00027AD280BBB00010C8B268C278D2880C7D2
:100FF0002004030210D1C3E530952E40030210D126
:10100000E52EC39530F52EAB2E152EEB7003021096
:10101000D17582201209C180EEE53524FDF88835AE
:10102000860308860408860518188B268C278D28C9
:10103000E528FB30E7047A438013EB546060047AC0
:1010400050800AEB30E6047A4980027A588A82C0DE
:10105000021209C175823A1209C17582301209C1A2
:101060007582781209C1D002BA4902800BBA5002C7
:1010700080068527821209F48526821209F48051A0
:10108000D208752D0A804A752D088045752D0A8075
:1010900040752D10803BD2018037D2028033D203BD
:1010A000802FE53524FDF8883586030886040886F8
:1010B0000518188B268C278D288B828C838DF0E564
:1010C0002B12149DA3E52C12149D80058A8212090F
:1010D000C1200106200203300370E53524FCF888A6
:1010E0003586030886040886050886061818188BB6
:1010F000268C278D288E29E526E527E528E5298BEE
:10110000828C838DF0EE12137E74FFB52F03752F42
:1011100006300327747F5529FB8B2AE52AEB2BFB2E
:101120008B2AE52830E7067401452AF52AE52A24AA
:101130006840067499252A4002D202300206120C39
:10114000BD020DAB120A4A020DABE52D7003020D74
:10115000AB7B3F30092BE53514F88835E6FC339539
:10116000E0FDFEFF8C268D278E288F2920085EAC9F
:10117000267D007E007F008C268D278E288F29807B
:101180004C300A1FE53524FCF888358604088605AE
:101190000886060886071818188C268D278E288F33
:1011A00029802AE53524FEF8883586040886051846
:1011B000ED3395E0FEFF8C268D278E288F292008A1
:1011C0000CAC26AD277E007F008E288F29300B4384
:1011D000E52645274528452960397408B52D0C7545
:1011E0008230C0031209C1D00380287410B52D23AA
:1011F000758230C0031209C1D00330000C758278AB
:10120000C0031209C1D003800A758258C0031209B5
:10121000C1D003300825AC26AD27AE28E529FF3024
:10122000E717C3E49CFCE49DFDE49EFEE49FFF8C75
:10123000268D278E288F298002C208753000D20C97
:101240008B00752A00C000120A0BD000200C0DE59F
:101250002AC4FCE6FD4CF61888038002A62A053055
:10126000B20CE52645274528452970D68803E52E8A
:101270007003752E0120051A200417E53004FCC305
:10128000952E500E758220C0031209C1D003152E71
:1012900080E930080E75822DC0031209C1D00315F4
:1012A0002E8024E530602030060E75822BC003129C
:1012B00009C1D003152E800F30070C758220C003A2
:1012C0001209C1D003152E20041EAC2E152EC3E525
:1012D000309C50273005047C3080027C208C82C0FA
:1012E000031209C1D00380E2C3E530952E5009E511
:1012F0002EC39530F52E8003752E008B00AB301574
:1013000030EB6022B20C200C0A08E6C4540FFB8BB1
:101310002A80078603740F5BF52A852A82C0001293
:1013200009DBD00080D7200403020DABAB2E152EB5
:10133000EB7003020DAB7582201209C180EE8A8228
:101340001209C1020DAB852B82852C8322AA82BA99
:101350000A0810990280FB75990D10990280FB8A8A
:10136000992220F71430F6148883A88220F507E626
:10137000A88375830022E280F7E49322E022C0E094
:10138000F84582458345F07009F5F0FBFCFDFE024F
:10139000144CE823A2F792E0F8A982AA83D2F7AB13
:1013A000F07C007E07C3749798404074FF2EFE7453
:1013B0000A89F0A4F985F082740A8AF0A4FA85F00B
:1013C00083740A8BF0A4FB740529F9EA3582FAEBE1
:1013D0003583FB740035F0FCC3EC13FCEB13FBEA24
:1013E00013FAE913F908EC70EF80BAE8C3947FF8B8
:1013F0008B838EF0E4FBFCFDFEFF08C3E933F9EAC2
:1014000033FAE58333F583EB3BD4FBEC3CD4FCEDC2
:101410003DD4FDEE3ED4FEEF3FD4FF602D05F074C9
:10142000052BD4FBE43CD4FCE43DD4FDE43ED4FEE7
:10143000E43FD4FF758204C3EF13FFEE13FEED13F8
:10144000FDEC13FCEB13FBD582EDD8AF783AD0E07E
:1014500020E704762B8002762D087906E7C4540F26
:101460004430F608B90603762E08E7540F4430F6E8
:101470000819B902E7764508E5F020E704762B80E5
:1014800004762DF4040875F00A844430F608E5F07B
:101490004430F608E4F690003A75F0402220F71048
:1014A00030F6118883A88220F507F6A8837583009B
:1014B00022F280F7F022AA82AB83ACF07D007E009E
:1014C0008A828B838CF0121362FFA3AA82AB83EF14
:1014D00060070DBD00EA0E80E78D828E832200003A
:00000001FF
