:100000000200760000000000000000000000000078
:1000200000000000000000000000000201A11B5BB6
:10003000324A00562850312E33293D25332E326660
:10004000562C20562850302E32293D25332E32662C
:10005000562057696E64203D20252E326620646547
:1000600067726565730D000000000000000000006D
:1000700000000002025A75816B120111E5826003D3
:100080000200E2780079007A007B007C007D00ECC1
:100090004D601C88828983E493A3A882A9838A8205
:1000A0008B83F0A3AA82AB831CBCFFE31D80E075A9
:1000B00082007583007C007D00EC4D600AE4F0A3B3
:1000C0001CBCFFF51D80F27582007583007C007DED
:1000D00000EC4D600AE4F0A31CBCFFF51D80F21299
:1000E00000E712059380FE75220175230175240037
:1000F000752500752600752700752800752900E410
:10010000F52AF52B752C00752D00752E00752F0026
:100110002275A7007597DE7597AD75FF8075EF06A0
:1001200075A71075C12075A70075A90075A900E510
:10013000A930E7FB75A90375A903E5A930E7FB43DF
:10014000A41043D4CF43D50F75E10375E20175E3E5
:1001500040759810758DE6858D8B53890F438920E6
:10016000D28ED29975A2FC75A16075F80175C80090
:10017000438E1075CA6075CB7375CEFF75CFFFD2F5
:10018000ADD2CA759100438E407592DC7593FF75B0
:1001900094FF7595FF43E680439104D2AF758200CA
:1001A00022C0E0C0D075D00075A700C2CF7401B5E1
:1001B000240280030202557404B52902800302025E
:1001C000537529007401B5233DE525700302023EF5
:1001D000E528700AD2A1D2A2C2A3C2A48060740191
:1001E000B5280AC2A1D2A2D2A3C2A480517402B57A
:1001F000280AC2A1C2A2D2A3D2A48042D2A1C2A282
:10020000C2A3D2A48038E5266034E528700AD2A1C2
:10021000C2A2C2A3D2A480267401B5280AC2A1C278
:10022000A2D2A3D2A480177402B5280AC2A1D2A276
:10023000D2A3C2A48008D2A1D2A2C2A3D2A405286C
:10024000052AE4B52A02052BE52824FC5007752869
:100250000080020529D0D0D0E03275A70053913F2D
:1002600075220175270132AA82AB837527007C00B5
:100270007D00C3EC9AED64808BF063F08095F050C4
:100280000F7401B527EC7527000CBC00E50D80E26A
:100290002275A70075B28075BCF875B91E75E800A7
:1002A00075DF3F75B300D2EF228582BBD2EC20EC24
:1002B000FDD2EC20ECFD85BD8285BE83221202A911
:1002C000120790AA82AB83ACF0FDC002C003C00449
:1002D000C005909FBE75F05274401207FCAA82AB15
:1002E00083ACF0FDE58124FCF581E4C0E074FCC042
:1002F000E0747FC0E07446C0E08A828B838CF0EDAE
:1003000012094CAA82AB83ACF0FDE58124FCF58197
:100310008A828B838CF0ED2275A70075960075D9C3
:100320000075F700759C00759E0075D84075DA421F
:1003300075FC4D2275A72053F1FB53F2F743A5D06E
:1003400043A67F75A700228582A310FF0280FB22AF
:10035000C3E5309402E53194005060E530453170DA
:1003600031C2A09000071202677582AA120347E506
:10037000302530FAE53133EA2432F8AAA37B00A60F
:100380000208A6030530E4B53002053190002802CA
:1003900002677582FF120347E5302530FAE53133F5
:1003A000EA2432F8AAA37B00A60208A6030530E4DB
:1003B000B530020531900032020267C3E530940A7D
:1003C000E531940050297582FF120347E53025304E
:1003D000FAE53133EA2432F8AAA37B00A60208A684
:1003E000030530E4B530020531900028020267D2DF
:1003F000A0900640120267E4F530F531AB367A0082
:10040000E5382AFAE5393BFBE4FCFD74015538FE7A
:100410007F00BE0155BF0052EDC313FDEC13FCEB92
:1004200013FBEA13FAEDC313FDEC13FCEB13FBEA29
:1004300013F5828B838CF0ED12092E85822C858337
:100440002D85F02EF52FC02CC02DC02EC02F900072
:100450000075F0B4743C1207FC85822C85832D85D1
:10046000F02EF52FE58124FCF58122E4C0E0C0E008
:100470007434C0E07441C0E0852C82852D83852EC4
:10048000F0E52F1207CCAA82E58124FCF581EAB4BD
:100490000100E433FAC002E4C0E07460C0E074AE6E
:1004A000C0E07443C0E0852C82852D83852EF0E565
:1004B0002F12079CAB82E58124FCF581D002EBB4BE
:1004C0000100E433FB5A7003020589752401E4C07E
:1004D000E0C0E07434C0E07443C0E0852C82852D18
:1004E00083852EF0E52F12079CAA82E58124FCF576
:1004F00081EA7039752301E4C0E0C0E07434C0E0E3
:100500007441C0E0852C82852D83852EF0E52F1265
:10051000094CAA82AB83ACF0FDE58124FCF5818A0D
:10052000828B838CF0ED120A6B85822522E4F52301
:10053000C0E0C0E07434C0E07443C0E0852C828524
:100540002D83852EF0E52F120941AA82AB83ACF0F2
:10055000FDE58124FCF581E4C0E0C0E07434C0E036
:100560007441C0E08A828B838CF0ED12094CAA8220
:10057000AB83ACF0FDE58124FCF5818A828B838C12
:10058000F0ED120A6B85822622752400752600750F
:10059000250022E4F556F557FCFDC004C005742E75
:1005A000C0E07400C0E07480C0E012090D15811530
:1005B000811581120334120318120291D005D00460
:1005C0007401B52202800302077F752200C3EC94F8
:1005D00014ED6480948050080CBC00010D02077F6C
:1005E000C3E5569414E55764809480400302068363
:1005F000854E58854F5985505A85515B7582091231
:1006000002BDAA82AB83AEF0FFC002C003C006C029
:1006100007855882855983855AF0E55B12089FAAA1
:1006200082AB83AEF0FFE58124FCF5818A4E8B4FCF
:100630008E508F5185525885535985545A85555B34
:100640007582011202BDAA82AB83AEF0FFC002C068
:1006500003C006C007855882855983855AF0E55B3B
:1006600012089FAA82AB83AEF0FFE58124FCF581DE
:100670008A528B538E548F550556E4B55602055752
:1006800002077BE4C0E0C0E074A0C0E07441C0E0B9
:10069000854E82854F838550F0E55112094CAA8220
:1006A000AB83AEF0FFE58124FCF581749AC0E07461
:1006B00099C0E0C0E0743EC0E08A828B838EF0EF88
:1006C00012094185825885835985F05AF55BE58189
:1006D00024FCF581855846855947855A48855B49EC
:1006E000E4C0E0C0E074A0C0E07441C0E085528284
:1006F0008553838554F0E55512094CAA82AB83AE2D
:10070000F0FFE58124FCF581749AC0E07499C0E0A3
:10071000C0E0743EC0E08A828B838EF0EF12094104
:10072000AA82AB83AEF0FFE58124FCF5818A4A8B77
:100730004B8E4C8F4DC02CC02DC02EC02FC002C080
:1007400003C006C007C058C059C05AC05B7433C04C
:10075000E07400C0E07480C0E012090DE58124F16E
:10076000F581E4F556F557F54EF54FF550F5517511
:1007700052007553007554007555007C007D00C013
:1007800004C00512035012046BD005D0040205C04A
:10079000E4AC83AB82FAF9748E020937FFA88118A2
:1007A00018120A91D2D133E6400730E70B75820167
:1007B0002220E70675820022C2D1120A73E9700373
:1007C000F5822230D101B3E433F58222FFA88118EB
:1007D00018120A91D2D133E6400730E70B75820038
:1007E0002220E70675820122C2D1120A73E9700342
:1007F000F5822220D101B3E433F58222120B3EBCF4
:100800000003020ADDEF60FA30D502B2D1E583B40D
:10081000FF03020AF3E582B4FF03020AF3258340D3
:10082000072482400B020ADD2483145003020AF3DA
:10083000F582EA8DF0A4A8F0EA8EF0A428F8E43559
:10084000F0F9EB8DF0A428E935F0F9E433CA8FF024
:10085000A429F9EA35F0FAEBF88EF0A429F9EA3583
:10086000F0FAE433FBEC8DF0A429F9EA35F0FAE470
:100870003BFBE88FF0A42AFAEB35F0FBE433CCFD28
:100880008EF0A42AFAEB35F0FBE43CFCED8FF0A4EB
:100890002BFBEC35F0FC20E703120B0B020ABC1219
:1008A0000B3E7900E583B58202800D5003120B6C7C
:1008B000E583C39582120B86E5D0C465D020E1178D
:1008C000EA2DFAEB3EFBEC3FFC50097401120B865B
:1008D000EC4480FC020ABCC3EA9DFAEB9EFBEC9F51
:1008E000FC500FC3E499F9E49AFAE49BFBE49CFC06
:1008F000B2D1120B0B020ABC0215558582188583F2
:100900001985F01A85091B9008F8020FA8C0088500
:100910008108E50824FBF51BE50824FBF886180888
:10092000861908861A9008F8120FA8D00822FCAB86
:10093000F0AA83A982749EC2D1F582120B0B020A1F
:10094000BCA8811818C6B2E7C602089F120B3E3039
:10095000D502B2D1BF0009BC0003020B00020AF3AA
:10096000BC0003020ADDE583B4FF0BE582B4FF039C
:10097000020B00020ADDE582B4FF03020AF3C3950D
:10098000835007247F400B020ADD248014500302A9
:100990000AF3C0E0E4CCCBCAF98D1C8E1D8F1EEF8C
:1009A00054F0C4F51F758306851FF0EB84F582E9CA
:1009B000C4F9EAC4FAEBC4FBEC540FC47803D6FCC8
:1009C00018EBD6FB18EAD6FA8582F0EDA4A8F0FD64
:1009D0008582F0EEA428FEE435F0F88582F0EFA4DD
:1009E00028FFE435F0F8E99DF9EA9EFAEB9FFBEC6D
:1009F00098FCAD1CAE1DAF1E30E7101582E92DF935
:100A0000EA3EFAEB3FFBE43CFC80EDC082D58398E4
:100A1000C3E933F9EA33FAEB33FBEC33FCC3E99D6A
:100A2000EA9EEB9FEC9400B3E413F9D002D0E0C44B
:100A30004AFAD003D0E0C44BFBD004D0E0F5F05428
:100A40000FC44CFCD082158230F40FD3EC13FCEBB6
:100A500013FBEA13FAE913F90582E930E70A740196
:100A60002AFAE43BFBE43CFC020AD47F8612156CB4
:100A7000F582227901AA82E68F82B5821318E6B543
:100A8000F00E18E6B5830918E68A82B5820279006D
:100A900022B4800FE5F0700AE5837006E5827002EB
:100AA0007F00EFB6801518B6001018B6000B18B608
:100AB000000608080876002208080822B98003EA20
:100AC00013B34010EA2401FAE43BFBE43CFC50047D
:100AD0007C800582BC000EBB000BBA0008E4F5F078
:100AE000F583F58222A2D1E582138CF092F78B83F5
:100AF0008A8222E4F583F58275F080F4A2D1132274
:100B0000E4F583F58275F0C0747F227804EC7011EF
:100B1000E58224F8500AF582E4C9CACBFCD8EF225A
:100B2000EC7820058220E713D5820122C3E933F94E
:100B3000EA33FAEB33FBEC33FCD8EA158222AA82C3
:100B4000AB83A2F73392D16002D2F7F582ACF0E525
:100B50008124F9F8E6FD08E6FE0886F008E6A2F72B
:100B60003392D56002D2F7F583AFF022E582C583D8
:100B7000F582A2D133A2D592D11392D5ECCFFCEB62
:100B8000CEFBEACDFA226040F82582500274FFF5D0
:100B900082E824F8501ECCCBCAF9E4CC24F85014D7
:100BA000CBCAF9E4CB24F8500BCAF9E4CA24F850B4
:100BB0000379002224086010F8C3EC13FCEB13FB4C
:100BC000EA13FAE913F9D8F122AA8274DAC0E074C0
:100BD0000BC0E0C00AC00B8A82220511E4B51102E5
:100BE000051222AA8274302AFA24C6500A74072AEF
:100BF000FA3000034302208A82020BC9E582FAC45C
:100C0000540FF582C002120BE3D002740F5AF58222
:100C1000020BE3AA0CAB0DAC0EAD0FAE1075172096
:100C2000EE2EFEED235401FF4206EA2AFAEB33FBD7
:100C3000EC33FCED33FDC3EE95134008EEC3951382
:100C4000FE430201D517D98A0C8B0D8C0E8D0F8EA9
:100C500010227868E624D075F00AA4FA7869E624B0
:100C6000D02AFA78678603BB2D04C3E49AFA751379
:100C700001C3E464808AF063F08095F05029751711
:100C8000038A0374F62517401C0513E51714245C2A
:100C9000F8E517245CF98704A604772E1BEBFA60AD
:100CA00004051780DE8B02EA30E70D785D86037855
:100CB0005EA603785D762E0AE515600AE51504FB4D
:100CC0002513F5138005300B020513785C8603E4C9
:100CD000BB2D0104FB70062006033007020513300C
:100CE0000403020D99300557EB600C75822DC0028C
:100CF000120BC9D002801C30060C75822BC0021268
:100D00000BC9D002800D30070A758220C002120B79
:100D1000C9D002785D8604BC2E0C758230C00212E8
:100D20000BC9D0021514AC141514C3E5139C400371
:100D3000020DDD758230C002120BC9D00280E7AC13
:100D4000141514C3E5139C500C758220C002120BBD
:100D5000C9D00280EA785C8604BC2D0C75822DC057
:100D600002120BC9D002801C30060C75822BC00207
:100D7000120BC9D002800D30070A758220C0021202
:100D80000BC9D002785D8604BC2E52758230C00239
:100D9000120BC9D00215148044EB600E75822DC071
:100DA00002120BC9D0021514802030060E75822B5A
:100DB000C002120BC9D0021514800F30070C7582C7
:100DC00020C002120BC9D0021514785D8603BB2E19
:100DD0000C758230C002120BC9D0021514751701B0
:100DE000C20DE517245CF88603BB4503020E9ABBCF
:100DF0002E348A03C3E464808BF063F08095F05056
:100E00000F758230C003120BC9D0031B8B0280E424
:100E10008B02D20DE5157038200B03020E9A7582F5
:100E20002E120BC98074300D278A03EB30E71FC3E5
:100E3000E464808515F063F08095F0500C75823085
:100E4000C003120BC9D00315150B8B0280DD8B027A
:100E5000300D0EC3E464808515F063F08095F0508A
:100E600021E517245CF886038B82C002120BC9D0DF
:100E700002300D0EE517245CF88603BB2E028002BB
:100E800015151514C3E464808515F063F08095F0A2
:100E90004003200D050517020DE2C3E464808515AB
:100EA000F063F08095F0500A758230120BC9151569
:100EB00080E830040FAA141514EA60087582201225
:100EC0000BC980F122E5157003300B0D7407251551
:100ED000FAE514C39AF5148006E51424FAF514759E
:100EE0001700785C8602BA2B0F20060C785C7620FF
:100EF0002007057517010514200419AA14C3E4641A
:100F0000808AF063F08095F0500A758220120BC938
:100F1000151480E7C20DE517245CF88602BA0002BA
:100F20008069BA451F3000027665C3E46480851588
:100F3000F063F08095F0500A758230120BC91515D8
:100F400080E8D20DC3E5179402E433FA7014EA7016
:100F50000EC3E464808515F063F08095F0400330A3
:100F60000D16E517245CF886028A82120BC9E51774
:100F700024FD50121515800E7402B51709300B06AA
:100F800075822E120BC90517020F16300419AA1408
:100F9000C3E464808AF063F08095F0500A75822083
:100FA000120BC9151480E72285820A85830BE4F5AC
:100FB00011F512AA18AB19AC1A8A828B838CF01225
:100FC0001591FD74012AF518E43BF5198C1AEDFA18
:100FD000700302154EBA25028003021546C204C2F0
:100FE00005C206C207C208C209C20AC20BC201C2B8
:100FF00002C2037513007514007515FFAB18AC1908
:10100000AD1A8B828C838DF0121591FAA3AB82AC52
:10101000838B188C198D1ABA25078A82120BC98006
:10102000928A06BE3000402E8A06EE24C6402774FF
:10103000FFB51513E51475F00AA4FEEA24D02EF5C9
:101040001470BFD20580BBE51575F00AA4FEEA2432
:10105000D02EF51580ACBA2E0A74FFB515A47515FF
:1010600000809F8A06BE6100400E8A06EE248540FD
:10107000075302DFD2008002C200BA20028075BA94
:101080002303021103BA2A03021108BA2B02805F5C
:10109000BA2D028055BA4202805FBA430302114D55
:1010A000BA4403021288BA45030212A2BA460302E6
:1010B000129EBA47030212A6BA4903021288BA4C1A
:1010C00002803BBA4E030212AABA4F0302128FBA31
:1010D0005003021221BA5303021171BA55030212CE
:1010E00094BA58030212990212D4D204021002D206
:1010F00006021002D207021002D209021002D20A1E
:10110000021002D20B02100274FFB5152030090B39
:10111000E51B14F8881B8614021002E51B24FEF858
:10112000881B8606088607188E1402100230090BE9
:10113000E51B14F8881B8615021002E51B24FEF837
:10114000881B8606088607188E1502100230090AC9
:10115000E51B14F8881B8602800FE51B24FEF88827
:101160001B8603088604188B028A82120BC902129E
:10117000D9E51B24FDF8881B86030886040886052C
:1011800018188B0C8C0D8D0E8B828C838DF01216A3
:10119000E5AB82AC838B1674FFB51503851615205D
:1011A000041DC3E51695145016E514C39516F514E1
:1011B000AB141514EB6008758220120BC980F18501
:1011C0000C82850D83850EF0121591FBFA6029AB18
:1011D000151515C3E464808BF063F08095F050180A
:1011E0008A82120BC9AB0CAC0DAD0E0BBB00010C0F
:1011F0008B0C8C0D8D0E80C72004030212D9C3E521
:1012000016951440030212D9E514C39516F514ABD4
:10121000141514EB70030212D9758220120BC980C9
:10122000EEE51B24FDF8881B860308860408860566
:1012300018188B0C8C0D8D0EE50EFB30E7047A43ED
:101240008013EB546060047A50800AEB30E6047A35
:101250004980027A588A82C002120BC975823A12FA
:101260000BC9758230120BC9758278120BC9D00276
:10127000BA4902800BBA50028006850D82120BFC1F
:10128000850C82120BFC8051D20875130A804A75B6
:101290001308804575130A8040751310803BD201F6
:1012A0008037D2028033D203802FE51B24FDF888DB
:1012B0001B860308860408860518188B0C8C0D8D78
:1012C0000E8B828C838DF0E5111216CCA3E51212E1
:1012D00016CC80058A82120BC92001062002033039
:1012E0000370E51B24FCF8881B8603088604088627
:1012F000050886061818188B0C8C0D8D0E8E0FE5C0
:101300000CE50DE50EE50F8B828C838DF0EE12154A
:10131000AD74FFB51503751506300327747F550F9F
:10132000FB8B10E510EB2BFB8B10E50E30E7067402
:10133000014510F510E51024684006749925104009
:1013400002D202300206120EC5020FB3120C520274
:101350000FB3E5137003020FB37B6130092BE51B5C
:1013600014F8881BE6FC3395E0FDFEFF8C0C8D0D18
:101370008E0E8F0F20085EAC0C7D007E007F008CEF
:101380000C8D0D8E0E8F0F804C300A1FE51B24FC38
:10139000F8881B860408860508860608860718183C
:1013A000188C0C8D0D8E0E8F0F802AE51B24FEF8F5
:1013B000881B860408860518ED3395E0FEFF8C0C2B
:1013C0008D0D8E0E8F0F20080CAC0CAD0D7E007FA6
:1013D000008E0E8F0F300B43E50C450D450E450F6B
:1013E00060397408B5130C758230C003120BC9D074
:1013F0000380287410B51323758230C003120BC903
:10140000D00330000C758278C003120BC9D0038062
:101410000A758258C003120BC9D003300825AC0CE2
:10142000AD0DAE0EE50FFF30E717C3E49CFCE49D65
:10143000FDE49EFEE49FFF8C0C8D0D8E0E8F0F80C1
:1014400002C208751600D20C8B00751000C0001285
:101450000C13D000200C0DE510C4FCE6FD4CF61872
:1014600088038002A6100516B20CE50C450D450E4A
:10147000450F70D68803E514700375140120051A12
:10148000200417E51604FCC39514500E758220C085
:1014900003120BC9D003151480E930080E75822D94
:1014A000C003120BC9D00315148024E51660203048
:1014B000060E75822BC003120BC9D0031514800FC2
:1014C00030070C758220C003120BC9D003151420FD
:1014D000041EAC141514C3E5169C50273005047C7B
:1014E0003080027C208C82C003120BC9D00380E2C2
:1014F000C3E51695145009E514C39516F514800339
:101500007514008B00AB161516EB6022B20C200C84
:101510000A08E6C4540FFB8B1080078603740F5B28
:10152000F510851082C000120BE3D00080D7200494
:1015300003020FB3AB141514EB7003020FB37582E3
:1015400020120BC980EE8A82120BC9020FB38511DB
:101550008285128322AA82BA0A0810990280FB753A
:10156000990D10990280FB8A99227F9E12170D30E7
:10157000D103020ADDC3EF9582500974FFF5F0F53F
:1015800083F582227900120B8689828A838BF0ECA4
:101590002220F71430F6148883A88220F507E6A8E5
:1015A0008375830022E280F7E49322E022C0E0F812
:1015B0004582458345F07009F5F0FBFCFDFE0216FF
:1015C0007BE823A2F792E0F8A982AA83D2F7ABF0D6
:1015D0007C007E07C3749798404074FF2EFE740A07
:1015E00089F0A4F985F082740A8AF0A4FA85F08360
:1015F000740A8BF0A4FB740529F9EA3582FAEB35FD
:1016000083FB740035F0FCC3EC13FCEB13FBEA1313
:10161000FAE913F908EC70EF80BAE8C3947FF88B0D
:10162000838EF0E4FBFCFDFEFF08C3E933F9EA33E7
:10163000FAE58333F583EB3BD4FBEC3CD4FCED3D86
:10164000D4FDEE3ED4FEEF3FD4FF602D05F07405CF
:101650002BD4FBE43CD4FCE43DD4FDE43ED4FEE4D6
:101660003FD4FF758204C3EF13FFEE13FEED13FDAD
:10167000EC13FCEB13FBD582EDD8AF785CD0E02007
:10168000E704762B8002762D087906E7C4540F44D0
:1016900030F608B90603762E08E7540F4430F608F2
:1016A00019B902E7764508E5F020E704762B8004B7
:1016B000762DF4040875F00A844430F608E5F04409
:1016C00030F608E4F690005C75F0402220F7103008
:1016D000F6118883A88220F507F6A8837583002277
:1016E000F280F7F022AA82AB83ACF07D007E008A04
:1016F000828B838CF0121591FFA3AA82AB83EF60DB
:10170000070DBD00EA0E80E78D828E8322AA82AB90
:1017100083A2F73392D16002D2F7F582ACF02200B7
:00000001FF
