:100000000200761B5B324A00562850312E34293DBF
:1000100025342E3266562C20562850302E32293D5B
:1000200025342E3266560D0000000002016875224C
:1000300001E4F523F524E4F525F52622000000006F
:100070000000000201737581551200E7E5826003FC
:100080000200E2780079007A007B007C007D00ECC1
:100090004D601C88828983E493A3A882A9838A8205
:1000A0008B83F0A3AA82AB831CBCFFE31D80E075A9
:1000B00082007583007C007D00EC4D600AE4F0A3B3
:1000C0001CBCFFF51D80F27582007583007C007DED
:1000D00000EC4D600AE4F0A31CBCFFF51D80F21299
:1000E000002E1203B680FE75A7007597DE7597ADDA
:1000F00075FF8075EF0675A71075C12075A700758F
:10010000A90075A900E5A930E7FB75A90375A90346
:10011000E5A930E7FB43A41075E10175E20275E340
:1001200040759810758DE6858D8B53890F43892016
:10013000D28ED29975C800438E1075CA3875CB50CF
:1001400075CEFF75CFFFD2ADD2CA759100438E40F8
:100150007592B07593B97594FF7595FF43E680432A
:100160009104D2AF7582002275A700C2CFB2A575E7
:1001700022013275A70053913F3285822985832A57
:1001800085F02BE4F52CF52DE52724FFFFE5283439
:10019000FFF879007A00C3E99FEA648088F063F091
:1001A0008095F05059C002C007C000C00112070777
:1001B000AB82D001D000D007D002BB0A028003BBC3
:1001C0000D1DE52C2529FCE52D352AFDAE2B8C8255
:1001D0008D838EF0E412071A852C82852D8322E907
:1001E0002529FCEA352AFDAE2B8C828D838EF0EB1F
:1001F00012071A09B900010A892C8A2D8098E52C6A
:100200002529FAE52D352AFBAC2B8A828B838CF0CD
:10021000E412071A8527828528832275A70075B204
:100220008075BCF875B91E75E80075DF3F75B300C1
:10023000D2EF228582BBD2EC20ECFDD2EC20ECFD8B
:1002400085BD8285BE83221202331205C9AA82AB04
:1002500083ACF0FDC002C003C004C005909FBE7512
:10026000F05274401205D5AA82AB83ACF0FDE58153
:1002700024FCF581E4C0E074FCC0E0747FC0E0744D
:1002800046C0E08A828B838CF0ED12073EAA82ABD7
:1002900083ACF0FDE58124FCF5818A828B838CF0B0
:1002A000ED2275A70075960075D90075F700759C4D
:1002B00000759E0075D84075DA4275FCCD75DB423D
:1002C00075EA8022AA82AB83EA4B6056E4B5230626
:1002D000E4B5240280247401B52306E4B524028029
:1002E000237402B52306E4B5240280227403B523E7
:1002F00006E4B524028021020375D2A1D2A2C2A3D2
:10030000C2A48071C2A1D2A2D2A3C2A48067C2A19A
:10031000C2A2D2A3D2A4805DD2A1C2A2C2A3D2A4FF
:100320008053E4B52306E4B5240280237401B52389
:1003300006E4B5240280227402B52306E4B5240243
:1003400080217403B52306E4B5240280208026D2E0
:10035000A1C2A2C2A3D2A4801CC2A1C2A2D2A3D213
:10036000A48012C2A1D2A2D2A3C2A48008D2A1D2D8
:10037000A2C2A3C2A40523E4B5230205240525E4F3
:10038000B525020526C374039523E464808524F013
:1003900063F08095F05005E4F523F5242243D4CF93
:1003A00075A72053F1FB53F2EF75A70043D57F43A8
:1003B000A67F43A58022E4F53EF53FF540F541FEDA
:1003C000FFC006C0077403C0E07400C0E07480C0C2
:1003D000E01206E615811581158112039D1202A215
:1003E00012021BD007D0067401B522FB752200C390
:1003F000E5409402E54164809480500A0540E4B5EC
:10040000401705418013900001C006C0071202C4C6
:10041000D007D006E4F540F541C3EE94F4EF6480D4
:10042000948150070EBE00BF0F80BCC3E53E9417F9
:10043000E53F6480948040030204CE8536428537D0
:100440004385384485394575820A120247AA82AB32
:1004500083ACF0FDC002C003C004C00585428285A4
:1004600043838544F0E545120678AA82AB83ACF05D
:10047000FDE58124FCF5818A368B378C388D3985F2
:100480003A42853B43853C44853D457582011202D5
:1004900047AA82AB83ACF0FDC002C003C004C00514
:1004A0008542828543838544F0E545120678AA8219
:1004B000AB83ACF0FDE58124FCF5818A3A8B3B8C63
:1004C0003C8D3D053EE4B53E02053F0205C2E4C059
:1004D000E0C0E074B8C0E07441C0E0853682853782
:1004E000838538F0E53912073EAA82AB83ACF0FD74
:1004F000E58124FCF58174B8C0E0741EC0E0740589
:10050000C0E0743EC0E08A828B838CF0ED1207332A
:1005100085824285834385F044F545E58124FCF5D9
:100520008185422E85432F854430854531E4C0E0E6
:10053000C0E074B8C0E07441C0E0853A82853B8376
:10054000853CF0E53D12073EAA82AB83ACF0FDE5A9
:100550008124FCF58174B8C0E0741EC0E07405C04D
:10056000E0743EC0E08A828B838CF0ED120733AAE0
:1005700082AB83ACF0FDE58124FCF5818A328B33BC
:100580008C348D35C002C003C004C005C042C043D6
:10059000C044C0457408C0E07400C0E07480C0E08E
:1005A0001206E6E58124F5F581E4F53EF53FF536E2
:1005B000F537F538F539753A00753B00753C00752F
:1005C0003D007E007F000203E7E4AC83AB82FAF9D2
:1005D000748E0208661208F2BC0003020891EF60F4
:1005E000FA30D502B2D1E583B4FF030208A7E58251
:1005F000B4FF030208A7258340072482400B0208AA
:100600009124831450030208A7F582EA8DF0A4A870
:10061000F0EA8EF0A428F8E435F0F9EB8DF0A42888
:10062000E935F0F9E433CA8FF0A429F9EA35F0FA94
:10063000EBF88EF0A429F9EA35F0FAE433FBEC8DFF
:10064000F0A429F9EA35F0FAE43BFBE88FF0A42A9C
:10065000FAEB35F0FBE433CCFD8EF0A42AFAEB354F
:10066000F0FBE43CFCED8FF0A42BFBEC35F0FC2020
:10067000E7031208BF0208701208F27900E583B59B
:100680008202800D5003120920E583C3958212096E
:100690003AE5D0C465D020E117EA2DFAEB3EFBEC39
:1006A0003FFC5009740112093AEC4480FC020870C6
:1006B000C3EA9DFAEB9EFBEC9FFC500FC3E499F953
:1006C000E49AFAE49BFBE49CFCB2D11208BF020856
:1006D0007002130985821885831985F01A85091B14
:1006E0009006D1020D5CC008858108E50824FBF561
:1006F0001BE50824FBF8861808861908861A900658
:10070000D1120D5CD0082210980280FBAA998A822F
:10071000C002121309D0028A822220F71030F6118B
:100720008883A88220F507F6A88375830022F280CB
:10073000F7F022A8811818C6B2E7C6020678120898
:10074000F230D502B2D1BF0009BC00030208B402E6
:1007500008A7BC0003020891E583B4FF0BE582B44F
:10076000FF030208B4020891E582B4FF030208A760
:10077000C395835007247F400B02089124801450B6
:10078000030208A7C0E0E4CCCBCAF98D1C8E1D8FF4
:100790001EEF54F0C4F51F758306851FF0EB84F53A
:1007A00082E9C4F9EAC4FAEBC4FBEC540FC4780341
:1007B000D6FC18EBD6FB18EAD6FA8582F0EDA4A891
:1007C000F0FD8582F0EEA428FEE435F0F88582F095
:1007D000EFA428FFE435F0F8E99DF9EA9EFAEB9FD3
:1007E000FBEC98FCAD1CAE1DAF1E30E7101582E986
:1007F0002DF9EA3EFAEB3FFBE43CFC80EDC082D5EC
:100800008398C3E933F9EA33FAEB33FBEC33FCC3E7
:10081000E99DEA9EEB9FEC9400B3E413F9D002D07B
:10082000E0C44AFAD003D0E0C44BFBD004D0E0F5DA
:10083000F0540FC44CFCD082158230F40FD3EC136B
:10084000FCEB13FBEA13FAE913F90582E930E70A36
:1008500074012AFAE43BFBE43CFC020888FCABF0A0
:10086000AA83A982749EC2D1F5821208BF020870C1
:10087000B98003EA13B34010EA2401FAE43BFBE435
:100880003CFC50047C800582BC000EBB000BBA000F
:1008900008E4F5F0F583F58222A2D1E582138CF00D
:1008A00092F78B838A8222E4F583F58275F080F4D7
:1008B000A2D11322E4F583F58275F0C0747F22780B
:1008C00004EC7011E58224F8500AF582E4C9CACB21
:1008D000FCD8EF22EC7820058220E713D582012294
:1008E000C3E933F9EA33FAEB33FBEC33FCD8EA150E
:1008F0008222AA82AB83A2F73392D16002D2F7F5AB
:1009000082ACF0E58124F9F8E6FD08E6FE0886F001
:1009100008E6A2F73392D56002D2F7F583AFF02252
:10092000E582C583F582A2D133A2D592D11392D5A7
:10093000ECCFFCEBCEFBEACDFA226040F8258250EA
:100940000274FFF582E824F8501ECCCBCAF9E4CC3F
:1009500024F85014CBCAF9E4CB24F8500BCAF9E4BC
:10096000CA24F8500379002224086010F8C3EC135D
:10097000FCEB13FBEA13FAE913F9D8F122AA82740B
:100980008EC0E07409C0E0C00AC00B8A8222051143
:10099000E4B51102051222AA8274302AFA24C65044
:1009A0000A74072AFA3000034302208A8202097D72
:1009B000E582FAC4540FF582C002120997D002747E
:1009C0000F5AF582020997AA0CAB0DAC0EAD0FAE13
:1009D00010751720EE2EFEED235401FF4206EA2A81
:1009E000FAEB33FBEC33FCED33FDC3EE951340081B
:1009F000EEC39513FE430201D517D98A0C8B0D8CDB
:100A00000E8D0F8E10227852E624D075F00AA4FACB
:100A10007853E624D02AFA78518603BB2D04C3E428
:100A20009AFA751301C3E464808AF063F08095F04C
:100A300050297517038A0374F62517401C0513E522
:100A400017142446F8E5172446F98704A604772EE0
:100A50001BEBFA6004051780DE8B02EA30E70D78A5
:100A60004786037848A6037847762E0AE515600A7C
:100A7000E51504FB2513F5138005300B02051378EB
:100A8000468603E4BB2D0104FB70062006033007F5
:100A9000020513300403020B4D300557EB600C7553
:100AA000822DC00212097DD002801C30060C758296
:100AB0002BC00212097DD002800D30070A758220FA
:100AC000C00212097DD00278478604BC2E0C7582C4
:100AD00030C00212097DD0021514AC141514C3E500
:100AE000139C4003020B91758230C00212097DD025
:100AF0000280E7AC141514C3E5139C500C758220DA
:100B0000C00212097DD00280EA78468604BC2D0C12
:100B100075822DC00212097DD002801C30060C7532
:100B2000822BC00212097DD002800D30070A758227
:100B300020C00212097DD00278478604BC2E52756F
:100B40008230C00212097DD00215148044EB600E81
:100B500075822DC00212097DD00215148020300646
:100B60000E75822BC00212097DD0021514800F3041
:100B7000070C758220C00212097DD0021514784737
:100B80008603BB2E0C758230C00212097DD002157F
:100B900014751701C20DE5172446F88603BB4503FB
:100BA000020C4EBB2E348A03C3E464808BF063F0E6
:100BB0008095F0500F758230C00312097DD0031B61
:100BC0008B0280E48B02D20DE5157038200B0302F6
:100BD0000C4E75822E12097D8074300D278A03EB2E
:100BE00030E71FC3E464808515F063F08095F05012
:100BF0000C758230C00312097DD00315150B8B02D2
:100C000080DD8B02300D0EC3E464808515F063F047
:100C10008095F05021E5172446F886038B82C002A8
:100C200012097DD002300D0EE5172446F88603BB6D
:100C30002E02800215151514C3E464808515F06337
:100C4000F08095F04003200D050517020B96C3E4D4
:100C500064808515F063F08095F0500A758230123B
:100C6000097D151580E830040FAA141514EA6008F0
:100C700075822012097D80F122E5157003300B0D7D
:100C800074072515FAE514C39AF5148006E51424B3
:100C9000FAF51475170078468602BA2B0F20060C59
:100CA000784676202007057517010514200419AA37
:100CB00014C3E464808AF063F08095F0500A758272
:100CC0002012097D151480E7C20DE5172446F88629
:100CD00002BA00028069BA451F3000027665C3E49B
:100CE00064808515F063F08095F0500A75823012AB
:100CF000097D151580E8D20DC3E5179402E433FA97
:100D00007014EA700EC3E464808515F063F080957A
:100D1000F04003300D16E5172446F886028A821249
:100D2000097DE51724FD50121515800E7402B517C4
:100D300009300B0675822E12097D0517020CCA3088
:100D40000419AA14C3E464808AF063F08095F0501B
:100D50000A75822012097D151480E72285820A8592
:100D6000830BE4F511F512AA18AB19AC1A8A828B21
:100D7000838CF012131EFD74012AF518E43BF5195B
:100D80008C1AEDFA7003021302BA250280030212D4
:100D9000FAC204C205C206C207C208C209C20AC218
:100DA0000BC201C202C2037513007514007515FF52
:100DB000AB18AC19AD1A8B828C838DF012131EFA0E
:100DC000A3AB82AC838B188C198D1ABA25078A8243
:100DD00012097D80928A06BE3000402E8A06EE24DB
:100DE000C6402774FFB51513E51475F00AA4FEEA92
:100DF00024D02EF51470BFD20580BBE51575F00A1E
:100E0000A4FEEA24D02EF51580ACBA2E0A74FFB5E4
:100E100015A4751500809F8A06BE6100400E8A06E3
:100E2000EE248540075302DFD2008002C200BA20C0
:100E3000028075BA2303020EB7BA2A03020EBCBAA7
:100E40002B02805FBA2D028055BA4202805FBA43FE
:100E500003020F01BA440302103CBA4503021056C4
:100E6000BA4603021052BA470302105ABA490302A3
:100E7000103CBA4C02803BBA4E0302105EBA4F03DC
:100E8000021043BA5003020FD5BA5303020F25BA1A
:100E90005503021048BA580302104D021088D204BC
:100EA000020DB6D206020DB6D207020DB6D2090265
:100EB0000DB6D20A020DB6D20B020DB674FFB515EF
:100EC0002030090BE51B14F8881B8614020DB6E5CB
:100ED0001B24FEF8881B8606088607188E14020D50
:100EE000B630090BE51B14F8881B8615020DB6E514
:100EF0001B24FEF8881B8606088607188E15020D2F
:100F0000B630090AE51B14F8881B8602800FE51B22
:100F100024FEF8881B8603088604188B028A821236
:100F2000097D02108DE51B24FDF8881B86030886C9
:100F30000408860518188B0C8C0D8D0E8B828C8303
:100F40008DF0121459AB82AC838B1674FFB5150368
:100F500085161520041DC3E51695145016E514C317
:100F60009516F514AB141514EB6008758220120960
:100F70007D80F1850C82850D83850EF012131EFB9A
:100F8000FA6029AB151515C3E464808BF063F0801B
:100F900095F050188A8212097DAB0CAC0DAD0E0B8A
:100FA000BB00010C8B0C8C0D8D0E80C7200403023E
:100FB000108DC3E5169514400302108DE514C395FA
:100FC00016F514AB141514EB700302108D75822006
:100FD00012097D80EEE51B24FDF8881B8603088638
:100FE0000408860518188B0C8C0D8D0EE50EFB3051
:100FF000E7047A438013EB546060047A50800AEB74
:1010000030E6047A4980027A588A82C00212097D49
:1010100075823A12097D75823012097D75827812C7
:10102000097DD002BA4902800BBA50028006850DB4
:10103000821209B0850C821209B08051D208751352
:101040000A804A751308804575130A80407513108D
:10105000803BD2018037D2028033D203802FE51B40
:1010600024FDF8881B860308860408860518188B5B
:101070000C8C0D8D0E8B828C838DF0E51112071A6E
:10108000A3E51212071A80058A8212097D20010643
:10109000200203300370E51B24FCF8881B8603083C
:1010A00086040886050886061818188B0C8C0D8D8A
:1010B0000E8E0FE50CE50DE50EE50F8B828C838D12
:1010C000F0EE12133A74FFB51503751506300327B9
:1010D000747F550FFB8B10E510EB2BFB8B10E50E8F
:1010E00030E70674014510F510E5102468400674D9
:1010F0009925104002D202300206120C79020D67C7
:10110000120A06020D67E5137003020D677B4B3070
:10111000092BE51B14F8881BE6FC3395E0FDFEFF68
:101120008C0C8D0D8E0E8F0F20085EAC0C7D007E1A
:10113000007F008C0C8D0D8E0E8F0F804C300A1F9F
:10114000E51B24FCF8881B8604088605088606082B
:1011500086071818188C0C8D0D8E0E8F0F802AE5BF
:101160001B24FEF8881B860408860518ED3395E0DD
:10117000FEFF8C0C8D0D8E0E8F0F20080CAC0CAD6D
:101180000D7E007F008E0E8F0F300B43E50C450D5A
:10119000450E450F60397408B5130C758230C003D5
:1011A00012097DD00380287410B51323758230C0D6
:1011B0000312097DD00330000C758278C003120938
:1011C0007DD003800A758258C00312097DD0033098
:1011D0000825AC0CAD0DAE0EE50FFF30E717C3E4EC
:1011E0009CFCE49DFDE49EFEE49FFF8C0C8D0D8E27
:1011F0000E8F0F8002C208751600D20C8B0075107E
:1012000000C0001209C7D000200C0DE510C4FCE698
:10121000FD4CF61888038002A6100516B20CE50CEA
:10122000450D450E450F70D68803E51470037514FF
:101230000120051A200417E51604FCC39514500E6E
:10124000758220C00312097DD003151480E930088F
:101250000E75822DC00312097DD00315148024E57C
:1012600016602030060E75822BC00312097DD00354
:101270001514800F30070C758220C00312097DD031
:1012800003151420041EAC141514C3E5169C502736
:101290003005047C3080027C208C82C00312097DE2
:1012A000D00380E2C3E51695145009E514C39516E2
:1012B000F51480037514008B00AB161516EB602235
:1012C000B20C200C0A08E6C4540FFB8B1080078672
:1012D00003740F5BF510851082C000120997D000CF
:1012E00080D7200403020D67AB141514EB700302C2
:1012F0000D6775822012097D80EE8A8212097D02B7
:101300000D6785118285128322AA82BA0A08109974
:101310000280FB75990D10990280FB8A992220F7B3
:101320001430F6148883A88220F507E6A883758315
:101330000022E280F7E49322E022C0E0F8458245F3
:101340008345F07009F5F0FBFCFDFE021408E8236C
:10135000A2F792E0F8A982AA83D2F7ABF07C007ED4
:1013600007C3749798404074FF2EFE740A89F0A456
:10137000F985F082740A8AF0A4FA85F083740A8BE6
:10138000F0A4FB740529F9EA3582FAEB3583FB7486
:101390000035F0FCC3EC13FCEB13FBEA13FAE91382
:1013A000F908EC70EF80BAE8C3947FF88B838EF075
:1013B000E4FBFCFDFEFF08C3E933F9EA33FAE583F9
:1013C00033F583EB3BD4FBEC3CD4FCED3DD4FDEE9C
:1013D0003ED4FEEF3FD4FF602D05F074052BD4FB07
:1013E000E43CD4FCE43DD4FDE43ED4FEE43FD4FF31
:1013F000758204C3EF13FFEE13FEED13FDEC13FC37
:10140000EB13FBD582EDD8AF7846D0E020E7047629
:101410002B8002762D087906E7C4540F4430F60875
:10142000B90603762E08E7540F4430F60819B902BE
:10143000E7764508E5F020E704762B8004762DF466
:10144000040875F00A844430F608E5F04430F608E4
:10145000E4F690004675F04022AA82AB83ACF07DA2
:10146000007E008A828B838CF012131EFFA3AA8257
:10147000AB83EF60070DBD00EA0E80E78D828E839F
:10148000220000000000000000000000000000003A
:00000001FF
