:100000000200761B5B324A00562850312E33293DC0
:1000100025332E3266562C20562850302E32293D5C
:1000200025332E3266560D00000000020171752244
:1000300001752301752400752500E4F526F52722B6
:100070000000000202177581541200E7E582600358
:100080000200E2780079007A007B007C007D00ECC1
:100090004D601C88828983E493A3A882A9838A8205
:1000A0008B83F0A3AA82AB831CBCFFE31D80E075A9
:1000B00082007583007C007D00EC4D600AE4F0A3B3
:1000C0001CBCFFF51D80F27582007583007C007DED
:1000D00000EC4D600AE4F0A31CBCFFF51D80F21299
:1000E000002E12037E80FE75A7007597DE7597AD12
:1000F00075FF8075EF0675A71075C12075A700758F
:10010000A90075A900E5A930E7FB75A90375A90346
:10011000E5A930E7FB43A41075E10375E20175E33F
:1001200040759810758DE6858D8B53890F43892016
:10013000D28ED29975A21175A16075F80975C800A3
:10014000438E1075CA6075CB7375CEFF75CFFFD225
:10015000ADD2CA759100438E407592B07593B97552
:1001600094FF7595FF43E680439104D2AF758200FA
:1001700022C0E0C0D075D00075A700C2CF7403B50F
:1001800025028003020210B2A57525007401B52373
:1001900036E524700AD2A1D2A2C2A3C2A4805C74A4
:1001A00001B5240AC2A1D2A2D2A3C2A4804D740276
:1001B000B5240AC2A1C2A2D2A3D2A4803ED2A1C2B7
:1001C000A2C2A3D2A48034E524700AD2A1C2A2C2E2
:1001D000A3D2A480267401B5240AC2A1C2A2D2A3CC
:1001E000D2A480177402B5240AC2A1D2A2D2A3C29B
:1001F000A48008D2A1D2A2C2A3D2A405240526E4D9
:10020000B526020527E52424FC500775240080024A
:100210000525D0D0D0E03275A70053913F7522015B
:100220003285822A85832B85F02CE4F52DF52EE589
:100230002824FFFFE52934FFF879007A00C3E99FFD
:10024000EA648088F063F08095F05059C002C007DE
:10025000C000C0011206A1AB82D001D000D007D0EF
:1002600002BB0A028003BB0D1DE52D252AFCE52EED
:10027000352BFDAE2C8C828D838EF0E41206B48576
:100280002D82852E8322E9252AFCEA352BFDAE2C12
:100290008C828D838EF0EB1206B409B900010A89B5
:1002A0002D8A2E8098E52D252AFAE52E352BFBACDC
:1002B0002C8A828B838CF0E41206B48528828529EF
:1002C000832275A70075B28075BCF875B91E75E8F4
:1002D0000075DF3F75B300D2EF228582BBD2EC20E0
:1002E000ECFDD2EC20ECFD85BD8285BE832212029E
:1002F000DA120563AA82AB83ACF0FDC002C003C072
:1003000004C005909FBE75F052744012056FAA821A
:10031000AB83ACF0FDE58124FCF581E4C0E074FC26
:10032000C0E0747FC0E07446C0E08A828B838CF0AA
:10033000ED1206D8AA82AB83ACF0FDE58124FCF572
:10034000818A828B838CF0ED2275A70075960075EB
:10035000D90075F700759C00759E0075D84075DA58
:100360004275FC802243D4CF75A72053F1FB53F292
:10037000F775A70043D50F43A67F43A58022E4F578
:100380003FF540FCFDC004C0057403C0E07400C02C
:10039000E07480C0E012068015811581158112037A
:1003A000651203491202C2D005D0047401B522FBC4
:1003B000752200C3EC9432ED6480948050070CBC2D
:1003C00000E90D80E6C3E53F9414E5406480948025
:1003D0004003020468853741853842853943853AB0
:1003E000447582091202EEAA82AB83AEF0FFC0020E
:1003F000C003C006C0078541828542838543F0E57E
:1004000044120612AA82AB83AEF0FFE58124FCF50C
:10041000818A378B388E398F3A853B41853C4285BE
:100420003D43853E447582011202EEAA82AB83AE43
:10043000F0FFC002C003C006C00785418285428329
:100440008543F0E544120612AA82AB83AEF0FFE5C5
:100450008124FCF5818A3B8B3C8E3D8F3E053FE439
:10046000B53F02054002055CE4C0E0C0E074A0C0F6
:10047000E07441C0E08537828538838539F0E53AFC
:100480001206D8AA82AB83AEF0FFE58124FCF58189
:1004900074B8C0E0741EC0E07405C0E0743EC0E0F3
:1004A0008A828B838EF0EF1206CD8582418583424E
:1004B00085F043F544E58124FCF58185412F854293
:1004C00030854331854432E4C0E0C0E074A0C0E030
:1004D0007441C0E0853B82853C83853DF0E53E125A
:1004E00006D8AA82AB83AEF0FFE58124FCF58174C7
:1004F000B8C0E0741EC0E07405C0E0743EC0E08A7D
:10050000828B838EF0EF1206CDAA82AB83AEF0FF12
:10051000E58124FCF5818A338B348E358F36C00219
:10052000C003C006C007C041C042C043C0447408F5
:10053000C0E07400C0E07480C0E0120680E5812451
:10054000F5F581E4F53FF540F537F538F539F53A3D
:10055000753B00753C00753D00753E007C007D00DC
:100560000203ABE4AC83AB82FAF9748E020800128A
:10057000088CBC000302082BEF60FA30D502B2D120
:10058000E583B4FF03020841E582B4FF030208419A
:10059000258340072482400B02082B248314500338
:1005A000020841F582EA8DF0A4A8F0EA8EF0A428B2
:1005B000F8E435F0F9EB8DF0A428E935F0F9E433EF
:1005C000CA8FF0A429F9EA35F0FAEBF88EF0A429E5
:1005D000F9EA35F0FAE433FBEC8DF0A429F9EA35B9
:1005E000F0FAE43BFBE88FF0A42AFAEB35F0FBE4E9
:1005F00033CCFD8EF0A42AFAEB35F0FBE43CFCEDA5
:100600008FF0A42BFBEC35F0FC20E7031208590215
:10061000080A12088C7900E583B58202800D500328
:100620001208BAE583C395821208D4E5D0C465D018
:1006300020E117EA2DFAEB3EFBEC3FFC5009740178
:100640001208D4EC4480FC02080AC3EA9DFAEB9E2F
:10065000FBEC9FFC500FC3E499F9E49AFAE49BFB8E
:10066000E49CFCB2D112085902080A0212A3858246
:100670001885831985F01A85091B90066B020CF604
:10068000C008858108E50824FBF51BE50824FBF874
:10069000861808861908861A90066B120CF6D00880
:1006A0002210980280FBAA998A82C0021212A3D05B
:1006B000028A822220F71030F6118883A88220F562
:1006C00007F6A88375830022F280F7F022A881182C
:1006D00018C6B2E7C602061212088C30D502B2D193
:1006E000BF0009BC000302084E020841BC0003021F
:1006F000082BE583B4FF0BE582B4FF0302084E022A
:10070000082BE582B4FF03020841C39583500724F8
:100710007F400B02082B2480145003020841C0E0E4
:10072000E4CCCBCAF98D1C8E1D8F1EEF54F0C4F59E
:100730001F758306851FF0EB84F582E9C4F9EAC4CE
:10074000FAEBC4FBEC540FC47803D6FC18EBD6FBD1
:1007500018EAD6FA8582F0EDA4A8F0FD8582F0EEC5
:10076000A428FEE435F0F88582F0EFA428FFE435F4
:10077000F0F8E99DF9EA9EFAEB9FFBEC98FCAD1CC2
:10078000AE1DAF1E30E7101582E92DF9EA3EFAEBF7
:100790003FFBE43CFC80EDC082D58398C3E933F98C
:1007A000EA33FAEB33FBEC33FCC3E99DEA9EEB9FA3
:1007B000EC9400B3E413F9D002D0E0C44AFAD003B9
:1007C000D0E0C44BFBD004D0E0F5F0540FC44CFC97
:1007D000D082158230F40FD3EC13FCEB13FBEA1339
:1007E000FAE913F90582E930E70A74012AFAE43BD1
:1007F000FBE43CFC020822FCABF0AA83A982749EB5
:10080000C2D1F58212085902080AB98003EA13B36B
:100810004010EA2401FAE43BFBE43CFC50047C80F9
:100820000582BC000EBB000BBA0008E4F5F0F583AE
:10083000F58222A2D1E582138CF092F78B838A8213
:1008400022E4F583F58275F080F4A2D11322E4F559
:1008500083F58275F0C0747F227804EC7011E58214
:1008600024F8500AF582E4C9CACBFCD8EF22EC7810
:1008700020058220E713D5820122C3E933F9EA3348
:10088000FAEB33FBEC33FCD8EA158222AA82AB8365
:10089000A2F73392D16002D2F7F582ACF0E5812461
:1008A000F9F8E6FD08E6FE0886F008E6A2F73392BE
:1008B000D56002D2F7F583AFF022E582C583F582D9
:1008C000A2D133A2D592D11392D5ECCFFCEBCEFBC3
:1008D000EACDFA226040F82582500274FFF582E8E2
:1008E00024F8501ECCCBCAF9E4CC24F85014CBCA5F
:1008F000F9E4CB24F8500BCAF9E4CA24F850037980
:10090000002224086010F8C3EC13FCEB13FBEA137D
:10091000FAE913F9D8F122AA827428C0E07409C058
:10092000E0C00AC00B8A82220511E4B5110205124B
:1009300022AA8274302AFA24C6500A74072AFA308E
:1009400000034302208A82020917E582FAC4540F89
:10095000F582C002120931D002740F5AF5820209E1
:1009600031AA0CAB0DAC0EAD0FAE10751720EE2EEC
:10097000FEED235401FF4206EA2AFAEB33FBEC3387
:10098000FCED33FDC3EE95134008EEC39513FE4313
:100990000201D517D98A0C8B0D8C0E8D0F8E10226B
:1009A0007851E624D075F00AA4FA7852E624D02AC9
:1009B000FA78508603BB2D04C3E49AFA751301C379
:1009C000E464808AF063F08095F050297517038AFB
:1009D0000374F62517401C0513E517142445F8E5A4
:1009E000172445F98704A604772E1BEBFA6004054B
:1009F0001780DE8B02EA30E70D784686037847A63B
:100A0000037846762E0AE515600AE51504FB2513E2
:100A1000F5138005300B02051378458603E4BB2DE2
:100A20000104FB700620060330070205133004039F
:100A3000020AE7300557EB600C75822DC0021209DF
:100A400017D002801C30060C75822BC002120917C9
:100A5000D002800D30070A758220C002120917D01B
:100A60000278468604BC2E0C758230C0021209172B
:100A7000D0021514AC141514C3E5139C4003020BEB
:100A80002B758230C002120917D00280E7AC141512
:100A900014C3E5139C500C758220C002120917D0B4
:100AA0000280EA78458604BC2D0C75822DC00212A6
:100AB0000917D002801C30060C75822BC002120967
:100AC00017D002800D30070A758220C00212091764
:100AD000D00278468604BC2E52758230C0021209BC
:100AE00017D00215148044EB600E75822DC00212DF
:100AF0000917D0021514802030060E75822BC00213
:100B0000120917D0021514800F30070C758220C00F
:100B100002120917D002151478468603BB2E0C75F5
:100B20008230C002120917D0021514751701C20DC8
:100B3000E5172445F88603BB4503020BE8BB2E34BA
:100B40008A03C3E464808BF063F08095F0500F75E6
:100B50008230C003120917D0031B8B0280E48B0282
:100B6000D20DE5157038200B03020BE875822E12AA
:100B700009178074300D278A03EB30E71FC3E46444
:100B8000808515F063F08095F0500C758230C003BD
:100B9000120917D00315150B8B0280DD8B02300D67
:100BA0000EC3E464808515F063F08095F05021E574
:100BB000172445F886038B82C002120917D0023031
:100BC0000D0EE5172445F88603BB2E02800215158D
:100BD0001514C3E464808515F063F08095F040033C
:100BE000200D050517020B30C3E464808515F06302
:100BF000F08095F0500A758230120917151580E8BB
:100C000030040FAA141514EA60087582201209171F
:100C100080F122E5157003300B0D74072515FAE5F8
:100C200014C39AF5148006E51424FAF51475170018
:100C300078458602BA2B0F20060C784576202007CF
:100C4000057517010514200419AA14C3E464808AE9
:100C5000F063F08095F0500A758220120917151480
:100C600080E7C20DE5172445F88602BA00028069C4
:100C7000BA451F3000027665C3E464808515F063D1
:100C8000F08095F0500A758230120917151580E82A
:100C9000D20DC3E5179402E433FA7014EA700EC360
:100CA000E464808515F063F08095F04003300D1604
:100CB000E5172445F886028A82120917E51724FDF4
:100CC00050121515800E7402B51709300B06758287
:100CD0002E1209170517020C64300419AA14C3E474
:100CE00064808AF063F08095F0500A7582201209C2
:100CF00017151480E72285820A85830BE4F511F528
:100D000012AA18AB19AC1A8A828B838CF01212B813
:100D1000FD74012AF518E43BF5198C1AEDFA7003FD
:100D200002129CBA25028003021294C204C205C2B8
:100D300006C207C208C209C20AC20BC201C202C26D
:100D4000037513007514007515FFAB18AC19AD1AB7
:100D50008B828C838DF01212B8FAA3AB82AC838B9A
:100D6000188C198D1ABA25078A8212091780928A5F
:100D700006BE3000402E8A06EE24C6402774FFB51A
:100D80001513E51475F00AA4FEEA24D02EF51470AC
:100D9000BFD20580BBE51575F00AA4FEEA24D02E6B
:100DA000F51580ACBA2E0A74FFB515A47515008030
:100DB0009F8A06BE6100400E8A06EE2485400753D6
:100DC00002DFD2008002C200BA20028075BA23037B
:100DD000020E51BA2A03020E56BA2B02805FBA2DB8
:100DE000028055BA4202805FBA4303020E9BBA44A6
:100DF00003020FD6BA4503020FF0BA4603020FEC06
:100E0000BA4703020FF4BA4903020FD6BA4C028064
:100E10003BBA4E03020FF8BA4F03020FDDBA50037C
:100E2000020F6FBA5303020EBFBA5503020FE2BAA4
:100E30005803020FE7021022D204020D50D206021C
:100E40000D50D207020D50D209020D50D20A020DE8
:100E500050D20B020D5074FFB5152030090BE51B65
:100E600014F8881B8614020D50E51B24FEF8881B1D
:100E70008606088607188E14020D5030090BE51BF4
:100E800014F8881B8615020D50E51B24FEF8881BFC
:100E90008606088607188E15020D5030090AE51BD4
:100EA00014F8881B8602800FE51B24FEF8881B8639
:100EB00003088604188B028A82120917021027E59C
:100EC0001B24FDF8881B860308860408860518186D
:100ED0008B0C8C0D8D0E8B828C838DF01213F3ABEB
:100EE00082AC838B1674FFB5150385161520041D7F
:100EF000C3E51695145016E514C39516F514AB14F6
:100F00001514EB600875822012091780F1850C8298
:100F1000850D83850EF01212B8FBFA6029AB15150A
:100F200015C3E464808BF063F08095F050188A82DA
:100F3000120917AB0CAC0DAD0E0BBB00010C8B0CEA
:100F40008C0D8D0E80C7200403021027C3E5169573
:100F5000144003021027E514C39516F514AB1415BD
:100F600014EB700302102775822012091780EEE53A
:100F70001B24FDF8881B86030886040886051818BC
:100F80008B0C8C0D8D0EE50EFB30E7047A4380133D
:100F9000EB546060047A50800AEB30E6047A4980B2
:100FA000027A588A82C00212091775823A1209170A
:100FB000758230120917758278120917D002BA4962
:100FC00002800BBA50028006850D8212094A850CF8
:100FD0008212094A8051D20875130A804A75130893
:100FE000804575130A8040751310803BD20180370D
:100FF000D2028033D203802FE51B24FDF8881B86A4
:101000000308860408860518188B0C8C0D8D0E8B32
:10101000828C838DF0E5111206B4A3E5121206B49A
:1010200080058A821209172001062002033003700E
:10103000E51B24FCF8881B8603088604088605083F
:1010400086061818188B0C8C0D8D0E8E0FE50CE58E
:101050000DE50EE50F8B828C838DF0EE1212D474A9
:10106000FFB51503751506300327747F550FFB8BED
:1010700010E510EB2BFB8B10E50E30E706740145F5
:1010800010F510E51024684006749925104002D22E
:1010900002300206120C13020D011209A0020D010A
:1010A000E5137003020D017B4A30092BE51B14F890
:1010B000881BE6FC3395E0FDFEFF8C0C8D0D8E0E3B
:1010C0008F0F20085EAC0C7D007E007F008C0C8DA5
:1010D0000D8E0E8F0F804C300A1FE51B24FCF88804
:1010E0001B86040886050886060886071818188CCB
:1010F0000C8D0D8E0E8F0F802AE51B24FEF8881BA9
:10110000860408860518ED3395E0FEFF8C0C8D0DE6
:101110008E0E8F0F20080CAC0CAD0D7E007F008E64
:101120000E8F0F300B43E50C450D450E450F603912
:101130007408B5130C758230C003120917D00380F0
:10114000287410B51323758230C003120917D00319
:1011500030000C758278C003120917D003800A751D
:101160008258C003120917D003300825AC0CAD0D0E
:10117000AE0EE50FFF30E717C3E49CFCE49DFDE4F1
:101180009EFEE49FFF8C0C8D0D8E0E8F0F8002C291
:1011900008751600D20C8B00751000C00012096192
:1011A000D000200C0DE510C4FCE6FD4CF6188803B9
:1011B0008002A6100516B20CE50C450D450E450F34
:1011C00070D68803E514700375140120051A2004F5
:1011D00017E51604FCC39514500E758220C0031247
:1011E0000917D003151480E930080E75822DC0034D
:1011F000120917D00315148024E516602030060E5E
:1012000075822BC003120917D0031514800F300705
:101210000C758220C003120917D003151420041E78
:10122000AC141514C3E5169C50273005047C30809F
:10123000027C208C82C003120917D00380E2C3E530
:101240001695145009E514C39516F514800375140A
:10125000008B00AB161516EB6022B20C200C0A08AE
:10126000E6C4540FFB8B1080078603740F5BF510E8
:10127000851082C000120931D00080D720040302FB
:101280000D01AB141514EB7003020D0175822012D1
:10129000091780EE8A82120917020D0185118285D5
:1012A000128322AA82BA0A0810990280FB75990D4E
:1012B00010990280FB8A992220F71430F614888353
:1012C000A88220F507E6A88375830022E280F7E470
:1012D0009322E022C0E0F84582458345F07009F58D
:1012E000F0FBFCFDFE0213A2E823A2F792E0F8A9AE
:1012F00082AA83D2F7ABF07C007E07C37497984034
:101300004074FF2EFE740A89F0A4F985F082740AF5
:101310008AF0A4FA85F083740A8BF0A4FB74052983
:10132000F9EA3582FAEB3583FB740035F0FCC3EC47
:1013300013FCEB13FBEA13FAE913F908EC70EF80E6
:10134000BAE8C3947FF88B838EF0E4FBFCFDFEFFCC
:1013500008C3E933F9EA33FAE58333F583EB3BD489
:10136000FBEC3CD4FCED3DD4FDEE3ED4FEEF3FD48F
:10137000FF602D05F074052BD4FBE43CD4FCE43D68
:10138000D4FDE43ED4FEE43FD4FF758204C3EF13E2
:10139000FFEE13FEED13FDEC13FCEB13FBD582ED1A
:1013A000D8AF7845D0E020E704762B8002762D0870
:1013B0007906E7C4540F4430F608B90603762E08C0
:1013C000E7540F4430F60819B902E7764508E5F00E
:1013D00020E704762B8004762DF4040875F00A8447
:1013E0004430F608E5F04430F608E4F69000457520
:1013F000F04022AA82AB83ACF07D007E008A828B13
:10140000838CF01212B8FFA3AA82AB83EF60070DA2
:10141000BD00EA0E80E78D828E832200000000006E
:00000001FF
